{
  "_format": "hh-sol-artifact-1",
  "contractName": "togLoan",
  "sourceName": "contracts/togLoan.sol",
  "abi": [
    {
      "inputs": [
        {
          "internalType": "uint256",
          "name": "_poolSupplyMax",
          "type": "uint256"
        },
        {
          "internalType": "uint256",
          "name": "_numberBorrowerTokens",
          "type": "uint256"
        },
        {
          "internalType": "uint256",
          "name": "_reserveFactorMantissa",
          "type": "uint256"
        },
        {
          "internalType": "address",
          "name": "_borrower",
          "type": "address"
        },
        {
          "internalType": "address",
          "name": "_borrowerToken",
          "type": "address"
        },
        {
          "internalType": "address",
          "name": "_admin",
          "type": "address"
        }
      ],
      "stateMutability": "nonpayable",
      "type": "constructor"
    },
    {
      "anonymous": false,
      "inputs": [
        {
          "indexed": false,
          "internalType": "uint256",
          "name": "",
          "type": "uint256"
        }
      ],
      "name": "ArrayVal",
      "type": "event"
    },
    {
      "anonymous": false,
      "inputs": [
        {
          "indexed": false,
          "internalType": "address",
          "name": "",
          "type": "address"
        },
        {
          "indexed": false,
          "internalType": "uint256",
          "name": "",
          "type": "uint256"
        }
      ],
      "name": "Deposit",
      "type": "event"
    },
    {
      "anonymous": false,
      "inputs": [
        {
          "indexed": false,
          "internalType": "address",
          "name": "",
          "type": "address"
        },
        {
          "indexed": false,
          "internalType": "uint256",
          "name": "",
          "type": "uint256"
        }
      ],
      "name": "Withdraw",
      "type": "event"
    },
    {
      "anonymous": false,
      "inputs": [
        {
          "indexed": false,
          "internalType": "uint256",
          "name": "",
          "type": "uint256"
        }
      ],
      "name": "balance",
      "type": "event"
    },
    {
      "anonymous": false,
      "inputs": [
        {
          "indexed": false,
          "internalType": "uint256",
          "name": "_amount",
          "type": "uint256"
        },
        {
          "indexed": false,
          "internalType": "address",
          "name": "borrower",
          "type": "address"
        }
      ],
      "name": "borrowerTokenDeposited",
      "type": "event"
    },
    {
      "anonymous": false,
      "inputs": [
        {
          "indexed": false,
          "internalType": "uint256",
          "name": "_value",
          "type": "uint256"
        }
      ],
      "name": "ethWithdrawBorrower",
      "type": "event"
    },
    {
      "anonymous": false,
      "inputs": [
        {
          "indexed": false,
          "internalType": "uint256",
          "name": "_timeLimit",
          "type": "uint256"
        }
      ],
      "name": "supplyVaultNowOpen",
      "type": "event"
    },
    {
      "inputs": [],
      "name": "LP_deposit",
      "outputs": [],
      "stateMutability": "payable",
      "type": "function"
    },
    {
      "inputs": [],
      "name": "LPnfts",
      "outputs": [
        {
          "internalType": "contract ERC721",
          "name": "",
          "type": "address"
        }
      ],
      "stateMutability": "view",
      "type": "function"
    },
    {
      "inputs": [
        {
          "internalType": "string",
          "name": "_name",
          "type": "string"
        },
        {
          "internalType": "string",
          "name": "_symbol",
          "type": "string"
        }
      ],
      "name": "acceptLoanWithdrawLoan",
      "outputs": [],
      "stateMutability": "nonpayable",
      "type": "function"
    },
    {
      "inputs": [],
      "name": "admin",
      "outputs": [
        {
          "internalType": "address",
          "name": "",
          "type": "address"
        }
      ],
      "stateMutability": "view",
      "type": "function"
    },
    {
      "inputs": [],
      "name": "borrower",
      "outputs": [
        {
          "internalType": "address",
          "name": "",
          "type": "address"
        }
      ],
      "stateMutability": "view",
      "type": "function"
    },
    {
      "inputs": [],
      "name": "borrowerToken",
      "outputs": [
        {
          "internalType": "address",
          "name": "",
          "type": "address"
        }
      ],
      "stateMutability": "view",
      "type": "function"
    },
    {
      "inputs": [],
      "name": "currentIndex",
      "outputs": [
        {
          "internalType": "uint256",
          "name": "",
          "type": "uint256"
        }
      ],
      "stateMutability": "view",
      "type": "function"
    },
    {
      "inputs": [
        {
          "internalType": "uint256",
          "name": "_value",
          "type": "uint256"
        }
      ],
      "name": "depositTokens",
      "outputs": [],
      "stateMutability": "nonpayable",
      "type": "function"
    },
    {
      "inputs": [
        {
          "internalType": "address",
          "name": "",
          "type": "address"
        }
      ],
      "name": "deposits",
      "outputs": [
        {
          "internalType": "uint256",
          "name": "",
          "type": "uint256"
        }
      ],
      "stateMutability": "view",
      "type": "function"
    },
    {
      "inputs": [],
      "name": "endBorrowerAcceptWindow",
      "outputs": [
        {
          "internalType": "uint256",
          "name": "",
          "type": "uint256"
        }
      ],
      "stateMutability": "view",
      "type": "function"
    },
    {
      "inputs": [],
      "name": "endOfRaise",
      "outputs": [
        {
          "internalType": "uint256",
          "name": "",
          "type": "uint256"
        }
      ],
      "stateMutability": "view",
      "type": "function"
    },
    {
      "inputs": [],
      "name": "ethSupplied",
      "outputs": [
        {
          "internalType": "uint256",
          "name": "",
          "type": "uint256"
        }
      ],
      "stateMutability": "view",
      "type": "function"
    },
    {
      "inputs": [
        {
          "internalType": "address",
          "name": "",
          "type": "address"
        }
      ],
      "name": "indexing",
      "outputs": [
        {
          "internalType": "uint256",
          "name": "",
          "type": "uint256"
        }
      ],
      "stateMutability": "view",
      "type": "function"
    },
    {
      "inputs": [],
      "name": "loanAccepted",
      "outputs": [
        {
          "internalType": "bool",
          "name": "",
          "type": "bool"
        }
      ],
      "stateMutability": "view",
      "type": "function"
    },
    {
      "inputs": [],
      "name": "makeLoanPayment",
      "outputs": [],
      "stateMutability": "nonpayable",
      "type": "function"
    },
    {
      "inputs": [],
      "name": "numberBorrowerTokens",
      "outputs": [
        {
          "internalType": "uint256",
          "name": "",
          "type": "uint256"
        }
      ],
      "stateMutability": "view",
      "type": "function"
    },
    {
      "inputs": [],
      "name": "poolSupplyMax",
      "outputs": [
        {
          "internalType": "uint256",
          "name": "",
          "type": "uint256"
        }
      ],
      "stateMutability": "view",
      "type": "function"
    },
    {
      "inputs": [],
      "name": "reserveFactorMantissa",
      "outputs": [
        {
          "internalType": "uint256",
          "name": "",
          "type": "uint256"
        }
      ],
      "stateMutability": "view",
      "type": "function"
    },
    {
      "inputs": [],
      "name": "startOfRaise",
      "outputs": [
        {
          "internalType": "uint256",
          "name": "",
          "type": "uint256"
        }
      ],
      "stateMutability": "view",
      "type": "function"
    },
    {
      "inputs": [],
      "name": "valorDAORecibido",
      "outputs": [
        {
          "internalType": "uint256",
          "name": "",
          "type": "uint256"
        }
      ],
      "stateMutability": "view",
      "type": "function"
    },
    {
      "inputs": [],
      "name": "valorRetiroLPs",
      "outputs": [
        {
          "internalType": "uint256",
          "name": "",
          "type": "uint256"
        }
      ],
      "stateMutability": "view",
      "type": "function"
    },
    {
      "inputs": [],
      "name": "withdraw",
      "outputs": [],
      "stateMutability": "nonpayable",
      "type": "function"
    },
    {
      "inputs": [],
      "name": "withdrawFailedDeposits",
      "outputs": [],
      "stateMutability": "nonpayable",
      "type": "function"
    },
    {
      "inputs": [],
      "name": "withdrawLPtoken",
      "outputs": [],
      "stateMutability": "nonpayable",
      "type": "function"
    },
    {
      "inputs": [],
      "name": "withdrawTokensBorrower",
      "outputs": [],
      "stateMutability": "nonpayable",
      "type": "function"
    }
  ],
  "bytecode": "0x60a0604052600060085560006009556000600a553480156200002057600080fd5b50604051620056983803806200569883398181016040528101906200004691906200014e565b856003819055508460028190555082600160006101000a81548173ffffffffffffffffffffffffffffffffffffffff021916908373ffffffffffffffffffffffffffffffffffffffff16021790555081600060016101000a81548173ffffffffffffffffffffffffffffffffffffffff021916908373ffffffffffffffffffffffffffffffffffffffff16021790555083600b819055508073ffffffffffffffffffffffffffffffffffffffff1660808173ffffffffffffffffffffffffffffffffffffffff1660601b8152505050505050505062000256565b600081519050620001318162000222565b92915050565b60008151905062000148816200023c565b92915050565b60008060008060008060c087890312156200016857600080fd5b60006200017889828a0162000137565b96505060206200018b89828a0162000137565b95505060406200019e89828a0162000137565b9450506060620001b189828a0162000120565b9350506080620001c489828a0162000120565b92505060a0620001d789828a0162000120565b9150509295509295509295565b6000620001f182620001f8565b9050919050565b600073ffffffffffffffffffffffffffffffffffffffff82169050919050565b6000819050919050565b6200022d81620001e4565b81146200023957600080fd5b50565b620002478162000218565b81146200025357600080fd5b50565b60805160601c615423620002756000396000611ad601526154236000f3fe608060405260043610620001885760003560e01c80636c2d799411620000e5578063a202b4d71162000097578063dd49756e116200006d578063dd49756e14620004fd578063ef819fae146200052b578063f851a440146200055b578063fc7e286d146200058b5762000188565b8063a202b4d7146200046f578063b8c36b111462000489578063d12e55aa14620004b95762000188565b80636c2d7994146200036757806371126bec146200039757806376888e2714620003c75780637df1f1b914620003f75780639d410bf314620004275780639eb708bc14620004555762000188565b80633ccfd60b116200013f5780633ccfd60b146200025d57806353d9ba8e146200027757806359c25c2514620002a75780635c99410614620002d757806365bacb47146200030757806368c9b0f314620003375762000188565b80630f55508d146200018d57806315978dbf1462000199578063173b990414620001b35780632397294514620001e357806326987b6014620002135780632972e9241462000243575b600080fd5b62000197620005cf565b005b348015620001a657600080fd5b50620001b162000990565b005b348015620001c057600080fd5b50620001cb62000992565b604051620001da919062002308565b60405180910390f35b348015620001f057600080fd5b50620001fb62000998565b6040516200020a9190620020b7565b60405180910390f35b3480156200022057600080fd5b506200022b620009a9565b6040516200023a919062002308565b60405180910390f35b3480156200025057600080fd5b506200025b620009af565b005b3480156200026a57600080fd5b506200027562000ad5565b005b3480156200028457600080fd5b506200028f62001269565b6040516200029e919062002308565b60405180910390f35b348015620002b457600080fd5b50620002bf6200126f565b604051620002ce919062002308565b60405180910390f35b348015620002e457600080fd5b50620002ef62001275565b604051620002fe919062002308565b60405180910390f35b3480156200031457600080fd5b506200031f6200127b565b6040516200032e919062002308565b60405180910390f35b3480156200034457600080fd5b506200034f62001281565b6040516200035e919062002308565b60405180910390f35b3480156200037457600080fd5b506200037f62001287565b6040516200038e919062002030565b60405180910390f35b348015620003a457600080fd5b50620003af620012ad565b604051620003be9190620020d4565b60405180910390f35b348015620003d457600080fd5b50620003df620012d3565b604051620003ee919062002308565b60405180910390f35b3480156200040457600080fd5b506200040f620012d9565b6040516200041e919062002030565b60405180910390f35b3480156200043457600080fd5b506200045360048036038101906200044d919062001cac565b620012ff565b005b3480156200046257600080fd5b506200046d62001559565b005b3480156200047c57600080fd5b506200048762001770565b005b3480156200049657600080fd5b50620004a162001805565b604051620004b0919062002308565b60405180910390f35b348015620004c657600080fd5b50620004e56004803603810190620004df919062001c54565b6200180b565b604051620004f4919062002308565b60405180910390f35b3480156200050a57600080fd5b5062000529600480360381019062000523919062001d1f565b62001823565b005b3480156200053857600080fd5b506200054362001ace565b60405162000552919062002308565b60405180910390f35b3480156200056857600080fd5b506200057362001ad4565b60405162000582919062002030565b60405180910390f35b3480156200059857600080fd5b50620005b76004803603810190620005b1919062001c54565b62001af8565b604051620005c6919062002308565b60405180910390f35b600160009054906101000a900473ffffffffffffffffffffffffffffffffffffffff1673ffffffffffffffffffffffffffffffffffffffff163373ffffffffffffffffffffffffffffffffffffffff16141562000663576040517f08c379a00000000000000000000000000000000000000000000000000000000081526004016200065a90620021b4565b60405180910390fd5b6000429050600554811180156200067b575060045481105b620006bd576040517f08c379a0000000000000000000000000000000000000000000000000000000008152600401620006b4906200225e565b60405180910390fd5b6000600d60003373ffffffffffffffffffffffffffffffffffffffff1673ffffffffffffffffffffffffffffffffffffffff168152602001908152602001600020541462000742576040517f08c379a00000000000000000000000000000000000000000000000000000000081526004016200073990620022c4565b60405180910390fd5b34600d60003373ffffffffffffffffffffffffffffffffffffffff1673ffffffffffffffffffffffffffffffffffffffff1681526020019081526020016000206000828254620007939190620023d8565b925050819055506000600e80549050146200084757600034600e600a6000815480929190620007c2906200255d565b9190505581548110620007fe577f4e487b7100000000000000000000000000000000000000000000000000000000600052603260045260246000fd5b9060005260206000200154620008159190620023d8565b9050600e8190806001815401808255809150506001900390600052602060002001600090919091909150555062000871565b600e3490806001815401808255809150506001900390600052602060002001600090919091909150555b7fa711d19e52eb41c47e2aa371b9b08c4d54c89b3aa2b93c050dc48f59d6d490a3600e600a5481548110620008cf577f4e487b7100000000000000000000000000000000000000000000000000000000600052603260045260246000fd5b9060005260206000200154604051620008e9919062002308565b60405180910390a1600a54600c60003373ffffffffffffffffffffffffffffffffffffffff1673ffffffffffffffffffffffffffffffffffffffff168152602001908152602001600020819055507fe1fffcc4923d04b559f4d29a8bfc6cda04eb5b0d3c460751c2402c5c5cc9109c33346040516200096a9291906200208a565b60405180910390a13460076000828254620009869190620023d8565b9250508190555050565b565b600b5481565b60008054906101000a900460ff1681565b600a5481565b60008054906101000a900460ff161562000a00576040517f08c379a0000000000000000000000000000000000000000000000000000000008152600401620009f7906200223c565b60405180910390fd5b6000600d60003373ffffffffffffffffffffffffffffffffffffffff1673ffffffffffffffffffffffffffffffffffffffff16815260200190815260200160002054141562000a86576040517f08c379a000000000000000000000000000000000000000000000000000000000815260040162000a7d9062002280565b60405180910390fd5b6000429050600654811162000ad2576040517f08c379a000000000000000000000000000000000000000000000000000000000815260040162000ac9906200225e565b60405180910390fd5b50565b6000600c60003373ffffffffffffffffffffffffffffffffffffffff1673ffffffffffffffffffffffffffffffffffffffff1681526020019081526020016000205490506000808214801562000b81575060095460085462000b38919062002435565b600e838154811062000b73577f4e487b7100000000000000000000000000000000000000000000000000000000600052603260045260246000fd5b906000526020600020015411155b905060006001905060008084111562000cf25760095460085462000ba6919062002435565b600e60018662000bb7919062002435565b8154811062000bef577f4e487b7100000000000000000000000000000000000000000000000000000000600052603260045260246000fd5b9060005260206000200154109150600d60003373ffffffffffffffffffffffffffffffffffffffff1673ffffffffffffffffffffffffffffffffffffffff16815260200190815260200160002054600e60018662000c4e919062002435565b8154811062000c86577f4e487b7100000000000000000000000000000000000000000000000000000000600052603260045260246000fd5b9060005260206000200154600e868154811062000ccc577f4e487b7100000000000000000000000000000000000000000000000000000000600052603260045260246000fd5b906000526020600020015462000ce3919062002435565b62000cef919062002435565b90505b818062000cfc5750825b62000d3e576040517f08c379a000000000000000000000000000000000000000000000000000000000815260040162000d359062002192565b60405180910390fd5b6000600d60003373ffffffffffffffffffffffffffffffffffffffff1673ffffffffffffffffffffffffffffffffffffffff168152602001908152602001600020541162000dc3576040517f08c379a000000000000000000000000000000000000000000000000000000000815260040162000dba90620021f8565b60405180910390fd5b60008085111562000fcb5760085482600e60018862000de3919062002435565b8154811062000e1b577f4e487b7100000000000000000000000000000000000000000000000000000000600052603260045260246000fd5b906000526020600020015462000e329190620023d8565b1062000e75576040517f08c379a000000000000000000000000000000000000000000000000000000000815260040162000e6c906200212c565b60405180910390fd5b600d60003373ffffffffffffffffffffffffffffffffffffffff1673ffffffffffffffffffffffffffffffffffffffff16815260200190815260200160002054600e60018762000ec6919062002435565b8154811062000efe577f4e487b7100000000000000000000000000000000000000000000000000000000600052603260045260246000fd5b906000526020600020015460085462000f18919062002435565b1062000f6457600d60003373ffffffffffffffffffffffffffffffffffffffff1673ffffffffffffffffffffffffffffffffffffffff1681526020019081526020016000205462000fc8565b600e60018662000f75919062002435565b8154811062000fad577f4e487b7100000000000000000000000000000000000000000000000000000000600052603260045260246000fd5b906000526020600020015460085462000fc7919062002435565b5b90505b600080861462000fdc57816200101d565b600d60003373ffffffffffffffffffffffffffffffffffffffff1673ffffffffffffffffffffffffffffffffffffffff168152602001908152602001600020545b90506008548111156200102f57600080fd5b80600d60003373ffffffffffffffffffffffffffffffffffffffff1673ffffffffffffffffffffffffffffffffffffffff168152602001908152602001600020600082825462001080919062002435565b925050819055507f884edad9ce6fa2440d8a54cc123490eb96d2768479d49ff9c7366125a94243643382604051620010ba9291906200208a565b60405180910390a17f884edad9ce6fa2440d8a54cc123490eb96d2768479d49ff9c7366125a942436433600d60003373ffffffffffffffffffffffffffffffffffffffff1673ffffffffffffffffffffffffffffffffffffffff16815260200190815260200160002054604051620011349291906200208a565b60405180910390a16000861115620011d5577f884edad9ce6fa2440d8a54cc123490eb96d2768479d49ff9c7366125a942436433600e60018962001179919062002435565b81548110620011b1577f4e487b7100000000000000000000000000000000000000000000000000000000600052603260045260246000fd5b9060005260206000200154604051620011cc9291906200208a565b60405180910390a15b600081111562001228573373ffffffffffffffffffffffffffffffffffffffff166108fc829081150290604051600060405180830381858888f1935050505015801562001226573d6000803e3d6000fd5b505b7f47bb89f0fc234008e53c79bc3e3dab90e27502d1380a4b3cc35038d57fa03d2a4760405162001259919062002308565b60405180910390a1505050505050565b60055481565b60085481565b60025481565b60075481565b60095481565b600060019054906101000a900473ffffffffffffffffffffffffffffffffffffffff1681565b600f60009054906101000a900473ffffffffffffffffffffffffffffffffffffffff1681565b60065481565b600160009054906101000a900473ffffffffffffffffffffffffffffffffffffffff1681565b600160009054906101000a900473ffffffffffffffffffffffffffffffffffffffff1673ffffffffffffffffffffffffffffffffffffffff163373ffffffffffffffffffffffffffffffffffffffff161462001392576040517f08c379a000000000000000000000000000000000000000000000000000000000815260040162001389906200221a565b60405180910390fd5b600042905060045481118015620013aa575060065481105b620013ec576040517f08c379a0000000000000000000000000000000000000000000000000000000008152600401620013e3906200225e565b60405180910390fd5b60008054906101000a900460ff16156200143d576040517f08c379a00000000000000000000000000000000000000000000000000000000081526004016200143490620022a2565b60405180910390fd5b60016000806101000a81548160ff02191690831515021790555060003373ffffffffffffffffffffffffffffffffffffffff16600754604051620014819062002019565b60006040518083038185875af1925050503d8060008114620014c0576040519150601f19603f3d011682016040523d82523d6000602084013e620014c5565b606091505b50509050806200150c576040517f08c379a000000000000000000000000000000000000000000000000000000000815260040162001503906200214e565b60405180910390fd5b7f7c046c1724795ce324ef285dee325dda79387db88db5a1f7714988b13a9b5ecc6007546040516200153f919062002308565b60405180910390a162001553848462001b10565b50505050565b60008054906101000a900460ff1615620015aa576040517f08c379a0000000000000000000000000000000000000000000000000000000008152600401620015a19062002170565b60405180910390fd5b6000600d60003373ffffffffffffffffffffffffffffffffffffffff1673ffffffffffffffffffffffffffffffffffffffff16815260200190815260200160002054141562001630576040517f08c379a0000000000000000000000000000000000000000000000000000000008152600401620016279062002280565b60405180910390fd5b6000600d60003373ffffffffffffffffffffffffffffffffffffffff1673ffffffffffffffffffffffffffffffffffffffff1681526020019081526020016000205490506000600d60003373ffffffffffffffffffffffffffffffffffffffff1673ffffffffffffffffffffffffffffffffffffffff1681526020019081526020016000208190555060003373ffffffffffffffffffffffffffffffffffffffff1682604051620016e19062002019565b60006040518083038185875af1925050503d806000811462001720576040519150601f19603f3d011682016040523d82523d6000602084013e62001725565b606091505b50509050806200176c576040517f08c379a000000000000000000000000000000000000000000000000000000000815260040162001763906200214e565b60405180910390fd5b5050565b600160009054906101000a900473ffffffffffffffffffffffffffffffffffffffff1673ffffffffffffffffffffffffffffffffffffffff163373ffffffffffffffffffffffffffffffffffffffff161462001803576040517f08c379a0000000000000000000000000000000000000000000000000000000008152600401620017fa906200221a565b60405180910390fd5b565b60035481565b600c6020528060005260406000206000915090505481565b600160009054906101000a900473ffffffffffffffffffffffffffffffffffffffff1673ffffffffffffffffffffffffffffffffffffffff163373ffffffffffffffffffffffffffffffffffffffff1614620018b6576040517f08c379a0000000000000000000000000000000000000000000000000000000008152600401620018ad906200221a565b60405180910390fd5b6002548114620018fd576040517f08c379a0000000000000000000000000000000000000000000000000000000008152600401620018f490620021d6565b60405180910390fd5b60008060019054906101000a900473ffffffffffffffffffffffffffffffffffffffff1673ffffffffffffffffffffffffffffffffffffffff166323b872dd600160009054906101000a900473ffffffffffffffffffffffffffffffffffffffff1630856040518463ffffffff1660e01b815260040162001981939291906200204d565b602060405180830381600087803b1580156200199c57600080fd5b505af1158015620019b1573d6000803e3d6000fd5b505050506040513d601f19601f82011682018060405250810190620019d7919062001c80565b90508062001a1c576040517f08c379a000000000000000000000000000000000000000000000000000000000815260040162001a1390620022e6565b60405180910390fd5b7f19893fa936723849d863fc33b53718b15653d646e3b6c4d69baacfa0bc644c40823060405162001a4f92919062002325565b60405180910390a1426005819055506201518060055462001a719190620023d8565b60048190555061384060045462001a899190620023d8565b6006819055507f427ab1ad6fb8a2e156dc3f43eabced6adaf640ce9def138f05e1d5210b8e1ea960045460405162001ac2919062002308565b60405180910390a15050565b60045481565b7f000000000000000000000000000000000000000000000000000000000000000081565b600d6020528060005260406000206000915090505481565b818160405162001b209062001b8f565b62001b2d929190620020f1565b604051809103906000f08015801562001b4a573d6000803e3d6000fd5b50600f60006101000a81548173ffffffffffffffffffffffffffffffffffffffff021916908373ffffffffffffffffffffffffffffffffffffffff1602179055505050565b612b4480620028aa83390190565b600062001bb462001bae846200237b565b62002352565b90508281526020810184848401111562001bcd57600080fd5b62001bda848285620024e2565b509392505050565b60008135905062001bf3816200285b565b92915050565b60008151905062001c0a8162002875565b92915050565b600082601f83011262001c2257600080fd5b813562001c3484826020860162001b9d565b91505092915050565b60008135905062001c4e816200288f565b92915050565b60006020828403121562001c6757600080fd5b600062001c778482850162001be2565b91505092915050565b60006020828403121562001c9357600080fd5b600062001ca38482850162001bf9565b91505092915050565b6000806040838503121562001cc057600080fd5b600083013567ffffffffffffffff81111562001cdb57600080fd5b62001ce98582860162001c10565b925050602083013567ffffffffffffffff81111562001d0757600080fd5b62001d158582860162001c10565b9150509250929050565b60006020828403121562001d3257600080fd5b600062001d428482850162001c3d565b91505092915050565b62001d568162002470565b82525050565b62001d678162002484565b82525050565b62001d7881620024ba565b82525050565b600062001d8b82620023b1565b62001d978185620023c7565b935062001da9818560208601620024f1565b62001db48162002609565b840191505092915050565b600062001dce601383620023c7565b915062001ddb826200261a565b602082019050919050565b600062001df5601283620023c7565b915062001e028262002643565b602082019050919050565b600062001e1c601483620023c7565b915062001e29826200266c565b602082019050919050565b600062001e43600c83620023c7565b915062001e508262002695565b602082019050919050565b600062001e6a601983620023c7565b915062001e7782620026be565b602082019050919050565b600062001e91601983620023c7565b915062001e9e82620026e7565b602082019050919050565b600062001eb8601283620023c7565b915062001ec58262002710565b602082019050919050565b600062001edf601183620023c7565b915062001eec8262002739565b602082019050919050565b600062001f06601883620023c7565b915062001f138262002762565b602082019050919050565b600062001f2d601983620023c7565b915062001f3a826200278b565b602082019050919050565b600062001f54600f83620023c7565b915062001f6182620027b4565b602082019050919050565b600062001f7b600083620023bc565b915062001f8882620027dd565b600082019050919050565b600062001fa2601c83620023c7565b915062001faf82620027e0565b602082019050919050565b600062001fc9601183620023c7565b915062001fd68262002809565b602082019050919050565b600062001ff0601683620023c7565b915062001ffd8262002832565b602082019050919050565b6200201381620024b0565b82525050565b6000620020268262001f6c565b9150819050919050565b600060208201905062002047600083018462001d4b565b92915050565b600060608201905062002064600083018662001d4b565b62002073602083018562001d4b565b62002082604083018462002008565b949350505050565b6000604082019050620020a1600083018562001d4b565b620020b0602083018462002008565b9392505050565b6000602082019050620020ce600083018462001d5c565b92915050565b6000602082019050620020eb600083018462001d6d565b92915050565b600060408201905081810360008301526200210d818562001d7e565b9050818103602083015262002123818462001d7e565b90509392505050565b60006020820190508181036000830152620021478162001dbf565b9050919050565b60006020820190508181036000830152620021698162001de6565b9050919050565b600060208201905081810360008301526200218b8162001e0d565b9050919050565b60006020820190508181036000830152620021ad8162001e34565b9050919050565b60006020820190508181036000830152620021cf8162001e5b565b9050919050565b60006020820190508181036000830152620021f18162001e82565b9050919050565b60006020820190508181036000830152620022138162001ea9565b9050919050565b60006020820190508181036000830152620022358162001ed0565b9050919050565b60006020820190508181036000830152620022578162001ef7565b9050919050565b60006020820190508181036000830152620022798162001f1e565b9050919050565b600060208201905081810360008301526200229b8162001f45565b9050919050565b60006020820190508181036000830152620022bd8162001f93565b9050919050565b60006020820190508181036000830152620022df8162001fba565b9050919050565b60006020820190508181036000830152620023018162001fe1565b9050919050565b60006020820190506200231f600083018462002008565b92915050565b60006040820190506200233c600083018562002008565b6200234b602083018462001d4b565b9392505050565b60006200235e62002371565b90506200236c828262002527565b919050565b6000604051905090565b600067ffffffffffffffff821115620023995762002398620025da565b5b620023a48262002609565b9050602081019050919050565b600081519050919050565b600081905092915050565b600082825260208201905092915050565b6000620023e582620024b0565b9150620023f283620024b0565b9250827fffffffffffffffffffffffffffffffffffffffffffffffffffffffffffffffff038211156200242a5762002429620025ab565b5b828201905092915050565b60006200244282620024b0565b91506200244f83620024b0565b925082821015620024655762002464620025ab565b5b828203905092915050565b60006200247d8262002490565b9050919050565b60008115159050919050565b600073ffffffffffffffffffffffffffffffffffffffff82169050919050565b6000819050919050565b6000620024c782620024ce565b9050919050565b6000620024db8262002490565b9050919050565b82818337600083830152505050565b60005b8381101562002511578082015181840152602081019050620024f4565b8381111562002521576000848401525b50505050565b620025328262002609565b810181811067ffffffffffffffff82111715620025545762002553620025da565b5b80604052505050565b60006200256a82620024b0565b91507fffffffffffffffffffffffffffffffffffffffffffffffffffffffffffffffff821415620025a0576200259f620025ab565b5b600182019050919050565b7f4e487b7100000000000000000000000000000000000000000000000000000000600052601160045260246000fd5b7f4e487b7100000000000000000000000000000000000000000000000000000000600052604160045260246000fd5b6000601f19601f8301169050919050565b7f63616e2774207769746864726177206d6f726500000000000000000000000000600082015250565b7f544f4747453a204641494c45445f53454e440000000000000000000000000000600082015250565b7f544f4747453a204c4f414e5f4143434550544544000000000000000000000000600082015250565b7f6e6f7420656c696769626c650000000000000000000000000000000000000000600082015250565b7f544f4747453a20424f52524f5745525f464f5242494444454e00000000000000600082015250565b7f544f4747453a204e4f545f415050524f5645445f56414c554500000000000000600082015250565b7f696e73756666696369656e742046756e64730000000000000000000000000000600082015250565b7f544f4747453a2070726f68696269746564000000000000000000000000000000600082015250565b7f544f4747453a204c4f414e5f4e4f545f41434345505445440000000000000000600082015250565b7f544f4747453a204f55545f4f465f54494d455f57494e444f5700000000000000600082015250565b7f544f4747453a204e4f5f56414c55450000000000000000000000000000000000600082015250565b50565b7f544f4747453a204c4f414e5f414c52454144595f414343455054454400000000600082015250565b7f616c7265616479206465706f7369746564000000000000000000000000000000600082015250565b7f544f4747453a205452414e534645525f4641494c454400000000000000000000600082015250565b620028668162002470565b81146200287257600080fd5b50565b620028808162002484565b81146200288c57600080fd5b50565b6200289a81620024b0565b8114620028a657600080fd5b5056fe60806040523480156200001157600080fd5b5060405162002b4438038062002b44833981810160405281019062000037919062000197565b818181600090805190602001906200005192919062000075565b5080600190805190602001906200006a92919062000075565b50505050506200037a565b82805462000083906200029f565b90600052602060002090601f016020900481019282620000a75760008555620000f3565b82601f10620000c257805160ff1916838001178555620000f3565b82800160010185558215620000f3579182015b82811115620000f2578251825591602001919060010190620000d5565b5b50905062000102919062000106565b5090565b5b808211156200012157600081600090555060010162000107565b5090565b60006200013c620001368462000233565b6200020a565b9050828152602081018484840111156200015557600080fd5b6200016284828562000269565b509392505050565b600082601f8301126200017c57600080fd5b81516200018e84826020860162000125565b91505092915050565b60008060408385031215620001ab57600080fd5b600083015167ffffffffffffffff811115620001c657600080fd5b620001d4858286016200016a565b925050602083015167ffffffffffffffff811115620001f257600080fd5b62000200858286016200016a565b9150509250929050565b60006200021662000229565b9050620002248282620002d5565b919050565b6000604051905090565b600067ffffffffffffffff8211156200025157620002506200033a565b5b6200025c8262000369565b9050602081019050919050565b60005b83811015620002895780820151818401526020810190506200026c565b8381111562000299576000848401525b50505050565b60006002820490506001821680620002b857607f821691505b60208210811415620002cf57620002ce6200030b565b5b50919050565b620002e08262000369565b810181811067ffffffffffffffff821117156200030257620003016200033a565b5b80604052505050565b7f4e487b7100000000000000000000000000000000000000000000000000000000600052602260045260246000fd5b7f4e487b7100000000000000000000000000000000000000000000000000000000600052604160045260246000fd5b6000601f19601f8301169050919050565b6127ba806200038a6000396000f3fe608060405234801561001057600080fd5b50600436106100ea5760003560e01c80636352211e1161008c578063a22cb46511610066578063a22cb4651461025b578063b88d4fde14610277578063c87b56dd14610293578063e985e9c5146102c3576100ea565b80636352211e146101dd57806370a082311461020d57806395d89b411461023d576100ea565b8063095ea7b3116100c8578063095ea7b31461016d57806323b872dd1461018957806340c10f19146101a557806342842e0e146101c1576100ea565b806301ffc9a7146100ef57806306fdde031461011f578063081812fc1461013d575b600080fd5b61010960048036038101906101049190611950565b6102f3565b6040516101169190611d33565b60405180910390f35b6101276103d5565b6040516101349190611d4e565b60405180910390f35b610157600480360381019061015291906119a2565b610467565b6040516101649190611ccc565b60405180910390f35b61018760048036038101906101829190611914565b6104ec565b005b6101a3600480360381019061019e919061180e565b610604565b005b6101bf60048036038101906101ba9190611914565b610664565b005b6101db60048036038101906101d6919061180e565b610702565b005b6101f760048036038101906101f291906119a2565b610722565b6040516102049190611ccc565b60405180910390f35b610227600480360381019061022291906117a9565b6107d4565b6040516102349190611f50565b60405180910390f35b61024561088c565b6040516102529190611d4e565b60405180910390f35b610275600480360381019061027091906118d8565b61091e565b005b610291600480360381019061028c919061185d565b610934565b005b6102ad60048036038101906102a891906119a2565b610996565b6040516102ba9190611d4e565b60405180910390f35b6102dd60048036038101906102d891906117d2565b610a3d565b6040516102ea9190611d33565b60405180910390f35b60007f80ac58cd000000000000000000000000000000000000000000000000000000007bffffffffffffffffffffffffffffffffffffffffffffffffffffffff1916827bffffffffffffffffffffffffffffffffffffffffffffffffffffffff191614806103be57507f5b5e139f000000000000000000000000000000000000000000000000000000007bffffffffffffffffffffffffffffffffffffffffffffffffffffffff1916827bffffffffffffffffffffffffffffffffffffffffffffffffffffffff1916145b806103ce57506103cd82610ad1565b5b9050919050565b6060600080546103e490612175565b80601f016020809104026020016040519081016040528092919081815260200182805461041090612175565b801561045d5780601f106104325761010080835404028352916020019161045d565b820191906000526020600020905b81548152906001019060200180831161044057829003601f168201915b5050505050905090565b600061047282610b3b565b6104b1576040517f08c379a00000000000000000000000000000000000000000000000000000000081526004016104a890611eb0565b60405180910390fd5b6004600083815260200190815260200160002060009054906101000a900473ffffffffffffffffffffffffffffffffffffffff169050919050565b60006104f782610722565b90508073ffffffffffffffffffffffffffffffffffffffff168373ffffffffffffffffffffffffffffffffffffffff161415610568576040517f08c379a000000000000000000000000000000000000000000000000000000000815260040161055f90611ef0565b60405180910390fd5b8073ffffffffffffffffffffffffffffffffffffffff16610587610ba7565b73ffffffffffffffffffffffffffffffffffffffff1614806105b657506105b5816105b0610ba7565b610a3d565b5b6105f5576040517f08c379a00000000000000000000000000000000000000000000000000000000081526004016105ec90611e30565b60405180910390fd5b6105ff8383610baf565b505050565b61061561060f610ba7565b82610c68565b610654576040517f08c379a000000000000000000000000000000000000000000000000000000000815260040161064b90611f30565b60405180910390fd5b61065f838383610d46565b505050565b600660009054906101000a900473ffffffffffffffffffffffffffffffffffffffff1673ffffffffffffffffffffffffffffffffffffffff163373ffffffffffffffffffffffffffffffffffffffff16146106f4576040517f08c379a00000000000000000000000000000000000000000000000000000000081526004016106eb90611f10565b60405180910390fd5b6106fe8282610fad565b5050565b61071d83838360405180602001604052806000815250610934565b505050565b6000806002600084815260200190815260200160002060009054906101000a900473ffffffffffffffffffffffffffffffffffffffff169050600073ffffffffffffffffffffffffffffffffffffffff168173ffffffffffffffffffffffffffffffffffffffff1614156107cb576040517f08c379a00000000000000000000000000000000000000000000000000000000081526004016107c290611e70565b60405180910390fd5b80915050919050565b60008073ffffffffffffffffffffffffffffffffffffffff168273ffffffffffffffffffffffffffffffffffffffff161415610845576040517f08c379a000000000000000000000000000000000000000000000000000000000815260040161083c90611e50565b60405180910390fd5b600360008373ffffffffffffffffffffffffffffffffffffffff1673ffffffffffffffffffffffffffffffffffffffff168152602001908152602001600020549050919050565b60606001805461089b90612175565b80601f01602080910402602001604051908101604052809291908181526020018280546108c790612175565b80156109145780601f106108e957610100808354040283529160200191610914565b820191906000526020600020905b8154815290600101906020018083116108f757829003601f168201915b5050505050905090565b610930610929610ba7565b8383611187565b5050565b61094561093f610ba7565b83610c68565b610984576040517f08c379a000000000000000000000000000000000000000000000000000000000815260040161097b90611f30565b60405180910390fd5b610990848484846112f4565b50505050565b60606109a182610b3b565b6109e0576040517f08c379a00000000000000000000000000000000000000000000000000000000081526004016109d790611ed0565b60405180910390fd5b60006109ea611350565b90506000815111610a0a5760405180602001604052806000815250610a35565b80610a1484611367565b604051602001610a25929190611ca8565b6040516020818303038152906040525b915050919050565b6000600560008473ffffffffffffffffffffffffffffffffffffffff1673ffffffffffffffffffffffffffffffffffffffff16815260200190815260200160002060008373ffffffffffffffffffffffffffffffffffffffff1673ffffffffffffffffffffffffffffffffffffffff16815260200190815260200160002060009054906101000a900460ff16905092915050565b60007f01ffc9a7000000000000000000000000000000000000000000000000000000007bffffffffffffffffffffffffffffffffffffffffffffffffffffffff1916827bffffffffffffffffffffffffffffffffffffffffffffffffffffffff1916149050919050565b60008073ffffffffffffffffffffffffffffffffffffffff166002600084815260200190815260200160002060009054906101000a900473ffffffffffffffffffffffffffffffffffffffff1673ffffffffffffffffffffffffffffffffffffffff1614159050919050565b600033905090565b816004600083815260200190815260200160002060006101000a81548173ffffffffffffffffffffffffffffffffffffffff021916908373ffffffffffffffffffffffffffffffffffffffff160217905550808273ffffffffffffffffffffffffffffffffffffffff16610c2283610722565b73ffffffffffffffffffffffffffffffffffffffff167f8c5be1e5ebec7d5bd14f71427d1e84f3dd0314c0f7b2291e5b200ac8c7c3b92560405160405180910390a45050565b6000610c7382610b3b565b610cb2576040517f08c379a0000000000000000000000000000000000000000000000000000000008152600401610ca990611e10565b60405180910390fd5b6000610cbd83610722565b90508073ffffffffffffffffffffffffffffffffffffffff168473ffffffffffffffffffffffffffffffffffffffff161480610d2c57508373ffffffffffffffffffffffffffffffffffffffff16610d1484610467565b73ffffffffffffffffffffffffffffffffffffffff16145b80610d3d5750610d3c8185610a3d565b5b91505092915050565b8273ffffffffffffffffffffffffffffffffffffffff16610d6682610722565b73ffffffffffffffffffffffffffffffffffffffff1614610dbc576040517f08c379a0000000000000000000000000000000000000000000000000000000008152600401610db390611d90565b60405180910390fd5b600073ffffffffffffffffffffffffffffffffffffffff168273ffffffffffffffffffffffffffffffffffffffff161415610e2c576040517f08c379a0000000000000000000000000000000000000000000000000000000008152600401610e2390611dd0565b60405180910390fd5b610e37838383611514565b610e42600082610baf565b6001600360008573ffffffffffffffffffffffffffffffffffffffff1673ffffffffffffffffffffffffffffffffffffffff1681526020019081526020016000206000828254610e92919061208b565b925050819055506001600360008473ffffffffffffffffffffffffffffffffffffffff1673ffffffffffffffffffffffffffffffffffffffff1681526020019081526020016000206000828254610ee99190612004565b92505081905550816002600083815260200190815260200160002060006101000a81548173ffffffffffffffffffffffffffffffffffffffff021916908373ffffffffffffffffffffffffffffffffffffffff160217905550808273ffffffffffffffffffffffffffffffffffffffff168473ffffffffffffffffffffffffffffffffffffffff167fddf252ad1be2c89b69c2b068fc378daa952ba7f163c4a11628f55a4df523b3ef60405160405180910390a4610fa8838383611519565b505050565b600073ffffffffffffffffffffffffffffffffffffffff168273ffffffffffffffffffffffffffffffffffffffff16141561101d576040517f08c379a000000000000000000000000000000000000000000000000000000000815260040161101490611e90565b60405180910390fd5b61102681610b3b565b15611066576040517f08c379a000000000000000000000000000000000000000000000000000000000815260040161105d90611db0565b60405180910390fd5b61107260008383611514565b6001600360008473ffffffffffffffffffffffffffffffffffffffff1673ffffffffffffffffffffffffffffffffffffffff16815260200190815260200160002060008282546110c29190612004565b92505081905550816002600083815260200190815260200160002060006101000a81548173ffffffffffffffffffffffffffffffffffffffff021916908373ffffffffffffffffffffffffffffffffffffffff160217905550808273ffffffffffffffffffffffffffffffffffffffff16600073ffffffffffffffffffffffffffffffffffffffff167fddf252ad1be2c89b69c2b068fc378daa952ba7f163c4a11628f55a4df523b3ef60405160405180910390a461118360008383611519565b5050565b8173ffffffffffffffffffffffffffffffffffffffff168373ffffffffffffffffffffffffffffffffffffffff1614156111f6576040517f08c379a00000000000000000000000000000000000000000000000000000000081526004016111ed90611df0565b60405180910390fd5b80600560008573ffffffffffffffffffffffffffffffffffffffff1673ffffffffffffffffffffffffffffffffffffffff16815260200190815260200160002060008473ffffffffffffffffffffffffffffffffffffffff1673ffffffffffffffffffffffffffffffffffffffff16815260200190815260200160002060006101000a81548160ff0219169083151502179055508173ffffffffffffffffffffffffffffffffffffffff168373ffffffffffffffffffffffffffffffffffffffff167f17307eab39ab6107e8899845ad3d59bd9653f200f220920489ca2b5937696c31836040516112e79190611d33565b60405180910390a3505050565b6112ff848484610d46565b61130b8484848461151e565b61134a576040517f08c379a000000000000000000000000000000000000000000000000000000000815260040161134190611d70565b60405180910390fd5b50505050565b606060405180602001604052806000815250905090565b606060008214156113af576040518060400160405280600181526020017f3000000000000000000000000000000000000000000000000000000000000000815250905061150f565b600082905060005b600082146113e15780806113ca906121d8565b915050600a826113da919061205a565b91506113b7565b60008167ffffffffffffffff811115611423577f4e487b7100000000000000000000000000000000000000000000000000000000600052604160045260246000fd5b6040519080825280601f01601f1916602001820160405280156114555781602001600182028036833780820191505090505b5090505b600085146115085760018261146e919061208b565b9150600a8561147d9190612221565b60306114899190612004565b60f81b8183815181106114c5577f4e487b7100000000000000000000000000000000000000000000000000000000600052603260045260246000fd5b60200101907effffffffffffffffffffffffffffffffffffffffffffffffffffffffffffff1916908160001a905350600a85611501919061205a565b9450611459565b8093505050505b919050565b505050565b505050565b600061153f8473ffffffffffffffffffffffffffffffffffffffff166116b5565b156116a8578373ffffffffffffffffffffffffffffffffffffffff1663150b7a02611568610ba7565b8786866040518563ffffffff1660e01b815260040161158a9493929190611ce7565b602060405180830381600087803b1580156115a457600080fd5b505af19250505080156115d557506040513d601f19601f820116820180604052508101906115d29190611979565b60015b611658573d8060008114611605576040519150601f19603f3d011682016040523d82523d6000602084013e61160a565b606091505b50600081511415611650576040517f08c379a000000000000000000000000000000000000000000000000000000000815260040161164790611d70565b60405180910390fd5b805181602001fd5b63150b7a0260e01b7bffffffffffffffffffffffffffffffffffffffffffffffffffffffff1916817bffffffffffffffffffffffffffffffffffffffffffffffffffffffff1916149150506116ad565b600190505b949350505050565b6000808273ffffffffffffffffffffffffffffffffffffffff163b119050919050565b60006116eb6116e684611f90565b611f6b565b90508281526020810184848401111561170357600080fd5b61170e848285612133565b509392505050565b60008135905061172581612728565b92915050565b60008135905061173a8161273f565b92915050565b60008135905061174f81612756565b92915050565b60008151905061176481612756565b92915050565b600082601f83011261177b57600080fd5b813561178b8482602086016116d8565b91505092915050565b6000813590506117a38161276d565b92915050565b6000602082840312156117bb57600080fd5b60006117c984828501611716565b91505092915050565b600080604083850312156117e557600080fd5b60006117f385828601611716565b925050602061180485828601611716565b9150509250929050565b60008060006060848603121561182357600080fd5b600061183186828701611716565b935050602061184286828701611716565b925050604061185386828701611794565b9150509250925092565b6000806000806080858703121561187357600080fd5b600061188187828801611716565b945050602061189287828801611716565b93505060406118a387828801611794565b925050606085013567ffffffffffffffff8111156118c057600080fd5b6118cc8782880161176a565b91505092959194509250565b600080604083850312156118eb57600080fd5b60006118f985828601611716565b925050602061190a8582860161172b565b9150509250929050565b6000806040838503121561192757600080fd5b600061193585828601611716565b925050602061194685828601611794565b9150509250929050565b60006020828403121561196257600080fd5b600061197084828501611740565b91505092915050565b60006020828403121561198b57600080fd5b600061199984828501611755565b91505092915050565b6000602082840312156119b457600080fd5b60006119c284828501611794565b91505092915050565b6119d4816120bf565b82525050565b6119e3816120d1565b82525050565b60006119f482611fc1565b6119fe8185611fd7565b9350611a0e818560208601612142565b611a178161230e565b840191505092915050565b6000611a2d82611fcc565b611a378185611fe8565b9350611a47818560208601612142565b611a508161230e565b840191505092915050565b6000611a6682611fcc565b611a708185611ff9565b9350611a80818560208601612142565b80840191505092915050565b6000611a99603283611fe8565b9150611aa48261231f565b604082019050919050565b6000611abc602583611fe8565b9150611ac78261236e565b604082019050919050565b6000611adf601c83611fe8565b9150611aea826123bd565b602082019050919050565b6000611b02602483611fe8565b9150611b0d826123e6565b604082019050919050565b6000611b25601983611fe8565b9150611b3082612435565b602082019050919050565b6000611b48602c83611fe8565b9150611b538261245e565b604082019050919050565b6000611b6b603883611fe8565b9150611b76826124ad565b604082019050919050565b6000611b8e602a83611fe8565b9150611b99826124fc565b604082019050919050565b6000611bb1602983611fe8565b9150611bbc8261254b565b604082019050919050565b6000611bd4602083611fe8565b9150611bdf8261259a565b602082019050919050565b6000611bf7602c83611fe8565b9150611c02826125c3565b604082019050919050565b6000611c1a602f83611fe8565b9150611c2582612612565b604082019050919050565b6000611c3d602183611fe8565b9150611c4882612661565b604082019050919050565b6000611c60601683611fe8565b9150611c6b826126b0565b602082019050919050565b6000611c83603183611fe8565b9150611c8e826126d9565b604082019050919050565b611ca281612129565b82525050565b6000611cb48285611a5b565b9150611cc08284611a5b565b91508190509392505050565b6000602082019050611ce160008301846119cb565b92915050565b6000608082019050611cfc60008301876119cb565b611d0960208301866119cb565b611d166040830185611c99565b8181036060830152611d2881846119e9565b905095945050505050565b6000602082019050611d4860008301846119da565b92915050565b60006020820190508181036000830152611d688184611a22565b905092915050565b60006020820190508181036000830152611d8981611a8c565b9050919050565b60006020820190508181036000830152611da981611aaf565b9050919050565b60006020820190508181036000830152611dc981611ad2565b9050919050565b60006020820190508181036000830152611de981611af5565b9050919050565b60006020820190508181036000830152611e0981611b18565b9050919050565b60006020820190508181036000830152611e2981611b3b565b9050919050565b60006020820190508181036000830152611e4981611b5e565b9050919050565b60006020820190508181036000830152611e6981611b81565b9050919050565b60006020820190508181036000830152611e8981611ba4565b9050919050565b60006020820190508181036000830152611ea981611bc7565b9050919050565b60006020820190508181036000830152611ec981611bea565b9050919050565b60006020820190508181036000830152611ee981611c0d565b9050919050565b60006020820190508181036000830152611f0981611c30565b9050919050565b60006020820190508181036000830152611f2981611c53565b9050919050565b60006020820190508181036000830152611f4981611c76565b9050919050565b6000602082019050611f656000830184611c99565b92915050565b6000611f75611f86565b9050611f8182826121a7565b919050565b6000604051905090565b600067ffffffffffffffff821115611fab57611faa6122df565b5b611fb48261230e565b9050602081019050919050565b600081519050919050565b600081519050919050565b600082825260208201905092915050565b600082825260208201905092915050565b600081905092915050565b600061200f82612129565b915061201a83612129565b9250827fffffffffffffffffffffffffffffffffffffffffffffffffffffffffffffffff0382111561204f5761204e612252565b5b828201905092915050565b600061206582612129565b915061207083612129565b9250826120805761207f612281565b5b828204905092915050565b600061209682612129565b91506120a183612129565b9250828210156120b4576120b3612252565b5b828203905092915050565b60006120ca82612109565b9050919050565b60008115159050919050565b60007fffffffff0000000000000000000000000000000000000000000000000000000082169050919050565b600073ffffffffffffffffffffffffffffffffffffffff82169050919050565b6000819050919050565b82818337600083830152505050565b60005b83811015612160578082015181840152602081019050612145565b8381111561216f576000848401525b50505050565b6000600282049050600182168061218d57607f821691505b602082108114156121a1576121a06122b0565b5b50919050565b6121b08261230e565b810181811067ffffffffffffffff821117156121cf576121ce6122df565b5b80604052505050565b60006121e382612129565b91507fffffffffffffffffffffffffffffffffffffffffffffffffffffffffffffffff82141561221657612215612252565b5b600182019050919050565b600061222c82612129565b915061223783612129565b92508261224757612246612281565b5b828206905092915050565b7f4e487b7100000000000000000000000000000000000000000000000000000000600052601160045260246000fd5b7f4e487b7100000000000000000000000000000000000000000000000000000000600052601260045260246000fd5b7f4e487b7100000000000000000000000000000000000000000000000000000000600052602260045260246000fd5b7f4e487b7100000000000000000000000000000000000000000000000000000000600052604160045260246000fd5b6000601f19601f8301169050919050565b7f4552433732313a207472616e7366657220746f206e6f6e20455243373231526560008201527f63656976657220696d706c656d656e7465720000000000000000000000000000602082015250565b7f4552433732313a207472616e736665722066726f6d20696e636f72726563742060008201527f6f776e6572000000000000000000000000000000000000000000000000000000602082015250565b7f4552433732313a20746f6b656e20616c7265616479206d696e74656400000000600082015250565b7f4552433732313a207472616e7366657220746f20746865207a65726f2061646460008201527f7265737300000000000000000000000000000000000000000000000000000000602082015250565b7f4552433732313a20617070726f766520746f2063616c6c657200000000000000600082015250565b7f4552433732313a206f70657261746f7220717565727920666f72206e6f6e657860008201527f697374656e7420746f6b656e0000000000000000000000000000000000000000602082015250565b7f4552433732313a20617070726f76652063616c6c6572206973206e6f74206f7760008201527f6e6572206e6f7220617070726f76656420666f7220616c6c0000000000000000602082015250565b7f4552433732313a2062616c616e636520717565727920666f7220746865207a6560008201527f726f206164647265737300000000000000000000000000000000000000000000602082015250565b7f4552433732313a206f776e657220717565727920666f72206e6f6e657869737460008201527f656e7420746f6b656e0000000000000000000000000000000000000000000000602082015250565b7f4552433732313a206d696e7420746f20746865207a65726f2061646472657373600082015250565b7f4552433732313a20617070726f76656420717565727920666f72206e6f6e657860008201527f697374656e7420746f6b656e0000000000000000000000000000000000000000602082015250565b7f4552433732314d657461646174613a2055524920717565727920666f72206e6f60008201527f6e6578697374656e7420746f6b656e0000000000000000000000000000000000602082015250565b7f4552433732313a20617070726f76616c20746f2063757272656e74206f776e6560008201527f7200000000000000000000000000000000000000000000000000000000000000602082015250565b7f544f4747453a3a6d696e743a204e4f545f41444d494e00000000000000000000600082015250565b7f4552433732313a207472616e736665722063616c6c6572206973206e6f74206f60008201527f776e6572206e6f7220617070726f766564000000000000000000000000000000602082015250565b612731816120bf565b811461273c57600080fd5b50565b612748816120d1565b811461275357600080fd5b50565b61275f816120dd565b811461276a57600080fd5b50565b61277681612129565b811461278157600080fd5b5056fea26469706673582212209318e9fdeb70d97557f9b5be2f63de49164d9d33932264c630facd0a46380f5e64736f6c63430008040033a2646970667358221220a164a5f904c986b7d4f5eafdd1b2ce4699473c816e79c93b7020f0e64a7b970d64736f6c63430008040033",
  "linkReferences": {},
  "deployedLinkReferences": {}
}