{
  "_format": "hh-sol-artifact-1",
  "contractName": "togLoanStorage",
  "sourceName": "contracts/togLoan.sol",
  "abi": [
    {
      "anonymous": false,
      "inputs": [
        {
          "indexed": false,
          "internalType": "uint256",
          "name": "",
          "type": "uint256"
        }
      ],
      "name": "ArrayVal",
      "type": "event"
    },
    {
      "anonymous": false,
      "inputs": [
        {
          "indexed": false,
          "internalType": "address",
          "name": "",
          "type": "address"
        },
        {
          "indexed": false,
          "internalType": "uint256",
          "name": "",
          "type": "uint256"
        }
      ],
      "name": "Deposit",
      "type": "event"
    },
    {
      "anonymous": false,
      "inputs": [
        {
          "indexed": false,
          "internalType": "address",
          "name": "",
          "type": "address"
        },
        {
          "indexed": false,
          "internalType": "uint256",
          "name": "",
          "type": "uint256"
        }
      ],
      "name": "Withdraw",
      "type": "event"
    },
    {
      "anonymous": false,
      "inputs": [
        {
          "indexed": false,
          "internalType": "uint256",
          "name": "",
          "type": "uint256"
        }
      ],
      "name": "balance",
      "type": "event"
    },
    {
      "anonymous": false,
      "inputs": [
        {
          "indexed": false,
          "internalType": "uint256",
          "name": "_amount",
          "type": "uint256"
        },
        {
          "indexed": false,
          "internalType": "address",
          "name": "borrower",
          "type": "address"
        }
      ],
      "name": "borrowerTokenDeposited",
      "type": "event"
    },
    {
      "anonymous": false,
      "inputs": [
        {
          "indexed": false,
          "internalType": "uint256",
          "name": "_value",
          "type": "uint256"
        }
      ],
      "name": "ethWithdrawBorrower",
      "type": "event"
    },
    {
      "anonymous": false,
      "inputs": [
        {
          "indexed": false,
          "internalType": "uint256",
          "name": "_timeLimit",
          "type": "uint256"
        }
      ],
      "name": "supplyVaultNowOpen",
      "type": "event"
    },
    {
      "inputs": [],
      "name": "LPnfts",
      "outputs": [
        {
          "internalType": "contract ggETH",
          "name": "",
          "type": "address"
        }
      ],
      "stateMutability": "view",
      "type": "function"
    },
    {
      "inputs": [],
      "name": "admin",
      "outputs": [
        {
          "internalType": "address",
          "name": "",
          "type": "address"
        }
      ],
      "stateMutability": "view",
      "type": "function"
    },
    {
      "inputs": [],
      "name": "borrower",
      "outputs": [
        {
          "internalType": "address",
          "name": "",
          "type": "address"
        }
      ],
      "stateMutability": "view",
      "type": "function"
    },
    {
      "inputs": [],
      "name": "borrowerToken",
      "outputs": [
        {
          "internalType": "address",
          "name": "",
          "type": "address"
        }
      ],
      "stateMutability": "view",
      "type": "function"
    },
    {
      "inputs": [],
      "name": "currentIndex",
      "outputs": [
        {
          "internalType": "uint256",
          "name": "",
          "type": "uint256"
        }
      ],
      "stateMutability": "view",
      "type": "function"
    },
    {
      "inputs": [
        {
          "internalType": "address",
          "name": "",
          "type": "address"
        }
      ],
      "name": "deposits",
      "outputs": [
        {
          "internalType": "uint256",
          "name": "",
          "type": "uint256"
        }
      ],
      "stateMutability": "view",
      "type": "function"
    },
    {
      "inputs": [],
      "name": "endBorrowerAcceptWindow",
      "outputs": [
        {
          "internalType": "uint256",
          "name": "",
          "type": "uint256"
        }
      ],
      "stateMutability": "view",
      "type": "function"
    },
    {
      "inputs": [],
      "name": "endOfRaise",
      "outputs": [
        {
          "internalType": "uint256",
          "name": "",
          "type": "uint256"
        }
      ],
      "stateMutability": "view",
      "type": "function"
    },
    {
      "inputs": [],
      "name": "ethSupplied",
      "outputs": [
        {
          "internalType": "uint256",
          "name": "",
          "type": "uint256"
        }
      ],
      "stateMutability": "view",
      "type": "function"
    },
    {
      "inputs": [
        {
          "internalType": "address",
          "name": "",
          "type": "address"
        }
      ],
      "name": "indexing",
      "outputs": [
        {
          "internalType": "uint256",
          "name": "",
          "type": "uint256"
        }
      ],
      "stateMutability": "view",
      "type": "function"
    },
    {
      "inputs": [],
      "name": "loanAccepted",
      "outputs": [
        {
          "internalType": "bool",
          "name": "",
          "type": "bool"
        }
      ],
      "stateMutability": "view",
      "type": "function"
    },
    {
      "inputs": [
        {
          "internalType": "address",
          "name": "",
          "type": "address"
        }
      ],
      "name": "nftClaimed",
      "outputs": [
        {
          "internalType": "bool",
          "name": "",
          "type": "bool"
        }
      ],
      "stateMutability": "view",
      "type": "function"
    },
    {
      "inputs": [],
      "name": "nftCounter",
      "outputs": [
        {
          "internalType": "uint256",
          "name": "",
          "type": "uint256"
        }
      ],
      "stateMutability": "view",
      "type": "function"
    },
    {
      "inputs": [],
      "name": "numberBorrowerTokens",
      "outputs": [
        {
          "internalType": "uint256",
          "name": "",
          "type": "uint256"
        }
      ],
      "stateMutability": "view",
      "type": "function"
    },
    {
      "inputs": [],
      "name": "poolSupplyMax",
      "outputs": [
        {
          "internalType": "uint256",
          "name": "",
          "type": "uint256"
        }
      ],
      "stateMutability": "view",
      "type": "function"
    },
    {
      "inputs": [],
      "name": "reserveFactorMantissa",
      "outputs": [
        {
          "internalType": "uint256",
          "name": "",
          "type": "uint256"
        }
      ],
      "stateMutability": "view",
      "type": "function"
    },
    {
      "inputs": [],
      "name": "startOfRaise",
      "outputs": [
        {
          "internalType": "uint256",
          "name": "",
          "type": "uint256"
        }
      ],
      "stateMutability": "view",
      "type": "function"
    },
    {
      "inputs": [],
      "name": "valorDAORecibido",
      "outputs": [
        {
          "internalType": "uint256",
          "name": "",
          "type": "uint256"
        }
      ],
      "stateMutability": "view",
      "type": "function"
    },
    {
      "inputs": [],
      "name": "valorRetiroLPs",
      "outputs": [
        {
          "internalType": "uint256",
          "name": "",
          "type": "uint256"
        }
      ],
      "stateMutability": "view",
      "type": "function"
    }
  ],
  "bytecode": "0x608060405260006009556000600a556000600b5534801561001f57600080fd5b506106708061002f6000396000f3fe608060405234801561001057600080fd5b50600436106101215760003560e01c80636c2d7994116100ad578063d12e55aa11610071578063d12e55aa146102dc578063e574609e1461030c578063ef819fae1461032a578063f851a44014610348578063fc7e286d1461036657610121565b80636c2d79941461024657806371126bec1461026457806376888e27146102825780637df1f1b9146102a0578063b8c36b11146102be57610121565b806353d9ba8e116100f457806353d9ba8e146101b057806359c25c25146101ce5780635c994106146101ec57806365bacb471461020a57806368c9b0f31461022857610121565b8063173b990414610126578063239729451461014457806326987b60146101625780634e14f8ea14610180575b600080fd5b61012e610396565b60405161013b919061059c565b60405180910390f35b61014c61039c565b6040516101599190610566565b60405180910390f35b61016a6103ad565b604051610177919061059c565b60405180910390f35b61019a600480360381019061019591906104e6565b6103b3565b6040516101a79190610566565b60405180910390f35b6101b86103d3565b6040516101c5919061059c565b60405180910390f35b6101d66103d9565b6040516101e3919061059c565b60405180910390f35b6101f46103df565b604051610201919061059c565b60405180910390f35b6102126103e5565b60405161021f919061059c565b60405180910390f35b6102306103eb565b60405161023d919061059c565b60405180910390f35b61024e6103f1565b60405161025b919061054b565b60405180910390f35b61026c610417565b6040516102799190610581565b60405180910390f35b61028a61043d565b604051610297919061059c565b60405180910390f35b6102a8610443565b6040516102b5919061054b565b60405180910390f35b6102c6610469565b6040516102d3919061059c565b60405180910390f35b6102f660048036038101906102f191906104e6565b61046f565b604051610303919061059c565b60405180910390f35b610314610487565b604051610321919061059c565b60405180910390f35b61033261048d565b60405161033f919061059c565b60405180910390f35b610350610493565b60405161035d919061054b565b60405180910390f35b610380600480360381019061037b91906104e6565b6104b9565b60405161038d919061059c565b60405180910390f35b600c5481565b60008054906101000a900460ff1681565b600b5481565b60106020528060005260406000206000915054906101000a900460ff1681565b60065481565b60095481565b60035481565b60085481565b600a5481565b600160009054906101000a900473ffffffffffffffffffffffffffffffffffffffff1681565b601260009054906101000a900473ffffffffffffffffffffffffffffffffffffffff1681565b60075481565b600260009054906101000a900473ffffffffffffffffffffffffffffffffffffffff1681565b60045481565b600e6020528060005260406000206000915090505481565b600d5481565b60055481565b600060019054906101000a900473ffffffffffffffffffffffffffffffffffffffff1681565b600f6020528060005260406000206000915090505481565b6000813590506104e081610623565b92915050565b6000602082840312156104f857600080fd5b6000610506848285016104d1565b91505092915050565b610518816105b7565b82525050565b610527816105c9565b82525050565b610536816105ff565b82525050565b610545816105f5565b82525050565b6000602082019050610560600083018461050f565b92915050565b600060208201905061057b600083018461051e565b92915050565b6000602082019050610596600083018461052d565b92915050565b60006020820190506105b1600083018461053c565b92915050565b60006105c2826105d5565b9050919050565b60008115159050919050565b600073ffffffffffffffffffffffffffffffffffffffff82169050919050565b6000819050919050565b600061060a82610611565b9050919050565b600061061c826105d5565b9050919050565b61062c816105b7565b811461063757600080fd5b5056fea26469706673582212200ae9d4011b95bb619c91b43f8b129182c7596dada10a7262afd1ddbbac3e0ae164736f6c63430008040033",
  "linkReferences": {},
  "deployedLinkReferences": {}
}