{
  "_format": "hh-sol-artifact-1",
  "contractName": "togLoan",
  "sourceName": "contracts/togLoan.sol",
  "abi": [
    {
      "inputs": [
        {
          "internalType": "uint256",
          "name": "_poolSupplyMax",
          "type": "uint256"
        },
        {
          "internalType": "uint256",
          "name": "_numberBorrowerTokens",
          "type": "uint256"
        },
        {
          "internalType": "uint256",
          "name": "_reserveFactorMantissa",
          "type": "uint256"
        },
        {
          "internalType": "address",
          "name": "_borrower",
          "type": "address"
        },
        {
          "internalType": "address",
          "name": "_borrowerToken",
          "type": "address"
        },
        {
          "internalType": "address",
          "name": "_admin",
          "type": "address"
        }
      ],
      "stateMutability": "nonpayable",
      "type": "constructor"
    },
    {
      "anonymous": false,
      "inputs": [
        {
          "indexed": false,
          "internalType": "uint256",
          "name": "",
          "type": "uint256"
        }
      ],
      "name": "ArrayVal",
      "type": "event"
    },
    {
      "anonymous": false,
      "inputs": [
        {
          "indexed": false,
          "internalType": "address",
          "name": "",
          "type": "address"
        },
        {
          "indexed": false,
          "internalType": "uint256",
          "name": "",
          "type": "uint256"
        }
      ],
      "name": "Deposit",
      "type": "event"
    },
    {
      "anonymous": false,
      "inputs": [
        {
          "indexed": false,
          "internalType": "address",
          "name": "",
          "type": "address"
        },
        {
          "indexed": false,
          "internalType": "uint256",
          "name": "",
          "type": "uint256"
        }
      ],
      "name": "Withdraw",
      "type": "event"
    },
    {
      "anonymous": false,
      "inputs": [
        {
          "indexed": false,
          "internalType": "uint256",
          "name": "",
          "type": "uint256"
        }
      ],
      "name": "balance",
      "type": "event"
    },
    {
      "anonymous": false,
      "inputs": [
        {
          "indexed": false,
          "internalType": "uint256",
          "name": "_amount",
          "type": "uint256"
        },
        {
          "indexed": false,
          "internalType": "address",
          "name": "borrower",
          "type": "address"
        }
      ],
      "name": "borrowerTokenDeposited",
      "type": "event"
    },
    {
      "anonymous": false,
      "inputs": [
        {
          "indexed": false,
          "internalType": "uint256",
          "name": "_value",
          "type": "uint256"
        }
      ],
      "name": "ethWithdrawBorrower",
      "type": "event"
    },
    {
      "anonymous": false,
      "inputs": [
        {
          "indexed": false,
          "internalType": "uint256",
          "name": "_timeLimit",
          "type": "uint256"
        }
      ],
      "name": "supplyVaultNowOpen",
      "type": "event"
    },
    {
      "inputs": [],
      "name": "LP_deposit",
      "outputs": [],
      "stateMutability": "payable",
      "type": "function"
    },
    {
      "inputs": [],
      "name": "LPnfts",
      "outputs": [
        {
          "internalType": "contract ERC721",
          "name": "",
          "type": "address"
        }
      ],
      "stateMutability": "view",
      "type": "function"
    },
    {
      "inputs": [
        {
          "internalType": "string",
          "name": "_name",
          "type": "string"
        },
        {
          "internalType": "string",
          "name": "_symbol",
          "type": "string"
        }
      ],
      "name": "acceptLoanWithdrawLoan",
      "outputs": [],
      "stateMutability": "nonpayable",
      "type": "function"
    },
    {
      "inputs": [],
      "name": "admin",
      "outputs": [
        {
          "internalType": "address",
          "name": "",
          "type": "address"
        }
      ],
      "stateMutability": "view",
      "type": "function"
    },
    {
      "inputs": [],
      "name": "borrower",
      "outputs": [
        {
          "internalType": "address",
          "name": "",
          "type": "address"
        }
      ],
      "stateMutability": "view",
      "type": "function"
    },
    {
      "inputs": [],
      "name": "borrowerToken",
      "outputs": [
        {
          "internalType": "address",
          "name": "",
          "type": "address"
        }
      ],
      "stateMutability": "view",
      "type": "function"
    },
    {
      "inputs": [],
      "name": "currentIndex",
      "outputs": [
        {
          "internalType": "uint256",
          "name": "",
          "type": "uint256"
        }
      ],
      "stateMutability": "view",
      "type": "function"
    },
    {
      "inputs": [
        {
          "internalType": "uint256",
          "name": "_value",
          "type": "uint256"
        }
      ],
      "name": "depositTokens",
      "outputs": [],
      "stateMutability": "nonpayable",
      "type": "function"
    },
    {
      "inputs": [
        {
          "internalType": "address",
          "name": "",
          "type": "address"
        }
      ],
      "name": "deposits",
      "outputs": [
        {
          "internalType": "uint256",
          "name": "",
          "type": "uint256"
        }
      ],
      "stateMutability": "view",
      "type": "function"
    },
    {
      "inputs": [],
      "name": "endBorrowerAcceptWindow",
      "outputs": [
        {
          "internalType": "uint256",
          "name": "",
          "type": "uint256"
        }
      ],
      "stateMutability": "view",
      "type": "function"
    },
    {
      "inputs": [],
      "name": "endOfRaise",
      "outputs": [
        {
          "internalType": "uint256",
          "name": "",
          "type": "uint256"
        }
      ],
      "stateMutability": "view",
      "type": "function"
    },
    {
      "inputs": [],
      "name": "ethSupplied",
      "outputs": [
        {
          "internalType": "uint256",
          "name": "",
          "type": "uint256"
        }
      ],
      "stateMutability": "view",
      "type": "function"
    },
    {
      "inputs": [
        {
          "internalType": "address",
          "name": "",
          "type": "address"
        }
      ],
      "name": "indexing",
      "outputs": [
        {
          "internalType": "uint256",
          "name": "",
          "type": "uint256"
        }
      ],
      "stateMutability": "view",
      "type": "function"
    },
    {
      "inputs": [],
      "name": "loanAccepted",
      "outputs": [
        {
          "internalType": "bool",
          "name": "",
          "type": "bool"
        }
      ],
      "stateMutability": "view",
      "type": "function"
    },
    {
      "inputs": [],
      "name": "makeLoanPayment",
      "outputs": [],
      "stateMutability": "nonpayable",
      "type": "function"
    },
    {
      "inputs": [],
      "name": "numberBorrowerTokens",
      "outputs": [
        {
          "internalType": "uint256",
          "name": "",
          "type": "uint256"
        }
      ],
      "stateMutability": "view",
      "type": "function"
    },
    {
      "inputs": [],
      "name": "poolSupplyMax",
      "outputs": [
        {
          "internalType": "uint256",
          "name": "",
          "type": "uint256"
        }
      ],
      "stateMutability": "view",
      "type": "function"
    },
    {
      "inputs": [],
      "name": "reserveFactorMantissa",
      "outputs": [
        {
          "internalType": "uint256",
          "name": "",
          "type": "uint256"
        }
      ],
      "stateMutability": "view",
      "type": "function"
    },
    {
      "inputs": [],
      "name": "startOfRaise",
      "outputs": [
        {
          "internalType": "uint256",
          "name": "",
          "type": "uint256"
        }
      ],
      "stateMutability": "view",
      "type": "function"
    },
    {
      "inputs": [],
      "name": "valorDAORecibido",
      "outputs": [
        {
          "internalType": "uint256",
          "name": "",
          "type": "uint256"
        }
      ],
      "stateMutability": "view",
      "type": "function"
    },
    {
      "inputs": [],
      "name": "valorRetiroLPs",
      "outputs": [
        {
          "internalType": "uint256",
          "name": "",
          "type": "uint256"
        }
      ],
      "stateMutability": "view",
      "type": "function"
    },
    {
      "inputs": [],
      "name": "withdraw",
      "outputs": [],
      "stateMutability": "nonpayable",
      "type": "function"
    },
    {
      "inputs": [],
      "name": "withdrawFailedDeposits",
      "outputs": [],
      "stateMutability": "nonpayable",
      "type": "function"
    },
    {
      "inputs": [],
      "name": "withdrawLPtoken",
      "outputs": [],
      "stateMutability": "nonpayable",
      "type": "function"
    },
    {
      "inputs": [],
      "name": "withdrawTokensBorrower",
      "outputs": [],
      "stateMutability": "nonpayable",
      "type": "function"
    }
  ],
  "bytecode": "0x60a0604052600060085560006009556000600a553480156200002057600080fd5b50604051620056e8380380620056e883398181016040528101906200004691906200014e565b856003819055508460028190555082600160006101000a81548173ffffffffffffffffffffffffffffffffffffffff021916908373ffffffffffffffffffffffffffffffffffffffff16021790555081600060016101000a81548173ffffffffffffffffffffffffffffffffffffffff021916908373ffffffffffffffffffffffffffffffffffffffff16021790555083600b819055508073ffffffffffffffffffffffffffffffffffffffff1660808173ffffffffffffffffffffffffffffffffffffffff1660601b8152505050505050505062000256565b600081519050620001318162000222565b92915050565b60008151905062000148816200023c565b92915050565b60008060008060008060c087890312156200016857600080fd5b60006200017889828a0162000137565b96505060206200018b89828a0162000137565b95505060406200019e89828a0162000137565b9450506060620001b189828a0162000120565b9350506080620001c489828a0162000120565b92505060a0620001d789828a0162000120565b9150509295509295509295565b6000620001f182620001f8565b9050919050565b600073ffffffffffffffffffffffffffffffffffffffff82169050919050565b6000819050919050565b6200022d81620001e4565b81146200023957600080fd5b50565b620002478162000218565b81146200025357600080fd5b50565b60805160601c615473620002756000396000611ad301526154736000f3fe608060405260043610620001885760003560e01c80636c2d799411620000e5578063a202b4d71162000097578063dd49756e116200006d578063dd49756e14620004fd578063ef819fae146200052b578063f851a440146200055b578063fc7e286d146200058b5762000188565b8063a202b4d7146200046f578063b8c36b111462000489578063d12e55aa14620004b95762000188565b80636c2d7994146200036757806371126bec146200039757806376888e2714620003c75780637df1f1b914620003f75780639d410bf314620004275780639eb708bc14620004555762000188565b80633ccfd60b116200013f5780633ccfd60b146200025d57806353d9ba8e146200027757806359c25c2514620002a75780635c99410614620002d757806365bacb47146200030757806368c9b0f314620003375762000188565b80630f55508d146200018d57806315978dbf1462000199578063173b990414620001b35780632397294514620001e357806326987b6014620002135780632972e9241462000243575b600080fd5b62000197620005cf565b005b348015620001a657600080fd5b50620001b162000990565b005b348015620001c057600080fd5b50620001cb62000992565b604051620001da919062002305565b60405180910390f35b348015620001f057600080fd5b50620001fb62000998565b6040516200020a9190620020b4565b60405180910390f35b3480156200022057600080fd5b506200022b620009a9565b6040516200023a919062002305565b60405180910390f35b3480156200025057600080fd5b506200025b620009af565b005b3480156200026a57600080fd5b506200027562000ad5565b005b3480156200028457600080fd5b506200028f62001269565b6040516200029e919062002305565b60405180910390f35b348015620002b457600080fd5b50620002bf6200126f565b604051620002ce919062002305565b60405180910390f35b348015620002e457600080fd5b50620002ef62001275565b604051620002fe919062002305565b60405180910390f35b3480156200031457600080fd5b506200031f6200127b565b6040516200032e919062002305565b60405180910390f35b3480156200034457600080fd5b506200034f62001281565b6040516200035e919062002305565b60405180910390f35b3480156200037457600080fd5b506200037f62001287565b6040516200038e91906200202d565b60405180910390f35b348015620003a457600080fd5b50620003af620012ad565b604051620003be9190620020d1565b60405180910390f35b348015620003d457600080fd5b50620003df620012d3565b604051620003ee919062002305565b60405180910390f35b3480156200040457600080fd5b506200040f620012d9565b6040516200041e91906200202d565b60405180910390f35b3480156200043457600080fd5b506200045360048036038101906200044d919062001ca9565b620012ff565b005b3480156200046257600080fd5b506200046d62001559565b005b3480156200047c57600080fd5b506200048762001770565b005b3480156200049657600080fd5b50620004a162001805565b604051620004b0919062002305565b60405180910390f35b348015620004c657600080fd5b50620004e56004803603810190620004df919062001c51565b6200180b565b604051620004f4919062002305565b60405180910390f35b3480156200050a57600080fd5b5062000529600480360381019062000523919062001d1c565b62001823565b005b3480156200053857600080fd5b506200054362001acb565b60405162000552919062002305565b60405180910390f35b3480156200056857600080fd5b506200057362001ad1565b6040516200058291906200202d565b60405180910390f35b3480156200059857600080fd5b50620005b76004803603810190620005b1919062001c51565b62001af5565b604051620005c6919062002305565b60405180910390f35b600160009054906101000a900473ffffffffffffffffffffffffffffffffffffffff1673ffffffffffffffffffffffffffffffffffffffff163373ffffffffffffffffffffffffffffffffffffffff16141562000663576040517f08c379a00000000000000000000000000000000000000000000000000000000081526004016200065a90620021b1565b60405180910390fd5b6000429050600554811180156200067b575060045481105b620006bd576040517f08c379a0000000000000000000000000000000000000000000000000000000008152600401620006b4906200225b565b60405180910390fd5b6000600d60003373ffffffffffffffffffffffffffffffffffffffff1673ffffffffffffffffffffffffffffffffffffffff168152602001908152602001600020541462000742576040517f08c379a00000000000000000000000000000000000000000000000000000000081526004016200073990620022c1565b60405180910390fd5b34600d60003373ffffffffffffffffffffffffffffffffffffffff1673ffffffffffffffffffffffffffffffffffffffff1681526020019081526020016000206000828254620007939190620023d5565b925050819055506000600e80549050146200084757600034600e600a6000815480929190620007c2906200255a565b9190505581548110620007fe577f4e487b7100000000000000000000000000000000000000000000000000000000600052603260045260246000fd5b9060005260206000200154620008159190620023d5565b9050600e8190806001815401808255809150506001900390600052602060002001600090919091909150555062000871565b600e3490806001815401808255809150506001900390600052602060002001600090919091909150555b7fa711d19e52eb41c47e2aa371b9b08c4d54c89b3aa2b93c050dc48f59d6d490a3600e600a5481548110620008cf577f4e487b7100000000000000000000000000000000000000000000000000000000600052603260045260246000fd5b9060005260206000200154604051620008e9919062002305565b60405180910390a1600a54600c60003373ffffffffffffffffffffffffffffffffffffffff1673ffffffffffffffffffffffffffffffffffffffff168152602001908152602001600020819055507fe1fffcc4923d04b559f4d29a8bfc6cda04eb5b0d3c460751c2402c5c5cc9109c33346040516200096a92919062002087565b60405180910390a13460076000828254620009869190620023d5565b9250508190555050565b565b600b5481565b60008054906101000a900460ff1681565b600a5481565b60008054906101000a900460ff161562000a00576040517f08c379a0000000000000000000000000000000000000000000000000000000008152600401620009f79062002239565b60405180910390fd5b6000600d60003373ffffffffffffffffffffffffffffffffffffffff1673ffffffffffffffffffffffffffffffffffffffff16815260200190815260200160002054141562000a86576040517f08c379a000000000000000000000000000000000000000000000000000000000815260040162000a7d906200227d565b60405180910390fd5b6000429050600654811162000ad2576040517f08c379a000000000000000000000000000000000000000000000000000000000815260040162000ac9906200225b565b60405180910390fd5b50565b6000600c60003373ffffffffffffffffffffffffffffffffffffffff1673ffffffffffffffffffffffffffffffffffffffff1681526020019081526020016000205490506000808214801562000b81575060095460085462000b38919062002432565b600e838154811062000b73577f4e487b7100000000000000000000000000000000000000000000000000000000600052603260045260246000fd5b906000526020600020015411155b905060006001905060008084111562000cf25760095460085462000ba6919062002432565b600e60018662000bb7919062002432565b8154811062000bef577f4e487b7100000000000000000000000000000000000000000000000000000000600052603260045260246000fd5b9060005260206000200154109150600d60003373ffffffffffffffffffffffffffffffffffffffff1673ffffffffffffffffffffffffffffffffffffffff16815260200190815260200160002054600e60018662000c4e919062002432565b8154811062000c86577f4e487b7100000000000000000000000000000000000000000000000000000000600052603260045260246000fd5b9060005260206000200154600e868154811062000ccc577f4e487b7100000000000000000000000000000000000000000000000000000000600052603260045260246000fd5b906000526020600020015462000ce3919062002432565b62000cef919062002432565b90505b818062000cfc5750825b62000d3e576040517f08c379a000000000000000000000000000000000000000000000000000000000815260040162000d35906200218f565b60405180910390fd5b6000600d60003373ffffffffffffffffffffffffffffffffffffffff1673ffffffffffffffffffffffffffffffffffffffff168152602001908152602001600020541162000dc3576040517f08c379a000000000000000000000000000000000000000000000000000000000815260040162000dba90620021f5565b60405180910390fd5b60008085111562000fcb5760085482600e60018862000de3919062002432565b8154811062000e1b577f4e487b7100000000000000000000000000000000000000000000000000000000600052603260045260246000fd5b906000526020600020015462000e329190620023d5565b1062000e75576040517f08c379a000000000000000000000000000000000000000000000000000000000815260040162000e6c9062002129565b60405180910390fd5b600d60003373ffffffffffffffffffffffffffffffffffffffff1673ffffffffffffffffffffffffffffffffffffffff16815260200190815260200160002054600e60018762000ec6919062002432565b8154811062000efe577f4e487b7100000000000000000000000000000000000000000000000000000000600052603260045260246000fd5b906000526020600020015460085462000f18919062002432565b1062000f6457600d60003373ffffffffffffffffffffffffffffffffffffffff1673ffffffffffffffffffffffffffffffffffffffff1681526020019081526020016000205462000fc8565b600e60018662000f75919062002432565b8154811062000fad577f4e487b7100000000000000000000000000000000000000000000000000000000600052603260045260246000fd5b906000526020600020015460085462000fc7919062002432565b5b90505b600080861462000fdc57816200101d565b600d60003373ffffffffffffffffffffffffffffffffffffffff1673ffffffffffffffffffffffffffffffffffffffff168152602001908152602001600020545b90506008548111156200102f57600080fd5b80600d60003373ffffffffffffffffffffffffffffffffffffffff1673ffffffffffffffffffffffffffffffffffffffff168152602001908152602001600020600082825462001080919062002432565b925050819055507f884edad9ce6fa2440d8a54cc123490eb96d2768479d49ff9c7366125a94243643382604051620010ba92919062002087565b60405180910390a17f884edad9ce6fa2440d8a54cc123490eb96d2768479d49ff9c7366125a942436433600d60003373ffffffffffffffffffffffffffffffffffffffff1673ffffffffffffffffffffffffffffffffffffffff168152602001908152602001600020546040516200113492919062002087565b60405180910390a16000861115620011d5577f884edad9ce6fa2440d8a54cc123490eb96d2768479d49ff9c7366125a942436433600e60018962001179919062002432565b81548110620011b1577f4e487b7100000000000000000000000000000000000000000000000000000000600052603260045260246000fd5b9060005260206000200154604051620011cc92919062002087565b60405180910390a15b600081111562001228573373ffffffffffffffffffffffffffffffffffffffff166108fc829081150290604051600060405180830381858888f1935050505015801562001226573d6000803e3d6000fd5b505b7f47bb89f0fc234008e53c79bc3e3dab90e27502d1380a4b3cc35038d57fa03d2a4760405162001259919062002305565b60405180910390a1505050505050565b60055481565b60085481565b60025481565b60075481565b60095481565b600060019054906101000a900473ffffffffffffffffffffffffffffffffffffffff1681565b600f60009054906101000a900473ffffffffffffffffffffffffffffffffffffffff1681565b60065481565b600160009054906101000a900473ffffffffffffffffffffffffffffffffffffffff1681565b600160009054906101000a900473ffffffffffffffffffffffffffffffffffffffff1673ffffffffffffffffffffffffffffffffffffffff163373ffffffffffffffffffffffffffffffffffffffff161462001392576040517f08c379a0000000000000000000000000000000000000000000000000000000008152600401620013899062002217565b60405180910390fd5b600042905060045481118015620013aa575060065481105b620013ec576040517f08c379a0000000000000000000000000000000000000000000000000000000008152600401620013e3906200225b565b60405180910390fd5b60008054906101000a900460ff16156200143d576040517f08c379a000000000000000000000000000000000000000000000000000000000815260040162001434906200229f565b60405180910390fd5b60016000806101000a81548160ff02191690831515021790555060003373ffffffffffffffffffffffffffffffffffffffff16600754604051620014819062002016565b60006040518083038185875af1925050503d8060008114620014c0576040519150601f19603f3d011682016040523d82523d6000602084013e620014c5565b606091505b50509050806200150c576040517f08c379a000000000000000000000000000000000000000000000000000000000815260040162001503906200214b565b60405180910390fd5b7f7c046c1724795ce324ef285dee325dda79387db88db5a1f7714988b13a9b5ecc6007546040516200153f919062002305565b60405180910390a162001553848462001b0d565b50505050565b60008054906101000a900460ff1615620015aa576040517f08c379a0000000000000000000000000000000000000000000000000000000008152600401620015a1906200216d565b60405180910390fd5b6000600d60003373ffffffffffffffffffffffffffffffffffffffff1673ffffffffffffffffffffffffffffffffffffffff16815260200190815260200160002054141562001630576040517f08c379a000000000000000000000000000000000000000000000000000000000815260040162001627906200227d565b60405180910390fd5b6000600d60003373ffffffffffffffffffffffffffffffffffffffff1673ffffffffffffffffffffffffffffffffffffffff1681526020019081526020016000205490506000600d60003373ffffffffffffffffffffffffffffffffffffffff1673ffffffffffffffffffffffffffffffffffffffff1681526020019081526020016000208190555060003373ffffffffffffffffffffffffffffffffffffffff1682604051620016e19062002016565b60006040518083038185875af1925050503d806000811462001720576040519150601f19603f3d011682016040523d82523d6000602084013e62001725565b606091505b50509050806200176c576040517f08c379a000000000000000000000000000000000000000000000000000000000815260040162001763906200214b565b60405180910390fd5b5050565b600160009054906101000a900473ffffffffffffffffffffffffffffffffffffffff1673ffffffffffffffffffffffffffffffffffffffff163373ffffffffffffffffffffffffffffffffffffffff161462001803576040517f08c379a0000000000000000000000000000000000000000000000000000000008152600401620017fa9062002217565b60405180910390fd5b565b60035481565b600c6020528060005260406000206000915090505481565b600160009054906101000a900473ffffffffffffffffffffffffffffffffffffffff1673ffffffffffffffffffffffffffffffffffffffff163373ffffffffffffffffffffffffffffffffffffffff1614620018b6576040517f08c379a0000000000000000000000000000000000000000000000000000000008152600401620018ad9062002217565b60405180910390fd5b6002548114620018fd576040517f08c379a0000000000000000000000000000000000000000000000000000000008152600401620018f490620021d3565b60405180910390fd5b60008060019054906101000a900473ffffffffffffffffffffffffffffffffffffffff1673ffffffffffffffffffffffffffffffffffffffff166323b872dd600160009054906101000a900473ffffffffffffffffffffffffffffffffffffffff1630856040518463ffffffff1660e01b815260040162001981939291906200204a565b602060405180830381600087803b1580156200199c57600080fd5b505af1158015620019b1573d6000803e3d6000fd5b505050506040513d601f19601f82011682018060405250810190620019d7919062001c7d565b90508062001a1c576040517f08c379a000000000000000000000000000000000000000000000000000000000815260040162001a1390620022e3565b60405180910390fd5b7f19893fa936723849d863fc33b53718b15653d646e3b6c4d69baacfa0bc644c40823060405162001a4f92919062002322565b60405180910390a142600581905550601860055462001a6f9190620023d5565b600481905550600a60045462001a869190620023d5565b6006819055507f427ab1ad6fb8a2e156dc3f43eabced6adaf640ce9def138f05e1d5210b8e1ea960045460405162001abf919062002305565b60405180910390a15050565b60045481565b7f000000000000000000000000000000000000000000000000000000000000000081565b600d6020528060005260406000206000915090505481565b818160405162001b1d9062001b8c565b62001b2a929190620020ee565b604051809103906000f08015801562001b47573d6000803e3d6000fd5b50600f60006101000a81548173ffffffffffffffffffffffffffffffffffffffff021916908373ffffffffffffffffffffffffffffffffffffffff1602179055505050565b612b9780620028a783390190565b600062001bb162001bab8462002378565b6200234f565b90508281526020810184848401111562001bca57600080fd5b62001bd7848285620024df565b509392505050565b60008135905062001bf08162002858565b92915050565b60008151905062001c078162002872565b92915050565b600082601f83011262001c1f57600080fd5b813562001c3184826020860162001b9a565b91505092915050565b60008135905062001c4b816200288c565b92915050565b60006020828403121562001c6457600080fd5b600062001c748482850162001bdf565b91505092915050565b60006020828403121562001c9057600080fd5b600062001ca08482850162001bf6565b91505092915050565b6000806040838503121562001cbd57600080fd5b600083013567ffffffffffffffff81111562001cd857600080fd5b62001ce68582860162001c0d565b925050602083013567ffffffffffffffff81111562001d0457600080fd5b62001d128582860162001c0d565b9150509250929050565b60006020828403121562001d2f57600080fd5b600062001d3f8482850162001c3a565b91505092915050565b62001d53816200246d565b82525050565b62001d648162002481565b82525050565b62001d7581620024b7565b82525050565b600062001d8882620023ae565b62001d948185620023c4565b935062001da6818560208601620024ee565b62001db18162002606565b840191505092915050565b600062001dcb601383620023c4565b915062001dd88262002617565b602082019050919050565b600062001df2601283620023c4565b915062001dff8262002640565b602082019050919050565b600062001e19601483620023c4565b915062001e268262002669565b602082019050919050565b600062001e40600c83620023c4565b915062001e4d8262002692565b602082019050919050565b600062001e67601983620023c4565b915062001e7482620026bb565b602082019050919050565b600062001e8e601983620023c4565b915062001e9b82620026e4565b602082019050919050565b600062001eb5601283620023c4565b915062001ec2826200270d565b602082019050919050565b600062001edc601183620023c4565b915062001ee98262002736565b602082019050919050565b600062001f03601883620023c4565b915062001f10826200275f565b602082019050919050565b600062001f2a601983620023c4565b915062001f378262002788565b602082019050919050565b600062001f51600f83620023c4565b915062001f5e82620027b1565b602082019050919050565b600062001f78600083620023b9565b915062001f8582620027da565b600082019050919050565b600062001f9f601c83620023c4565b915062001fac82620027dd565b602082019050919050565b600062001fc6601183620023c4565b915062001fd38262002806565b602082019050919050565b600062001fed601683620023c4565b915062001ffa826200282f565b602082019050919050565b6200201081620024ad565b82525050565b6000620020238262001f69565b9150819050919050565b600060208201905062002044600083018462001d48565b92915050565b600060608201905062002061600083018662001d48565b62002070602083018562001d48565b6200207f604083018462002005565b949350505050565b60006040820190506200209e600083018562001d48565b620020ad602083018462002005565b9392505050565b6000602082019050620020cb600083018462001d59565b92915050565b6000602082019050620020e8600083018462001d6a565b92915050565b600060408201905081810360008301526200210a818562001d7b565b9050818103602083015262002120818462001d7b565b90509392505050565b60006020820190508181036000830152620021448162001dbc565b9050919050565b60006020820190508181036000830152620021668162001de3565b9050919050565b60006020820190508181036000830152620021888162001e0a565b9050919050565b60006020820190508181036000830152620021aa8162001e31565b9050919050565b60006020820190508181036000830152620021cc8162001e58565b9050919050565b60006020820190508181036000830152620021ee8162001e7f565b9050919050565b60006020820190508181036000830152620022108162001ea6565b9050919050565b60006020820190508181036000830152620022328162001ecd565b9050919050565b60006020820190508181036000830152620022548162001ef4565b9050919050565b60006020820190508181036000830152620022768162001f1b565b9050919050565b60006020820190508181036000830152620022988162001f42565b9050919050565b60006020820190508181036000830152620022ba8162001f90565b9050919050565b60006020820190508181036000830152620022dc8162001fb7565b9050919050565b60006020820190508181036000830152620022fe8162001fde565b9050919050565b60006020820190506200231c600083018462002005565b92915050565b600060408201905062002339600083018562002005565b62002348602083018462001d48565b9392505050565b60006200235b6200236e565b905062002369828262002524565b919050565b6000604051905090565b600067ffffffffffffffff821115620023965762002395620025d7565b5b620023a18262002606565b9050602081019050919050565b600081519050919050565b600081905092915050565b600082825260208201905092915050565b6000620023e282620024ad565b9150620023ef83620024ad565b9250827fffffffffffffffffffffffffffffffffffffffffffffffffffffffffffffffff03821115620024275762002426620025a8565b5b828201905092915050565b60006200243f82620024ad565b91506200244c83620024ad565b925082821015620024625762002461620025a8565b5b828203905092915050565b60006200247a826200248d565b9050919050565b60008115159050919050565b600073ffffffffffffffffffffffffffffffffffffffff82169050919050565b6000819050919050565b6000620024c482620024cb565b9050919050565b6000620024d8826200248d565b9050919050565b82818337600083830152505050565b60005b838110156200250e578082015181840152602081019050620024f1565b838111156200251e576000848401525b50505050565b6200252f8262002606565b810181811067ffffffffffffffff82111715620025515762002550620025d7565b5b80604052505050565b60006200256782620024ad565b91507fffffffffffffffffffffffffffffffffffffffffffffffffffffffffffffffff8214156200259d576200259c620025a8565b5b600182019050919050565b7f4e487b7100000000000000000000000000000000000000000000000000000000600052601160045260246000fd5b7f4e487b7100000000000000000000000000000000000000000000000000000000600052604160045260246000fd5b6000601f19601f8301169050919050565b7f63616e2774207769746864726177206d6f726500000000000000000000000000600082015250565b7f544f4747453a204641494c45445f53454e440000000000000000000000000000600082015250565b7f544f4747453a204c4f414e5f4143434550544544000000000000000000000000600082015250565b7f6e6f7420656c696769626c650000000000000000000000000000000000000000600082015250565b7f544f4747453a20424f52524f5745525f464f5242494444454e00000000000000600082015250565b7f544f4747453a204e4f545f415050524f5645445f56414c554500000000000000600082015250565b7f696e73756666696369656e742046756e64730000000000000000000000000000600082015250565b7f544f4747453a2070726f68696269746564000000000000000000000000000000600082015250565b7f544f4747453a204c4f414e5f4e4f545f41434345505445440000000000000000600082015250565b7f544f4747453a204f55545f4f465f54494d455f57494e444f5700000000000000600082015250565b7f544f4747453a204e4f5f56414c55450000000000000000000000000000000000600082015250565b50565b7f544f4747453a204c4f414e5f414c52454144595f414343455054454400000000600082015250565b7f616c7265616479206465706f7369746564000000000000000000000000000000600082015250565b7f544f4747453a205452414e534645525f4641494c454400000000000000000000600082015250565b62002863816200246d565b81146200286f57600080fd5b50565b6200287d8162002481565b81146200288957600080fd5b50565b6200289781620024ad565b8114620028a357600080fd5b5056fe60806040523480156200001157600080fd5b5060405162002b9738038062002b97833981810160405281019062000037919062000197565b818181600090805190602001906200005192919062000075565b5080600190805190602001906200006a92919062000075565b50505050506200037a565b82805462000083906200029f565b90600052602060002090601f016020900481019282620000a75760008555620000f3565b82601f10620000c257805160ff1916838001178555620000f3565b82800160010185558215620000f3579182015b82811115620000f2578251825591602001919060010190620000d5565b5b50905062000102919062000106565b5090565b5b808211156200012157600081600090555060010162000107565b5090565b60006200013c620001368462000233565b6200020a565b9050828152602081018484840111156200015557600080fd5b6200016284828562000269565b509392505050565b600082601f8301126200017c57600080fd5b81516200018e84826020860162000125565b91505092915050565b60008060408385031215620001ab57600080fd5b600083015167ffffffffffffffff811115620001c657600080fd5b620001d4858286016200016a565b925050602083015167ffffffffffffffff811115620001f257600080fd5b62000200858286016200016a565b9150509250929050565b60006200021662000229565b9050620002248282620002d5565b919050565b6000604051905090565b600067ffffffffffffffff8211156200025157620002506200033a565b5b6200025c8262000369565b9050602081019050919050565b60005b83811015620002895780820151818401526020810190506200026c565b8381111562000299576000848401525b50505050565b60006002820490506001821680620002b857607f821691505b60208210811415620002cf57620002ce6200030b565b5b50919050565b620002e08262000369565b810181811067ffffffffffffffff821117156200030257620003016200033a565b5b80604052505050565b7f4e487b7100000000000000000000000000000000000000000000000000000000600052602260045260246000fd5b7f4e487b7100000000000000000000000000000000000000000000000000000000600052604160045260246000fd5b6000601f19601f8301169050919050565b61280d806200038a6000396000f3fe608060405234801561001057600080fd5b50600436106100f55760003560e01c80636352211e11610097578063b88d4fde11610066578063b88d4fde14610282578063c87b56dd1461029e578063e985e9c5146102ce578063fc7e286d146102fe576100f5565b80636352211e146101e857806370a082311461021857806395d89b4114610248578063a22cb46514610266576100f5565b8063095ea7b3116100d3578063095ea7b31461017857806323b872dd1461019457806340c10f19146101b057806342842e0e146101cc576100f5565b806301ffc9a7146100fa57806306fdde031461012a578063081812fc14610148575b600080fd5b610114600480360381019061010f91906119a3565b61032e565b6040516101219190611d86565b60405180910390f35b610132610410565b60405161013f9190611da1565b60405180910390f35b610162600480360381019061015d91906119f5565b6104a2565b60405161016f9190611d1f565b60405180910390f35b610192600480360381019061018d9190611967565b610527565b005b6101ae60048036038101906101a99190611861565b61063f565b005b6101ca60048036038101906101c59190611967565b61069f565b005b6101e660048036038101906101e19190611861565b61073d565b005b61020260048036038101906101fd91906119f5565b61075d565b60405161020f9190611d1f565b60405180910390f35b610232600480360381019061022d91906117fc565b61080f565b60405161023f9190611fa3565b60405180910390f35b6102506108c7565b60405161025d9190611da1565b60405180910390f35b610280600480360381019061027b919061192b565b610959565b005b61029c600480360381019061029791906118b0565b61096f565b005b6102b860048036038101906102b391906119f5565b6109d1565b6040516102c59190611da1565b60405180910390f35b6102e860048036038101906102e39190611825565b610a78565b6040516102f59190611d86565b60405180910390f35b610318600480360381019061031391906117fc565b610b0c565b6040516103259190611fa3565b60405180910390f35b60007f80ac58cd000000000000000000000000000000000000000000000000000000007bffffffffffffffffffffffffffffffffffffffffffffffffffffffff1916827bffffffffffffffffffffffffffffffffffffffffffffffffffffffff191614806103f957507f5b5e139f000000000000000000000000000000000000000000000000000000007bffffffffffffffffffffffffffffffffffffffffffffffffffffffff1916827bffffffffffffffffffffffffffffffffffffffffffffffffffffffff1916145b80610409575061040882610b24565b5b9050919050565b60606000805461041f906121c8565b80601f016020809104026020016040519081016040528092919081815260200182805461044b906121c8565b80156104985780601f1061046d57610100808354040283529160200191610498565b820191906000526020600020905b81548152906001019060200180831161047b57829003601f168201915b5050505050905090565b60006104ad82610b8e565b6104ec576040517f08c379a00000000000000000000000000000000000000000000000000000000081526004016104e390611f03565b60405180910390fd5b6004600083815260200190815260200160002060009054906101000a900473ffffffffffffffffffffffffffffffffffffffff169050919050565b60006105328261075d565b90508073ffffffffffffffffffffffffffffffffffffffff168373ffffffffffffffffffffffffffffffffffffffff1614156105a3576040517f08c379a000000000000000000000000000000000000000000000000000000000815260040161059a90611f43565b60405180910390fd5b8073ffffffffffffffffffffffffffffffffffffffff166105c2610bfa565b73ffffffffffffffffffffffffffffffffffffffff1614806105f157506105f0816105eb610bfa565b610a78565b5b610630576040517f08c379a000000000000000000000000000000000000000000000000000000000815260040161062790611e83565b60405180910390fd5b61063a8383610c02565b505050565b61065061064a610bfa565b82610cbb565b61068f576040517f08c379a000000000000000000000000000000000000000000000000000000000815260040161068690611f83565b60405180910390fd5b61069a838383610d99565b505050565b600660009054906101000a900473ffffffffffffffffffffffffffffffffffffffff1673ffffffffffffffffffffffffffffffffffffffff163373ffffffffffffffffffffffffffffffffffffffff161461072f576040517f08c379a000000000000000000000000000000000000000000000000000000000815260040161072690611f63565b60405180910390fd5b6107398282611000565b5050565b6107588383836040518060200160405280600081525061096f565b505050565b6000806002600084815260200190815260200160002060009054906101000a900473ffffffffffffffffffffffffffffffffffffffff169050600073ffffffffffffffffffffffffffffffffffffffff168173ffffffffffffffffffffffffffffffffffffffff161415610806576040517f08c379a00000000000000000000000000000000000000000000000000000000081526004016107fd90611ec3565b60405180910390fd5b80915050919050565b60008073ffffffffffffffffffffffffffffffffffffffff168273ffffffffffffffffffffffffffffffffffffffff161415610880576040517f08c379a000000000000000000000000000000000000000000000000000000000815260040161087790611ea3565b60405180910390fd5b600360008373ffffffffffffffffffffffffffffffffffffffff1673ffffffffffffffffffffffffffffffffffffffff168152602001908152602001600020549050919050565b6060600180546108d6906121c8565b80601f0160208091040260200160405190810160405280929190818152602001828054610902906121c8565b801561094f5780601f106109245761010080835404028352916020019161094f565b820191906000526020600020905b81548152906001019060200180831161093257829003601f168201915b5050505050905090565b61096b610964610bfa565b83836111da565b5050565b61098061097a610bfa565b83610cbb565b6109bf576040517f08c379a00000000000000000000000000000000000000000000000000000000081526004016109b690611f83565b60405180910390fd5b6109cb84848484611347565b50505050565b60606109dc82610b8e565b610a1b576040517f08c379a0000000000000000000000000000000000000000000000000000000008152600401610a1290611f23565b60405180910390fd5b6000610a256113a3565b90506000815111610a455760405180602001604052806000815250610a70565b80610a4f846113ba565b604051602001610a60929190611cfb565b6040516020818303038152906040525b915050919050565b6000600560008473ffffffffffffffffffffffffffffffffffffffff1673ffffffffffffffffffffffffffffffffffffffff16815260200190815260200160002060008373ffffffffffffffffffffffffffffffffffffffff1673ffffffffffffffffffffffffffffffffffffffff16815260200190815260200160002060009054906101000a900460ff16905092915050565b60076020528060005260406000206000915090505481565b60007f01ffc9a7000000000000000000000000000000000000000000000000000000007bffffffffffffffffffffffffffffffffffffffffffffffffffffffff1916827bffffffffffffffffffffffffffffffffffffffffffffffffffffffff1916149050919050565b60008073ffffffffffffffffffffffffffffffffffffffff166002600084815260200190815260200160002060009054906101000a900473ffffffffffffffffffffffffffffffffffffffff1673ffffffffffffffffffffffffffffffffffffffff1614159050919050565b600033905090565b816004600083815260200190815260200160002060006101000a81548173ffffffffffffffffffffffffffffffffffffffff021916908373ffffffffffffffffffffffffffffffffffffffff160217905550808273ffffffffffffffffffffffffffffffffffffffff16610c758361075d565b73ffffffffffffffffffffffffffffffffffffffff167f8c5be1e5ebec7d5bd14f71427d1e84f3dd0314c0f7b2291e5b200ac8c7c3b92560405160405180910390a45050565b6000610cc682610b8e565b610d05576040517f08c379a0000000000000000000000000000000000000000000000000000000008152600401610cfc90611e63565b60405180910390fd5b6000610d108361075d565b90508073ffffffffffffffffffffffffffffffffffffffff168473ffffffffffffffffffffffffffffffffffffffff161480610d7f57508373ffffffffffffffffffffffffffffffffffffffff16610d67846104a2565b73ffffffffffffffffffffffffffffffffffffffff16145b80610d905750610d8f8185610a78565b5b91505092915050565b8273ffffffffffffffffffffffffffffffffffffffff16610db98261075d565b73ffffffffffffffffffffffffffffffffffffffff1614610e0f576040517f08c379a0000000000000000000000000000000000000000000000000000000008152600401610e0690611de3565b60405180910390fd5b600073ffffffffffffffffffffffffffffffffffffffff168273ffffffffffffffffffffffffffffffffffffffff161415610e7f576040517f08c379a0000000000000000000000000000000000000000000000000000000008152600401610e7690611e23565b60405180910390fd5b610e8a838383611567565b610e95600082610c02565b6001600360008573ffffffffffffffffffffffffffffffffffffffff1673ffffffffffffffffffffffffffffffffffffffff1681526020019081526020016000206000828254610ee591906120de565b925050819055506001600360008473ffffffffffffffffffffffffffffffffffffffff1673ffffffffffffffffffffffffffffffffffffffff1681526020019081526020016000206000828254610f3c9190612057565b92505081905550816002600083815260200190815260200160002060006101000a81548173ffffffffffffffffffffffffffffffffffffffff021916908373ffffffffffffffffffffffffffffffffffffffff160217905550808273ffffffffffffffffffffffffffffffffffffffff168473ffffffffffffffffffffffffffffffffffffffff167fddf252ad1be2c89b69c2b068fc378daa952ba7f163c4a11628f55a4df523b3ef60405160405180910390a4610ffb83838361156c565b505050565b600073ffffffffffffffffffffffffffffffffffffffff168273ffffffffffffffffffffffffffffffffffffffff161415611070576040517f08c379a000000000000000000000000000000000000000000000000000000000815260040161106790611ee3565b60405180910390fd5b61107981610b8e565b156110b9576040517f08c379a00000000000000000000000000000000000000000000000000000000081526004016110b090611e03565b60405180910390fd5b6110c560008383611567565b6001600360008473ffffffffffffffffffffffffffffffffffffffff1673ffffffffffffffffffffffffffffffffffffffff16815260200190815260200160002060008282546111159190612057565b92505081905550816002600083815260200190815260200160002060006101000a81548173ffffffffffffffffffffffffffffffffffffffff021916908373ffffffffffffffffffffffffffffffffffffffff160217905550808273ffffffffffffffffffffffffffffffffffffffff16600073ffffffffffffffffffffffffffffffffffffffff167fddf252ad1be2c89b69c2b068fc378daa952ba7f163c4a11628f55a4df523b3ef60405160405180910390a46111d66000838361156c565b5050565b8173ffffffffffffffffffffffffffffffffffffffff168373ffffffffffffffffffffffffffffffffffffffff161415611249576040517f08c379a000000000000000000000000000000000000000000000000000000000815260040161124090611e43565b60405180910390fd5b80600560008573ffffffffffffffffffffffffffffffffffffffff1673ffffffffffffffffffffffffffffffffffffffff16815260200190815260200160002060008473ffffffffffffffffffffffffffffffffffffffff1673ffffffffffffffffffffffffffffffffffffffff16815260200190815260200160002060006101000a81548160ff0219169083151502179055508173ffffffffffffffffffffffffffffffffffffffff168373ffffffffffffffffffffffffffffffffffffffff167f17307eab39ab6107e8899845ad3d59bd9653f200f220920489ca2b5937696c318360405161133a9190611d86565b60405180910390a3505050565b611352848484610d99565b61135e84848484611571565b61139d576040517f08c379a000000000000000000000000000000000000000000000000000000000815260040161139490611dc3565b60405180910390fd5b50505050565b606060405180602001604052806000815250905090565b60606000821415611402576040518060400160405280600181526020017f30000000000000000000000000000000000000000000000000000000000000008152509050611562565b600082905060005b6000821461143457808061141d9061222b565b915050600a8261142d91906120ad565b915061140a565b60008167ffffffffffffffff811115611476577f4e487b7100000000000000000000000000000000000000000000000000000000600052604160045260246000fd5b6040519080825280601f01601f1916602001820160405280156114a85781602001600182028036833780820191505090505b5090505b6000851461155b576001826114c191906120de565b9150600a856114d09190612274565b60306114dc9190612057565b60f81b818381518110611518577f4e487b7100000000000000000000000000000000000000000000000000000000600052603260045260246000fd5b60200101907effffffffffffffffffffffffffffffffffffffffffffffffffffffffffffff1916908160001a905350600a8561155491906120ad565b94506114ac565b8093505050505b919050565b505050565b505050565b60006115928473ffffffffffffffffffffffffffffffffffffffff16611708565b156116fb578373ffffffffffffffffffffffffffffffffffffffff1663150b7a026115bb610bfa565b8786866040518563ffffffff1660e01b81526004016115dd9493929190611d3a565b602060405180830381600087803b1580156115f757600080fd5b505af192505050801561162857506040513d601f19601f8201168201806040525081019061162591906119cc565b60015b6116ab573d8060008114611658576040519150601f19603f3d011682016040523d82523d6000602084013e61165d565b606091505b506000815114156116a3576040517f08c379a000000000000000000000000000000000000000000000000000000000815260040161169a90611dc3565b60405180910390fd5b805181602001fd5b63150b7a0260e01b7bffffffffffffffffffffffffffffffffffffffffffffffffffffffff1916817bffffffffffffffffffffffffffffffffffffffffffffffffffffffff191614915050611700565b600190505b949350505050565b6000808273ffffffffffffffffffffffffffffffffffffffff163b119050919050565b600061173e61173984611fe3565b611fbe565b90508281526020810184848401111561175657600080fd5b611761848285612186565b509392505050565b6000813590506117788161277b565b92915050565b60008135905061178d81612792565b92915050565b6000813590506117a2816127a9565b92915050565b6000815190506117b7816127a9565b92915050565b600082601f8301126117ce57600080fd5b81356117de84826020860161172b565b91505092915050565b6000813590506117f6816127c0565b92915050565b60006020828403121561180e57600080fd5b600061181c84828501611769565b91505092915050565b6000806040838503121561183857600080fd5b600061184685828601611769565b925050602061185785828601611769565b9150509250929050565b60008060006060848603121561187657600080fd5b600061188486828701611769565b935050602061189586828701611769565b92505060406118a6868287016117e7565b9150509250925092565b600080600080608085870312156118c657600080fd5b60006118d487828801611769565b94505060206118e587828801611769565b93505060406118f6878288016117e7565b925050606085013567ffffffffffffffff81111561191357600080fd5b61191f878288016117bd565b91505092959194509250565b6000806040838503121561193e57600080fd5b600061194c85828601611769565b925050602061195d8582860161177e565b9150509250929050565b6000806040838503121561197a57600080fd5b600061198885828601611769565b9250506020611999858286016117e7565b9150509250929050565b6000602082840312156119b557600080fd5b60006119c384828501611793565b91505092915050565b6000602082840312156119de57600080fd5b60006119ec848285016117a8565b91505092915050565b600060208284031215611a0757600080fd5b6000611a15848285016117e7565b91505092915050565b611a2781612112565b82525050565b611a3681612124565b82525050565b6000611a4782612014565b611a51818561202a565b9350611a61818560208601612195565b611a6a81612361565b840191505092915050565b6000611a808261201f565b611a8a818561203b565b9350611a9a818560208601612195565b611aa381612361565b840191505092915050565b6000611ab98261201f565b611ac3818561204c565b9350611ad3818560208601612195565b80840191505092915050565b6000611aec60328361203b565b9150611af782612372565b604082019050919050565b6000611b0f60258361203b565b9150611b1a826123c1565b604082019050919050565b6000611b32601c8361203b565b9150611b3d82612410565b602082019050919050565b6000611b5560248361203b565b9150611b6082612439565b604082019050919050565b6000611b7860198361203b565b9150611b8382612488565b602082019050919050565b6000611b9b602c8361203b565b9150611ba6826124b1565b604082019050919050565b6000611bbe60388361203b565b9150611bc982612500565b604082019050919050565b6000611be1602a8361203b565b9150611bec8261254f565b604082019050919050565b6000611c0460298361203b565b9150611c0f8261259e565b604082019050919050565b6000611c2760208361203b565b9150611c32826125ed565b602082019050919050565b6000611c4a602c8361203b565b9150611c5582612616565b604082019050919050565b6000611c6d602f8361203b565b9150611c7882612665565b604082019050919050565b6000611c9060218361203b565b9150611c9b826126b4565b604082019050919050565b6000611cb360168361203b565b9150611cbe82612703565b602082019050919050565b6000611cd660318361203b565b9150611ce18261272c565b604082019050919050565b611cf58161217c565b82525050565b6000611d078285611aae565b9150611d138284611aae565b91508190509392505050565b6000602082019050611d346000830184611a1e565b92915050565b6000608082019050611d4f6000830187611a1e565b611d5c6020830186611a1e565b611d696040830185611cec565b8181036060830152611d7b8184611a3c565b905095945050505050565b6000602082019050611d9b6000830184611a2d565b92915050565b60006020820190508181036000830152611dbb8184611a75565b905092915050565b60006020820190508181036000830152611ddc81611adf565b9050919050565b60006020820190508181036000830152611dfc81611b02565b9050919050565b60006020820190508181036000830152611e1c81611b25565b9050919050565b60006020820190508181036000830152611e3c81611b48565b9050919050565b60006020820190508181036000830152611e5c81611b6b565b9050919050565b60006020820190508181036000830152611e7c81611b8e565b9050919050565b60006020820190508181036000830152611e9c81611bb1565b9050919050565b60006020820190508181036000830152611ebc81611bd4565b9050919050565b60006020820190508181036000830152611edc81611bf7565b9050919050565b60006020820190508181036000830152611efc81611c1a565b9050919050565b60006020820190508181036000830152611f1c81611c3d565b9050919050565b60006020820190508181036000830152611f3c81611c60565b9050919050565b60006020820190508181036000830152611f5c81611c83565b9050919050565b60006020820190508181036000830152611f7c81611ca6565b9050919050565b60006020820190508181036000830152611f9c81611cc9565b9050919050565b6000602082019050611fb86000830184611cec565b92915050565b6000611fc8611fd9565b9050611fd482826121fa565b919050565b6000604051905090565b600067ffffffffffffffff821115611ffe57611ffd612332565b5b61200782612361565b9050602081019050919050565b600081519050919050565b600081519050919050565b600082825260208201905092915050565b600082825260208201905092915050565b600081905092915050565b60006120628261217c565b915061206d8361217c565b9250827fffffffffffffffffffffffffffffffffffffffffffffffffffffffffffffffff038211156120a2576120a16122a5565b5b828201905092915050565b60006120b88261217c565b91506120c38361217c565b9250826120d3576120d26122d4565b5b828204905092915050565b60006120e98261217c565b91506120f48361217c565b925082821015612107576121066122a5565b5b828203905092915050565b600061211d8261215c565b9050919050565b60008115159050919050565b60007fffffffff0000000000000000000000000000000000000000000000000000000082169050919050565b600073ffffffffffffffffffffffffffffffffffffffff82169050919050565b6000819050919050565b82818337600083830152505050565b60005b838110156121b3578082015181840152602081019050612198565b838111156121c2576000848401525b50505050565b600060028204905060018216806121e057607f821691505b602082108114156121f4576121f3612303565b5b50919050565b61220382612361565b810181811067ffffffffffffffff8211171561222257612221612332565b5b80604052505050565b60006122368261217c565b91507fffffffffffffffffffffffffffffffffffffffffffffffffffffffffffffffff821415612269576122686122a5565b5b600182019050919050565b600061227f8261217c565b915061228a8361217c565b92508261229a576122996122d4565b5b828206905092915050565b7f4e487b7100000000000000000000000000000000000000000000000000000000600052601160045260246000fd5b7f4e487b7100000000000000000000000000000000000000000000000000000000600052601260045260246000fd5b7f4e487b7100000000000000000000000000000000000000000000000000000000600052602260045260246000fd5b7f4e487b7100000000000000000000000000000000000000000000000000000000600052604160045260246000fd5b6000601f19601f8301169050919050565b7f4552433732313a207472616e7366657220746f206e6f6e20455243373231526560008201527f63656976657220696d706c656d656e7465720000000000000000000000000000602082015250565b7f4552433732313a207472616e736665722066726f6d20696e636f72726563742060008201527f6f776e6572000000000000000000000000000000000000000000000000000000602082015250565b7f4552433732313a20746f6b656e20616c7265616479206d696e74656400000000600082015250565b7f4552433732313a207472616e7366657220746f20746865207a65726f2061646460008201527f7265737300000000000000000000000000000000000000000000000000000000602082015250565b7f4552433732313a20617070726f766520746f2063616c6c657200000000000000600082015250565b7f4552433732313a206f70657261746f7220717565727920666f72206e6f6e657860008201527f697374656e7420746f6b656e0000000000000000000000000000000000000000602082015250565b7f4552433732313a20617070726f76652063616c6c6572206973206e6f74206f7760008201527f6e6572206e6f7220617070726f76656420666f7220616c6c0000000000000000602082015250565b7f4552433732313a2062616c616e636520717565727920666f7220746865207a6560008201527f726f206164647265737300000000000000000000000000000000000000000000602082015250565b7f4552433732313a206f776e657220717565727920666f72206e6f6e657869737460008201527f656e7420746f6b656e0000000000000000000000000000000000000000000000602082015250565b7f4552433732313a206d696e7420746f20746865207a65726f2061646472657373600082015250565b7f4552433732313a20617070726f76656420717565727920666f72206e6f6e657860008201527f697374656e7420746f6b656e0000000000000000000000000000000000000000602082015250565b7f4552433732314d657461646174613a2055524920717565727920666f72206e6f60008201527f6e6578697374656e7420746f6b656e0000000000000000000000000000000000602082015250565b7f4552433732313a20617070726f76616c20746f2063757272656e74206f776e6560008201527f7200000000000000000000000000000000000000000000000000000000000000602082015250565b7f544f4747453a3a6d696e743a204e4f545f41444d494e00000000000000000000600082015250565b7f4552433732313a207472616e736665722063616c6c6572206973206e6f74206f60008201527f776e6572206e6f7220617070726f766564000000000000000000000000000000602082015250565b61278481612112565b811461278f57600080fd5b50565b61279b81612124565b81146127a657600080fd5b50565b6127b281612130565b81146127bd57600080fd5b50565b6127c98161217c565b81146127d457600080fd5b5056fea2646970667358221220b032a170cd53d1d046d557acdb48e63c00be91ae40ded59e449dfeed89f7de5464736f6c63430008040033a26469706673582212207a110904d127e9f704b638f30e35d965df1e26ed9dcded114593e95120809e3564736f6c63430008040033",
  "linkReferences": {},
  "deployedLinkReferences": {}
}