{
  "_format": "hh-sol-artifact-1",
  "contractName": "togLoan",
  "sourceName": "contracts/togLoan.sol",
  "abi": [
    {
      "inputs": [
        {
          "internalType": "uint256",
          "name": "_poolSupplyMax",
          "type": "uint256"
        },
        {
          "internalType": "uint256",
          "name": "_numberBorrowerTokens",
          "type": "uint256"
        },
        {
          "internalType": "uint256",
          "name": "_reserveFactorMantissa",
          "type": "uint256"
        },
        {
          "internalType": "address",
          "name": "_borrower",
          "type": "address"
        },
        {
          "internalType": "address",
          "name": "_borrowerToken",
          "type": "address"
        },
        {
          "internalType": "address",
          "name": "_admin",
          "type": "address"
        }
      ],
      "stateMutability": "nonpayable",
      "type": "constructor"
    },
    {
      "anonymous": false,
      "inputs": [
        {
          "indexed": false,
          "internalType": "uint256",
          "name": "",
          "type": "uint256"
        }
      ],
      "name": "ArrayVal",
      "type": "event"
    },
    {
      "anonymous": false,
      "inputs": [
        {
          "indexed": false,
          "internalType": "address",
          "name": "",
          "type": "address"
        },
        {
          "indexed": false,
          "internalType": "uint256",
          "name": "",
          "type": "uint256"
        }
      ],
      "name": "Deposit",
      "type": "event"
    },
    {
      "anonymous": false,
      "inputs": [
        {
          "indexed": false,
          "internalType": "address",
          "name": "",
          "type": "address"
        },
        {
          "indexed": false,
          "internalType": "uint256",
          "name": "",
          "type": "uint256"
        }
      ],
      "name": "Withdraw",
      "type": "event"
    },
    {
      "anonymous": false,
      "inputs": [
        {
          "indexed": false,
          "internalType": "uint256",
          "name": "",
          "type": "uint256"
        }
      ],
      "name": "balance",
      "type": "event"
    },
    {
      "anonymous": false,
      "inputs": [
        {
          "indexed": false,
          "internalType": "uint256",
          "name": "_amount",
          "type": "uint256"
        },
        {
          "indexed": false,
          "internalType": "address",
          "name": "borrower",
          "type": "address"
        }
      ],
      "name": "borrowerTokenDeposited",
      "type": "event"
    },
    {
      "anonymous": false,
      "inputs": [
        {
          "indexed": false,
          "internalType": "uint256",
          "name": "_value",
          "type": "uint256"
        }
      ],
      "name": "ethWithdrawBorrower",
      "type": "event"
    },
    {
      "anonymous": false,
      "inputs": [
        {
          "indexed": false,
          "internalType": "uint256",
          "name": "_timeLimit",
          "type": "uint256"
        }
      ],
      "name": "supplyVaultNowOpen",
      "type": "event"
    },
    {
      "inputs": [],
      "name": "LP_deposit",
      "outputs": [],
      "stateMutability": "payable",
      "type": "function"
    },
    {
      "inputs": [],
      "name": "LPnfts",
      "outputs": [
        {
          "internalType": "contract ERC721",
          "name": "",
          "type": "address"
        }
      ],
      "stateMutability": "view",
      "type": "function"
    },
    {
      "inputs": [
        {
          "internalType": "string",
          "name": "_name",
          "type": "string"
        },
        {
          "internalType": "string",
          "name": "_symbol",
          "type": "string"
        }
      ],
      "name": "acceptLoanWithdrawLoan",
      "outputs": [],
      "stateMutability": "nonpayable",
      "type": "function"
    },
    {
      "inputs": [],
      "name": "admin",
      "outputs": [
        {
          "internalType": "address",
          "name": "",
          "type": "address"
        }
      ],
      "stateMutability": "view",
      "type": "function"
    },
    {
      "inputs": [],
      "name": "borrower",
      "outputs": [
        {
          "internalType": "address",
          "name": "",
          "type": "address"
        }
      ],
      "stateMutability": "view",
      "type": "function"
    },
    {
      "inputs": [],
      "name": "borrowerToken",
      "outputs": [
        {
          "internalType": "address",
          "name": "",
          "type": "address"
        }
      ],
      "stateMutability": "view",
      "type": "function"
    },
    {
      "inputs": [],
      "name": "currentIndex",
      "outputs": [
        {
          "internalType": "uint256",
          "name": "",
          "type": "uint256"
        }
      ],
      "stateMutability": "view",
      "type": "function"
    },
    {
      "inputs": [],
      "name": "dao",
      "outputs": [
        {
          "internalType": "address",
          "name": "",
          "type": "address"
        }
      ],
      "stateMutability": "view",
      "type": "function"
    },
    {
      "inputs": [
        {
          "internalType": "uint256",
          "name": "_value",
          "type": "uint256"
        }
      ],
      "name": "depositTokens",
      "outputs": [],
      "stateMutability": "nonpayable",
      "type": "function"
    },
    {
      "inputs": [],
      "name": "endBorrowerAcceptWindow",
      "outputs": [
        {
          "internalType": "uint256",
          "name": "",
          "type": "uint256"
        }
      ],
      "stateMutability": "view",
      "type": "function"
    },
    {
      "inputs": [],
      "name": "endOfRaise",
      "outputs": [
        {
          "internalType": "uint256",
          "name": "",
          "type": "uint256"
        }
      ],
      "stateMutability": "view",
      "type": "function"
    },
    {
      "inputs": [],
      "name": "ethSupplied",
      "outputs": [
        {
          "internalType": "uint256",
          "name": "",
          "type": "uint256"
        }
      ],
      "stateMutability": "view",
      "type": "function"
    },
    {
      "inputs": [],
      "name": "loanAccepted",
      "outputs": [
        {
          "internalType": "bool",
          "name": "",
          "type": "bool"
        }
      ],
      "stateMutability": "view",
      "type": "function"
    },
    {
      "inputs": [],
      "name": "makeLoanPayment",
      "outputs": [],
      "stateMutability": "nonpayable",
      "type": "function"
    },
    {
      "inputs": [],
      "name": "numberBorrowerTokens",
      "outputs": [
        {
          "internalType": "uint256",
          "name": "",
          "type": "uint256"
        }
      ],
      "stateMutability": "view",
      "type": "function"
    },
    {
      "inputs": [],
      "name": "poolSupplyMax",
      "outputs": [
        {
          "internalType": "uint256",
          "name": "",
          "type": "uint256"
        }
      ],
      "stateMutability": "view",
      "type": "function"
    },
    {
      "inputs": [],
      "name": "reserveFactorMantissa",
      "outputs": [
        {
          "internalType": "uint256",
          "name": "",
          "type": "uint256"
        }
      ],
      "stateMutability": "view",
      "type": "function"
    },
    {
      "inputs": [],
      "name": "startOfRaise",
      "outputs": [
        {
          "internalType": "uint256",
          "name": "",
          "type": "uint256"
        }
      ],
      "stateMutability": "view",
      "type": "function"
    },
    {
      "inputs": [],
      "name": "valorDAORecibido",
      "outputs": [
        {
          "internalType": "uint256",
          "name": "",
          "type": "uint256"
        }
      ],
      "stateMutability": "view",
      "type": "function"
    },
    {
      "inputs": [],
      "name": "valorRetiroLPs",
      "outputs": [
        {
          "internalType": "uint256",
          "name": "",
          "type": "uint256"
        }
      ],
      "stateMutability": "view",
      "type": "function"
    },
    {
      "inputs": [],
      "name": "withdraw",
      "outputs": [],
      "stateMutability": "nonpayable",
      "type": "function"
    },
    {
      "inputs": [],
      "name": "withdrawFailedDeposits",
      "outputs": [],
      "stateMutability": "nonpayable",
      "type": "function"
    },
    {
      "inputs": [],
      "name": "withdrawTokensBorrower",
      "outputs": [],
      "stateMutability": "nonpayable",
      "type": "function"
    }
  ],
  "bytecode": "0x60a060405260006009556000600a556000600b553480156200002057600080fd5b50604051620052e3380380620052e383398181016040528101906200004691906200014e565b856004819055508460038190555082600160006101000a81548173ffffffffffffffffffffffffffffffffffffffff021916908373ffffffffffffffffffffffffffffffffffffffff16021790555081600060016101000a81548173ffffffffffffffffffffffffffffffffffffffff021916908373ffffffffffffffffffffffffffffffffffffffff16021790555083600c819055508073ffffffffffffffffffffffffffffffffffffffff1660808173ffffffffffffffffffffffffffffffffffffffff1660601b8152505050505050505062000256565b600081519050620001318162000222565b92915050565b60008151905062000148816200023c565b92915050565b60008060008060008060c087890312156200016857600080fd5b60006200017889828a0162000137565b96505060206200018b89828a0162000137565b95505060406200019e89828a0162000137565b9450506060620001b189828a0162000120565b9350506080620001c489828a0162000120565b92505060a0620001d789828a0162000120565b9150509295509295509295565b6000620001f182620001f8565b9050919050565b600073ffffffffffffffffffffffffffffffffffffffff82169050919050565b6000819050919050565b6200022d81620001e4565b81146200023957600080fd5b50565b620002478162000218565b81146200025357600080fd5b50565b60805160601c61506e62000275600039600061187a015261506e6000f3fe6080604052600436106200015e5760003560e01c806368c9b0f311620000c75780639eb708bc11620000795780639eb708bc1462000441578063a202b4d7146200045b578063b8c36b111462000475578063dd49756e14620004a5578063ef819fae14620004d3578063f851a4401462000503576200015e565b806368c9b0f314620003235780636c2d7994146200035357806371126bec146200038357806376888e2714620003b35780637df1f1b914620003e35780639d410bf31462000413576200015e565b80633ccfd60b11620001215780633ccfd60b14620002195780634162169f146200023357806353d9ba8e146200026357806359c25c2514620002935780635c99410614620002c357806365bacb4714620002f3576200015e565b80630f55508d146200016357806315978dbf146200016f578063173b990414620001895780632397294514620001b957806326987b6014620001e9575b600080fd5b6200016d62000533565b005b3480156200017c57600080fd5b5062000187620008f4565b005b3480156200019657600080fd5b50620001a1620008f6565b604051620001b0919062001fbf565b60405180910390f35b348015620001c657600080fd5b50620001d1620008fc565b604051620001e0919062001db2565b60405180910390f35b348015620001f657600080fd5b50620002016200090d565b60405162000210919062001fbf565b60405180910390f35b3480156200022657600080fd5b506200023162000913565b005b3480156200024057600080fd5b506200024b620010a7565b6040516200025a919062001d2b565b60405180910390f35b3480156200027057600080fd5b506200027b620010cd565b6040516200028a919062001fbf565b60405180910390f35b348015620002a057600080fd5b50620002ab620010d3565b604051620002ba919062001fbf565b60405180910390f35b348015620002d057600080fd5b50620002db620010d9565b604051620002ea919062001fbf565b60405180910390f35b3480156200030057600080fd5b506200030b620010df565b6040516200031a919062001fbf565b60405180910390f35b3480156200033057600080fd5b506200033b620010e5565b6040516200034a919062001fbf565b60405180910390f35b3480156200036057600080fd5b506200036b620010eb565b6040516200037a919062001d2b565b60405180910390f35b3480156200039057600080fd5b506200039b62001111565b604051620003aa919062001dcf565b60405180910390f35b348015620003c057600080fd5b50620003cb62001137565b604051620003da919062001fbf565b60405180910390f35b348015620003f057600080fd5b50620003fb6200113d565b6040516200040a919062001d2b565b60405180910390f35b3480156200042057600080fd5b506200043f6004803603810190620004399190620019f5565b62001163565b005b3480156200044e57600080fd5b506200045962001385565b005b3480156200046857600080fd5b50620004736200159c565b005b3480156200048257600080fd5b506200048d620015f9565b6040516200049c919062001fbf565b60405180910390f35b348015620004b257600080fd5b50620004d16004803603810190620004cb919062001a68565b620015ff565b005b348015620004e057600080fd5b50620004eb62001872565b604051620004fa919062001fbf565b60405180910390f35b3480156200051057600080fd5b506200051b62001878565b6040516200052a919062001d2b565b60405180910390f35b600160009054906101000a900473ffffffffffffffffffffffffffffffffffffffff1673ffffffffffffffffffffffffffffffffffffffff163373ffffffffffffffffffffffffffffffffffffffff161415620005c7576040517f08c379a0000000000000000000000000000000000000000000000000000000008152600401620005be9062001eaf565b60405180910390fd5b600042905060065481118015620005df575060055481105b62000621576040517f08c379a0000000000000000000000000000000000000000000000000000000008152600401620006189062001f15565b60405180910390fd5b6000600e60003373ffffffffffffffffffffffffffffffffffffffff1673ffffffffffffffffffffffffffffffffffffffff1681526020019081526020016000205414620006a6576040517f08c379a00000000000000000000000000000000000000000000000000000000081526004016200069d9062001f7b565b60405180910390fd5b34600e60003373ffffffffffffffffffffffffffffffffffffffff1673ffffffffffffffffffffffffffffffffffffffff1681526020019081526020016000206000828254620006f791906200208f565b925050819055506000600f8054905014620007ab57600034600f600b6000815480929190620007269062002214565b919050558154811062000762577f4e487b7100000000000000000000000000000000000000000000000000000000600052603260045260246000fd5b90600052602060002001546200077991906200208f565b9050600f81908060018154018082558091505060019003906000526020600020016000909190919091505550620007d5565b600f3490806001815401808255809150506001900390600052602060002001600090919091909150555b7fa711d19e52eb41c47e2aa371b9b08c4d54c89b3aa2b93c050dc48f59d6d490a3600f600b548154811062000833577f4e487b7100000000000000000000000000000000000000000000000000000000600052603260045260246000fd5b90600052602060002001546040516200084d919062001fbf565b60405180910390a1600b54600d60003373ffffffffffffffffffffffffffffffffffffffff1673ffffffffffffffffffffffffffffffffffffffff168152602001908152602001600020819055507fe1fffcc4923d04b559f4d29a8bfc6cda04eb5b0d3c460751c2402c5c5cc9109c3334604051620008ce92919062001d85565b60405180910390a13460086000828254620008ea91906200208f565b9250508190555050565b565b600c5481565b60008054906101000a900460ff1681565b600b5481565b6000600d60003373ffffffffffffffffffffffffffffffffffffffff1673ffffffffffffffffffffffffffffffffffffffff16815260200190815260200160002054905060008082148015620009bf5750600a54600954620009769190620020ec565b600f8381548110620009b1577f4e487b7100000000000000000000000000000000000000000000000000000000600052603260045260246000fd5b906000526020600020015411155b905060006001905060008084111562000b3057600a54600954620009e49190620020ec565b600f600186620009f59190620020ec565b8154811062000a2d577f4e487b7100000000000000000000000000000000000000000000000000000000600052603260045260246000fd5b9060005260206000200154109150600e60003373ffffffffffffffffffffffffffffffffffffffff1673ffffffffffffffffffffffffffffffffffffffff16815260200190815260200160002054600f60018662000a8c9190620020ec565b8154811062000ac4577f4e487b7100000000000000000000000000000000000000000000000000000000600052603260045260246000fd5b9060005260206000200154600f868154811062000b0a577f4e487b7100000000000000000000000000000000000000000000000000000000600052603260045260246000fd5b906000526020600020015462000b219190620020ec565b62000b2d9190620020ec565b90505b818062000b3a5750825b62000b7c576040517f08c379a000000000000000000000000000000000000000000000000000000000815260040162000b739062001e8d565b60405180910390fd5b6000600e60003373ffffffffffffffffffffffffffffffffffffffff1673ffffffffffffffffffffffffffffffffffffffff168152602001908152602001600020541162000c01576040517f08c379a000000000000000000000000000000000000000000000000000000000815260040162000bf89062001ef3565b60405180910390fd5b60008085111562000e095760095482600f60018862000c219190620020ec565b8154811062000c59577f4e487b7100000000000000000000000000000000000000000000000000000000600052603260045260246000fd5b906000526020600020015462000c7091906200208f565b1062000cb3576040517f08c379a000000000000000000000000000000000000000000000000000000000815260040162000caa9062001e27565b60405180910390fd5b600e60003373ffffffffffffffffffffffffffffffffffffffff1673ffffffffffffffffffffffffffffffffffffffff16815260200190815260200160002054600f60018762000d049190620020ec565b8154811062000d3c577f4e487b7100000000000000000000000000000000000000000000000000000000600052603260045260246000fd5b906000526020600020015460095462000d569190620020ec565b1062000da257600e60003373ffffffffffffffffffffffffffffffffffffffff1673ffffffffffffffffffffffffffffffffffffffff1681526020019081526020016000205462000e06565b600f60018662000db39190620020ec565b8154811062000deb577f4e487b7100000000000000000000000000000000000000000000000000000000600052603260045260246000fd5b906000526020600020015460095462000e059190620020ec565b5b90505b600080861462000e1a578162000e5b565b600e60003373ffffffffffffffffffffffffffffffffffffffff1673ffffffffffffffffffffffffffffffffffffffff168152602001908152602001600020545b905060095481111562000e6d57600080fd5b80600e60003373ffffffffffffffffffffffffffffffffffffffff1673ffffffffffffffffffffffffffffffffffffffff168152602001908152602001600020600082825462000ebe9190620020ec565b925050819055507f884edad9ce6fa2440d8a54cc123490eb96d2768479d49ff9c7366125a9424364338260405162000ef892919062001d85565b60405180910390a17f884edad9ce6fa2440d8a54cc123490eb96d2768479d49ff9c7366125a942436433600e60003373ffffffffffffffffffffffffffffffffffffffff1673ffffffffffffffffffffffffffffffffffffffff1681526020019081526020016000205460405162000f7292919062001d85565b60405180910390a1600086111562001013577f884edad9ce6fa2440d8a54cc123490eb96d2768479d49ff9c7366125a942436433600f60018962000fb79190620020ec565b8154811062000fef577f4e487b7100000000000000000000000000000000000000000000000000000000600052603260045260246000fd5b90600052602060002001546040516200100a92919062001d85565b60405180910390a15b600081111562001066573373ffffffffffffffffffffffffffffffffffffffff166108fc829081150290604051600060405180830381858888f1935050505015801562001064573d6000803e3d6000fd5b505b7f47bb89f0fc234008e53c79bc3e3dab90e27502d1380a4b3cc35038d57fa03d2a4760405162001097919062001fbf565b60405180910390a1505050505050565b600260009054906101000a900473ffffffffffffffffffffffffffffffffffffffff1681565b60065481565b60095481565b60035481565b60085481565b600a5481565b600060019054906101000a900473ffffffffffffffffffffffffffffffffffffffff1681565b601060009054906101000a900473ffffffffffffffffffffffffffffffffffffffff1681565b60075481565b600160009054906101000a900473ffffffffffffffffffffffffffffffffffffffff1681565b600260009054906101000a900473ffffffffffffffffffffffffffffffffffffffff1673ffffffffffffffffffffffffffffffffffffffff163373ffffffffffffffffffffffffffffffffffffffff1614620011be57600080fd5b600042905060055481118015620011d6575060075481105b62001218576040517f08c379a00000000000000000000000000000000000000000000000000000000081526004016200120f9062001f15565b60405180910390fd5b60008054906101000a900460ff161562001269576040517f08c379a0000000000000000000000000000000000000000000000000000000008152600401620012609062001f59565b60405180910390fd5b60016000806101000a81548160ff02191690831515021790555060003373ffffffffffffffffffffffffffffffffffffffff16600854604051620012ad9062001d14565b60006040518083038185875af1925050503d8060008114620012ec576040519150601f19603f3d011682016040523d82523d6000602084013e620012f1565b606091505b505090508062001338576040517f08c379a00000000000000000000000000000000000000000000000000000000081526004016200132f9062001e49565b60405180910390fd5b7f7c046c1724795ce324ef285dee325dda79387db88db5a1f7714988b13a9b5ecc6008546040516200136b919062001fbf565b60405180910390a16200137f84846200189c565b50505050565b60008054906101000a900460ff1615620013d6576040517f08c379a0000000000000000000000000000000000000000000000000000000008152600401620013cd9062001e6b565b60405180910390fd5b6000600e60003373ffffffffffffffffffffffffffffffffffffffff1673ffffffffffffffffffffffffffffffffffffffff1681526020019081526020016000205414156200145c576040517f08c379a0000000000000000000000000000000000000000000000000000000008152600401620014539062001f37565b60405180910390fd5b6000600e60003373ffffffffffffffffffffffffffffffffffffffff1673ffffffffffffffffffffffffffffffffffffffff1681526020019081526020016000205490506000600e60003373ffffffffffffffffffffffffffffffffffffffff1673ffffffffffffffffffffffffffffffffffffffff1681526020019081526020016000208190555060003373ffffffffffffffffffffffffffffffffffffffff16826040516200150d9062001d14565b60006040518083038185875af1925050503d80600081146200154c576040519150601f19603f3d011682016040523d82523d6000602084013e62001551565b606091505b505090508062001598576040517f08c379a00000000000000000000000000000000000000000000000000000000081526004016200158f9062001e49565b60405180910390fd5b5050565b600260009054906101000a900473ffffffffffffffffffffffffffffffffffffffff1673ffffffffffffffffffffffffffffffffffffffff163373ffffffffffffffffffffffffffffffffffffffff1614620015f757600080fd5b565b60045481565b600260009054906101000a900473ffffffffffffffffffffffffffffffffffffffff1673ffffffffffffffffffffffffffffffffffffffff163373ffffffffffffffffffffffffffffffffffffffff16146200165a57600080fd5b6003548114620016a1576040517f08c379a0000000000000000000000000000000000000000000000000000000008152600401620016989062001ed1565b60405180910390fd5b60008060019054906101000a900473ffffffffffffffffffffffffffffffffffffffff1673ffffffffffffffffffffffffffffffffffffffff166323b872dd600160009054906101000a900473ffffffffffffffffffffffffffffffffffffffff1630856040518463ffffffff1660e01b8152600401620017259392919062001d48565b602060405180830381600087803b1580156200174057600080fd5b505af115801562001755573d6000803e3d6000fd5b505050506040513d601f19601f820116820180604052508101906200177b9190620019c9565b905080620017c0576040517f08c379a0000000000000000000000000000000000000000000000000000000008152600401620017b79062001f9d565b60405180910390fd5b7f19893fa936723849d863fc33b53718b15653d646e3b6c4d69baacfa0bc644c408230604051620017f392919062001fdc565b60405180910390a142600681905550620151806006546200181591906200208f565b6005819055506138406005546200182d91906200208f565b6007819055507f427ab1ad6fb8a2e156dc3f43eabced6adaf640ce9def138f05e1d5210b8e1ea960055460405162001866919062001fbf565b60405180910390a15050565b60055481565b7f000000000000000000000000000000000000000000000000000000000000000081565b8181604051620018ac906200191b565b620018b992919062001dec565b604051809103906000f080158015620018d6573d6000803e3d6000fd5b50601060006101000a81548173ffffffffffffffffffffffffffffffffffffffff021916908373ffffffffffffffffffffffffffffffffffffffff1602179055505050565b612b4480620024f583390190565b6000620019406200193a8462002032565b62002009565b9050828152602081018484840111156200195957600080fd5b6200196684828562002199565b509392505050565b6000815190506200197f81620024c0565b92915050565b600082601f8301126200199757600080fd5b8135620019a984826020860162001929565b91505092915050565b600081359050620019c381620024da565b92915050565b600060208284031215620019dc57600080fd5b6000620019ec848285016200196e565b91505092915050565b6000806040838503121562001a0957600080fd5b600083013567ffffffffffffffff81111562001a2457600080fd5b62001a328582860162001985565b925050602083013567ffffffffffffffff81111562001a5057600080fd5b62001a5e8582860162001985565b9150509250929050565b60006020828403121562001a7b57600080fd5b600062001a8b84828501620019b2565b91505092915050565b62001a9f8162002127565b82525050565b62001ab0816200213b565b82525050565b62001ac18162002171565b82525050565b600062001ad48262002068565b62001ae081856200207e565b935062001af2818560208601620021a8565b62001afd81620022c0565b840191505092915050565b600062001b176013836200207e565b915062001b2482620022d1565b602082019050919050565b600062001b3e6012836200207e565b915062001b4b82620022fa565b602082019050919050565b600062001b656014836200207e565b915062001b728262002323565b602082019050919050565b600062001b8c600c836200207e565b915062001b99826200234c565b602082019050919050565b600062001bb36019836200207e565b915062001bc08262002375565b602082019050919050565b600062001bda6019836200207e565b915062001be7826200239e565b602082019050919050565b600062001c016012836200207e565b915062001c0e82620023c7565b602082019050919050565b600062001c286019836200207e565b915062001c3582620023f0565b602082019050919050565b600062001c4f600f836200207e565b915062001c5c8262002419565b602082019050919050565b600062001c7660008362002073565b915062001c838262002442565b600082019050919050565b600062001c9d601c836200207e565b915062001caa8262002445565b602082019050919050565b600062001cc46011836200207e565b915062001cd1826200246e565b602082019050919050565b600062001ceb6016836200207e565b915062001cf88262002497565b602082019050919050565b62001d0e8162002167565b82525050565b600062001d218262001c67565b9150819050919050565b600060208201905062001d42600083018462001a94565b92915050565b600060608201905062001d5f600083018662001a94565b62001d6e602083018562001a94565b62001d7d604083018462001d03565b949350505050565b600060408201905062001d9c600083018562001a94565b62001dab602083018462001d03565b9392505050565b600060208201905062001dc9600083018462001aa5565b92915050565b600060208201905062001de6600083018462001ab6565b92915050565b6000604082019050818103600083015262001e08818562001ac7565b9050818103602083015262001e1e818462001ac7565b90509392505050565b6000602082019050818103600083015262001e428162001b08565b9050919050565b6000602082019050818103600083015262001e648162001b2f565b9050919050565b6000602082019050818103600083015262001e868162001b56565b9050919050565b6000602082019050818103600083015262001ea88162001b7d565b9050919050565b6000602082019050818103600083015262001eca8162001ba4565b9050919050565b6000602082019050818103600083015262001eec8162001bcb565b9050919050565b6000602082019050818103600083015262001f0e8162001bf2565b9050919050565b6000602082019050818103600083015262001f308162001c19565b9050919050565b6000602082019050818103600083015262001f528162001c40565b9050919050565b6000602082019050818103600083015262001f748162001c8e565b9050919050565b6000602082019050818103600083015262001f968162001cb5565b9050919050565b6000602082019050818103600083015262001fb88162001cdc565b9050919050565b600060208201905062001fd6600083018462001d03565b92915050565b600060408201905062001ff3600083018562001d03565b62002002602083018462001a94565b9392505050565b60006200201562002028565b9050620020238282620021de565b919050565b6000604051905090565b600067ffffffffffffffff82111562002050576200204f62002291565b5b6200205b82620022c0565b9050602081019050919050565b600081519050919050565b600081905092915050565b600082825260208201905092915050565b60006200209c8262002167565b9150620020a98362002167565b9250827fffffffffffffffffffffffffffffffffffffffffffffffffffffffffffffffff03821115620020e157620020e062002262565b5b828201905092915050565b6000620020f98262002167565b9150620021068362002167565b9250828210156200211c576200211b62002262565b5b828203905092915050565b6000620021348262002147565b9050919050565b60008115159050919050565b600073ffffffffffffffffffffffffffffffffffffffff82169050919050565b6000819050919050565b60006200217e8262002185565b9050919050565b6000620021928262002147565b9050919050565b82818337600083830152505050565b60005b83811015620021c8578082015181840152602081019050620021ab565b83811115620021d8576000848401525b50505050565b620021e982620022c0565b810181811067ffffffffffffffff821117156200220b576200220a62002291565b5b80604052505050565b6000620022218262002167565b91507fffffffffffffffffffffffffffffffffffffffffffffffffffffffffffffffff82141562002257576200225662002262565b5b600182019050919050565b7f4e487b7100000000000000000000000000000000000000000000000000000000600052601160045260246000fd5b7f4e487b7100000000000000000000000000000000000000000000000000000000600052604160045260246000fd5b6000601f19601f8301169050919050565b7f63616e2774207769746864726177206d6f726500000000000000000000000000600082015250565b7f544f4747453a204641494c45445f53454e440000000000000000000000000000600082015250565b7f544f4747453a204c4f414e5f4143434550544544000000000000000000000000600082015250565b7f6e6f7420656c696769626c650000000000000000000000000000000000000000600082015250565b7f544f4747453a20424f52524f5745525f464f5242494444454e00000000000000600082015250565b7f544f4747453a204e4f545f415050524f5645445f56414c554500000000000000600082015250565b7f696e73756666696369656e742046756e64730000000000000000000000000000600082015250565b7f544f4747453a204f55545f4f465f54494d455f57494e444f5700000000000000600082015250565b7f544f4747453a204e4f5f56414c55450000000000000000000000000000000000600082015250565b50565b7f544f4747453a204c4f414e5f414c52454144595f414343455054454400000000600082015250565b7f616c7265616479206465706f7369746564000000000000000000000000000000600082015250565b7f544f4747453a205452414e534645525f4641494c454400000000000000000000600082015250565b620024cb816200213b565b8114620024d757600080fd5b50565b620024e58162002167565b8114620024f157600080fd5b5056fe60806040523480156200001157600080fd5b5060405162002b4438038062002b44833981810160405281019062000037919062000197565b818181600090805190602001906200005192919062000075565b5080600190805190602001906200006a92919062000075565b50505050506200037a565b82805462000083906200029f565b90600052602060002090601f016020900481019282620000a75760008555620000f3565b82601f10620000c257805160ff1916838001178555620000f3565b82800160010185558215620000f3579182015b82811115620000f2578251825591602001919060010190620000d5565b5b50905062000102919062000106565b5090565b5b808211156200012157600081600090555060010162000107565b5090565b60006200013c620001368462000233565b6200020a565b9050828152602081018484840111156200015557600080fd5b6200016284828562000269565b509392505050565b600082601f8301126200017c57600080fd5b81516200018e84826020860162000125565b91505092915050565b60008060408385031215620001ab57600080fd5b600083015167ffffffffffffffff811115620001c657600080fd5b620001d4858286016200016a565b925050602083015167ffffffffffffffff811115620001f257600080fd5b62000200858286016200016a565b9150509250929050565b60006200021662000229565b9050620002248282620002d5565b919050565b6000604051905090565b600067ffffffffffffffff8211156200025157620002506200033a565b5b6200025c8262000369565b9050602081019050919050565b60005b83811015620002895780820151818401526020810190506200026c565b8381111562000299576000848401525b50505050565b60006002820490506001821680620002b857607f821691505b60208210811415620002cf57620002ce6200030b565b5b50919050565b620002e08262000369565b810181811067ffffffffffffffff821117156200030257620003016200033a565b5b80604052505050565b7f4e487b7100000000000000000000000000000000000000000000000000000000600052602260045260246000fd5b7f4e487b7100000000000000000000000000000000000000000000000000000000600052604160045260246000fd5b6000601f19601f8301169050919050565b6127ba806200038a6000396000f3fe608060405234801561001057600080fd5b50600436106100ea5760003560e01c80636352211e1161008c578063a22cb46511610066578063a22cb4651461025b578063b88d4fde14610277578063c87b56dd14610293578063e985e9c5146102c3576100ea565b80636352211e146101dd57806370a082311461020d57806395d89b411461023d576100ea565b8063095ea7b3116100c8578063095ea7b31461016d57806323b872dd1461018957806340c10f19146101a557806342842e0e146101c1576100ea565b806301ffc9a7146100ef57806306fdde031461011f578063081812fc1461013d575b600080fd5b61010960048036038101906101049190611950565b6102f3565b6040516101169190611d33565b60405180910390f35b6101276103d5565b6040516101349190611d4e565b60405180910390f35b610157600480360381019061015291906119a2565b610467565b6040516101649190611ccc565b60405180910390f35b61018760048036038101906101829190611914565b6104ec565b005b6101a3600480360381019061019e919061180e565b610604565b005b6101bf60048036038101906101ba9190611914565b610664565b005b6101db60048036038101906101d6919061180e565b610702565b005b6101f760048036038101906101f291906119a2565b610722565b6040516102049190611ccc565b60405180910390f35b610227600480360381019061022291906117a9565b6107d4565b6040516102349190611f50565b60405180910390f35b61024561088c565b6040516102529190611d4e565b60405180910390f35b610275600480360381019061027091906118d8565b61091e565b005b610291600480360381019061028c919061185d565b610934565b005b6102ad60048036038101906102a891906119a2565b610996565b6040516102ba9190611d4e565b60405180910390f35b6102dd60048036038101906102d891906117d2565b610a3d565b6040516102ea9190611d33565b60405180910390f35b60007f80ac58cd000000000000000000000000000000000000000000000000000000007bffffffffffffffffffffffffffffffffffffffffffffffffffffffff1916827bffffffffffffffffffffffffffffffffffffffffffffffffffffffff191614806103be57507f5b5e139f000000000000000000000000000000000000000000000000000000007bffffffffffffffffffffffffffffffffffffffffffffffffffffffff1916827bffffffffffffffffffffffffffffffffffffffffffffffffffffffff1916145b806103ce57506103cd82610ad1565b5b9050919050565b6060600080546103e490612175565b80601f016020809104026020016040519081016040528092919081815260200182805461041090612175565b801561045d5780601f106104325761010080835404028352916020019161045d565b820191906000526020600020905b81548152906001019060200180831161044057829003601f168201915b5050505050905090565b600061047282610b3b565b6104b1576040517f08c379a00000000000000000000000000000000000000000000000000000000081526004016104a890611eb0565b60405180910390fd5b6004600083815260200190815260200160002060009054906101000a900473ffffffffffffffffffffffffffffffffffffffff169050919050565b60006104f782610722565b90508073ffffffffffffffffffffffffffffffffffffffff168373ffffffffffffffffffffffffffffffffffffffff161415610568576040517f08c379a000000000000000000000000000000000000000000000000000000000815260040161055f90611ef0565b60405180910390fd5b8073ffffffffffffffffffffffffffffffffffffffff16610587610ba7565b73ffffffffffffffffffffffffffffffffffffffff1614806105b657506105b5816105b0610ba7565b610a3d565b5b6105f5576040517f08c379a00000000000000000000000000000000000000000000000000000000081526004016105ec90611e30565b60405180910390fd5b6105ff8383610baf565b505050565b61061561060f610ba7565b82610c68565b610654576040517f08c379a000000000000000000000000000000000000000000000000000000000815260040161064b90611f30565b60405180910390fd5b61065f838383610d46565b505050565b600660009054906101000a900473ffffffffffffffffffffffffffffffffffffffff1673ffffffffffffffffffffffffffffffffffffffff163373ffffffffffffffffffffffffffffffffffffffff16146106f4576040517f08c379a00000000000000000000000000000000000000000000000000000000081526004016106eb90611f10565b60405180910390fd5b6106fe8282610fad565b5050565b61071d83838360405180602001604052806000815250610934565b505050565b6000806002600084815260200190815260200160002060009054906101000a900473ffffffffffffffffffffffffffffffffffffffff169050600073ffffffffffffffffffffffffffffffffffffffff168173ffffffffffffffffffffffffffffffffffffffff1614156107cb576040517f08c379a00000000000000000000000000000000000000000000000000000000081526004016107c290611e70565b60405180910390fd5b80915050919050565b60008073ffffffffffffffffffffffffffffffffffffffff168273ffffffffffffffffffffffffffffffffffffffff161415610845576040517f08c379a000000000000000000000000000000000000000000000000000000000815260040161083c90611e50565b60405180910390fd5b600360008373ffffffffffffffffffffffffffffffffffffffff1673ffffffffffffffffffffffffffffffffffffffff168152602001908152602001600020549050919050565b60606001805461089b90612175565b80601f01602080910402602001604051908101604052809291908181526020018280546108c790612175565b80156109145780601f106108e957610100808354040283529160200191610914565b820191906000526020600020905b8154815290600101906020018083116108f757829003601f168201915b5050505050905090565b610930610929610ba7565b8383611187565b5050565b61094561093f610ba7565b83610c68565b610984576040517f08c379a000000000000000000000000000000000000000000000000000000000815260040161097b90611f30565b60405180910390fd5b610990848484846112f4565b50505050565b60606109a182610b3b565b6109e0576040517f08c379a00000000000000000000000000000000000000000000000000000000081526004016109d790611ed0565b60405180910390fd5b60006109ea611350565b90506000815111610a0a5760405180602001604052806000815250610a35565b80610a1484611367565b604051602001610a25929190611ca8565b6040516020818303038152906040525b915050919050565b6000600560008473ffffffffffffffffffffffffffffffffffffffff1673ffffffffffffffffffffffffffffffffffffffff16815260200190815260200160002060008373ffffffffffffffffffffffffffffffffffffffff1673ffffffffffffffffffffffffffffffffffffffff16815260200190815260200160002060009054906101000a900460ff16905092915050565b60007f01ffc9a7000000000000000000000000000000000000000000000000000000007bffffffffffffffffffffffffffffffffffffffffffffffffffffffff1916827bffffffffffffffffffffffffffffffffffffffffffffffffffffffff1916149050919050565b60008073ffffffffffffffffffffffffffffffffffffffff166002600084815260200190815260200160002060009054906101000a900473ffffffffffffffffffffffffffffffffffffffff1673ffffffffffffffffffffffffffffffffffffffff1614159050919050565b600033905090565b816004600083815260200190815260200160002060006101000a81548173ffffffffffffffffffffffffffffffffffffffff021916908373ffffffffffffffffffffffffffffffffffffffff160217905550808273ffffffffffffffffffffffffffffffffffffffff16610c2283610722565b73ffffffffffffffffffffffffffffffffffffffff167f8c5be1e5ebec7d5bd14f71427d1e84f3dd0314c0f7b2291e5b200ac8c7c3b92560405160405180910390a45050565b6000610c7382610b3b565b610cb2576040517f08c379a0000000000000000000000000000000000000000000000000000000008152600401610ca990611e10565b60405180910390fd5b6000610cbd83610722565b90508073ffffffffffffffffffffffffffffffffffffffff168473ffffffffffffffffffffffffffffffffffffffff161480610d2c57508373ffffffffffffffffffffffffffffffffffffffff16610d1484610467565b73ffffffffffffffffffffffffffffffffffffffff16145b80610d3d5750610d3c8185610a3d565b5b91505092915050565b8273ffffffffffffffffffffffffffffffffffffffff16610d6682610722565b73ffffffffffffffffffffffffffffffffffffffff1614610dbc576040517f08c379a0000000000000000000000000000000000000000000000000000000008152600401610db390611d90565b60405180910390fd5b600073ffffffffffffffffffffffffffffffffffffffff168273ffffffffffffffffffffffffffffffffffffffff161415610e2c576040517f08c379a0000000000000000000000000000000000000000000000000000000008152600401610e2390611dd0565b60405180910390fd5b610e37838383611514565b610e42600082610baf565b6001600360008573ffffffffffffffffffffffffffffffffffffffff1673ffffffffffffffffffffffffffffffffffffffff1681526020019081526020016000206000828254610e92919061208b565b925050819055506001600360008473ffffffffffffffffffffffffffffffffffffffff1673ffffffffffffffffffffffffffffffffffffffff1681526020019081526020016000206000828254610ee99190612004565b92505081905550816002600083815260200190815260200160002060006101000a81548173ffffffffffffffffffffffffffffffffffffffff021916908373ffffffffffffffffffffffffffffffffffffffff160217905550808273ffffffffffffffffffffffffffffffffffffffff168473ffffffffffffffffffffffffffffffffffffffff167fddf252ad1be2c89b69c2b068fc378daa952ba7f163c4a11628f55a4df523b3ef60405160405180910390a4610fa8838383611519565b505050565b600073ffffffffffffffffffffffffffffffffffffffff168273ffffffffffffffffffffffffffffffffffffffff16141561101d576040517f08c379a000000000000000000000000000000000000000000000000000000000815260040161101490611e90565b60405180910390fd5b61102681610b3b565b15611066576040517f08c379a000000000000000000000000000000000000000000000000000000000815260040161105d90611db0565b60405180910390fd5b61107260008383611514565b6001600360008473ffffffffffffffffffffffffffffffffffffffff1673ffffffffffffffffffffffffffffffffffffffff16815260200190815260200160002060008282546110c29190612004565b92505081905550816002600083815260200190815260200160002060006101000a81548173ffffffffffffffffffffffffffffffffffffffff021916908373ffffffffffffffffffffffffffffffffffffffff160217905550808273ffffffffffffffffffffffffffffffffffffffff16600073ffffffffffffffffffffffffffffffffffffffff167fddf252ad1be2c89b69c2b068fc378daa952ba7f163c4a11628f55a4df523b3ef60405160405180910390a461118360008383611519565b5050565b8173ffffffffffffffffffffffffffffffffffffffff168373ffffffffffffffffffffffffffffffffffffffff1614156111f6576040517f08c379a00000000000000000000000000000000000000000000000000000000081526004016111ed90611df0565b60405180910390fd5b80600560008573ffffffffffffffffffffffffffffffffffffffff1673ffffffffffffffffffffffffffffffffffffffff16815260200190815260200160002060008473ffffffffffffffffffffffffffffffffffffffff1673ffffffffffffffffffffffffffffffffffffffff16815260200190815260200160002060006101000a81548160ff0219169083151502179055508173ffffffffffffffffffffffffffffffffffffffff168373ffffffffffffffffffffffffffffffffffffffff167f17307eab39ab6107e8899845ad3d59bd9653f200f220920489ca2b5937696c31836040516112e79190611d33565b60405180910390a3505050565b6112ff848484610d46565b61130b8484848461151e565b61134a576040517f08c379a000000000000000000000000000000000000000000000000000000000815260040161134190611d70565b60405180910390fd5b50505050565b606060405180602001604052806000815250905090565b606060008214156113af576040518060400160405280600181526020017f3000000000000000000000000000000000000000000000000000000000000000815250905061150f565b600082905060005b600082146113e15780806113ca906121d8565b915050600a826113da919061205a565b91506113b7565b60008167ffffffffffffffff811115611423577f4e487b7100000000000000000000000000000000000000000000000000000000600052604160045260246000fd5b6040519080825280601f01601f1916602001820160405280156114555781602001600182028036833780820191505090505b5090505b600085146115085760018261146e919061208b565b9150600a8561147d9190612221565b60306114899190612004565b60f81b8183815181106114c5577f4e487b7100000000000000000000000000000000000000000000000000000000600052603260045260246000fd5b60200101907effffffffffffffffffffffffffffffffffffffffffffffffffffffffffffff1916908160001a905350600a85611501919061205a565b9450611459565b8093505050505b919050565b505050565b505050565b600061153f8473ffffffffffffffffffffffffffffffffffffffff166116b5565b156116a8578373ffffffffffffffffffffffffffffffffffffffff1663150b7a02611568610ba7565b8786866040518563ffffffff1660e01b815260040161158a9493929190611ce7565b602060405180830381600087803b1580156115a457600080fd5b505af19250505080156115d557506040513d601f19601f820116820180604052508101906115d29190611979565b60015b611658573d8060008114611605576040519150601f19603f3d011682016040523d82523d6000602084013e61160a565b606091505b50600081511415611650576040517f08c379a000000000000000000000000000000000000000000000000000000000815260040161164790611d70565b60405180910390fd5b805181602001fd5b63150b7a0260e01b7bffffffffffffffffffffffffffffffffffffffffffffffffffffffff1916817bffffffffffffffffffffffffffffffffffffffffffffffffffffffff1916149150506116ad565b600190505b949350505050565b6000808273ffffffffffffffffffffffffffffffffffffffff163b119050919050565b60006116eb6116e684611f90565b611f6b565b90508281526020810184848401111561170357600080fd5b61170e848285612133565b509392505050565b60008135905061172581612728565b92915050565b60008135905061173a8161273f565b92915050565b60008135905061174f81612756565b92915050565b60008151905061176481612756565b92915050565b600082601f83011261177b57600080fd5b813561178b8482602086016116d8565b91505092915050565b6000813590506117a38161276d565b92915050565b6000602082840312156117bb57600080fd5b60006117c984828501611716565b91505092915050565b600080604083850312156117e557600080fd5b60006117f385828601611716565b925050602061180485828601611716565b9150509250929050565b60008060006060848603121561182357600080fd5b600061183186828701611716565b935050602061184286828701611716565b925050604061185386828701611794565b9150509250925092565b6000806000806080858703121561187357600080fd5b600061188187828801611716565b945050602061189287828801611716565b93505060406118a387828801611794565b925050606085013567ffffffffffffffff8111156118c057600080fd5b6118cc8782880161176a565b91505092959194509250565b600080604083850312156118eb57600080fd5b60006118f985828601611716565b925050602061190a8582860161172b565b9150509250929050565b6000806040838503121561192757600080fd5b600061193585828601611716565b925050602061194685828601611794565b9150509250929050565b60006020828403121561196257600080fd5b600061197084828501611740565b91505092915050565b60006020828403121561198b57600080fd5b600061199984828501611755565b91505092915050565b6000602082840312156119b457600080fd5b60006119c284828501611794565b91505092915050565b6119d4816120bf565b82525050565b6119e3816120d1565b82525050565b60006119f482611fc1565b6119fe8185611fd7565b9350611a0e818560208601612142565b611a178161230e565b840191505092915050565b6000611a2d82611fcc565b611a378185611fe8565b9350611a47818560208601612142565b611a508161230e565b840191505092915050565b6000611a6682611fcc565b611a708185611ff9565b9350611a80818560208601612142565b80840191505092915050565b6000611a99603283611fe8565b9150611aa48261231f565b604082019050919050565b6000611abc602583611fe8565b9150611ac78261236e565b604082019050919050565b6000611adf601c83611fe8565b9150611aea826123bd565b602082019050919050565b6000611b02602483611fe8565b9150611b0d826123e6565b604082019050919050565b6000611b25601983611fe8565b9150611b3082612435565b602082019050919050565b6000611b48602c83611fe8565b9150611b538261245e565b604082019050919050565b6000611b6b603883611fe8565b9150611b76826124ad565b604082019050919050565b6000611b8e602a83611fe8565b9150611b99826124fc565b604082019050919050565b6000611bb1602983611fe8565b9150611bbc8261254b565b604082019050919050565b6000611bd4602083611fe8565b9150611bdf8261259a565b602082019050919050565b6000611bf7602c83611fe8565b9150611c02826125c3565b604082019050919050565b6000611c1a602f83611fe8565b9150611c2582612612565b604082019050919050565b6000611c3d602183611fe8565b9150611c4882612661565b604082019050919050565b6000611c60601683611fe8565b9150611c6b826126b0565b602082019050919050565b6000611c83603183611fe8565b9150611c8e826126d9565b604082019050919050565b611ca281612129565b82525050565b6000611cb48285611a5b565b9150611cc08284611a5b565b91508190509392505050565b6000602082019050611ce160008301846119cb565b92915050565b6000608082019050611cfc60008301876119cb565b611d0960208301866119cb565b611d166040830185611c99565b8181036060830152611d2881846119e9565b905095945050505050565b6000602082019050611d4860008301846119da565b92915050565b60006020820190508181036000830152611d688184611a22565b905092915050565b60006020820190508181036000830152611d8981611a8c565b9050919050565b60006020820190508181036000830152611da981611aaf565b9050919050565b60006020820190508181036000830152611dc981611ad2565b9050919050565b60006020820190508181036000830152611de981611af5565b9050919050565b60006020820190508181036000830152611e0981611b18565b9050919050565b60006020820190508181036000830152611e2981611b3b565b9050919050565b60006020820190508181036000830152611e4981611b5e565b9050919050565b60006020820190508181036000830152611e6981611b81565b9050919050565b60006020820190508181036000830152611e8981611ba4565b9050919050565b60006020820190508181036000830152611ea981611bc7565b9050919050565b60006020820190508181036000830152611ec981611bea565b9050919050565b60006020820190508181036000830152611ee981611c0d565b9050919050565b60006020820190508181036000830152611f0981611c30565b9050919050565b60006020820190508181036000830152611f2981611c53565b9050919050565b60006020820190508181036000830152611f4981611c76565b9050919050565b6000602082019050611f656000830184611c99565b92915050565b6000611f75611f86565b9050611f8182826121a7565b919050565b6000604051905090565b600067ffffffffffffffff821115611fab57611faa6122df565b5b611fb48261230e565b9050602081019050919050565b600081519050919050565b600081519050919050565b600082825260208201905092915050565b600082825260208201905092915050565b600081905092915050565b600061200f82612129565b915061201a83612129565b9250827fffffffffffffffffffffffffffffffffffffffffffffffffffffffffffffffff0382111561204f5761204e612252565b5b828201905092915050565b600061206582612129565b915061207083612129565b9250826120805761207f612281565b5b828204905092915050565b600061209682612129565b91506120a183612129565b9250828210156120b4576120b3612252565b5b828203905092915050565b60006120ca82612109565b9050919050565b60008115159050919050565b60007fffffffff0000000000000000000000000000000000000000000000000000000082169050919050565b600073ffffffffffffffffffffffffffffffffffffffff82169050919050565b6000819050919050565b82818337600083830152505050565b60005b83811015612160578082015181840152602081019050612145565b8381111561216f576000848401525b50505050565b6000600282049050600182168061218d57607f821691505b602082108114156121a1576121a06122b0565b5b50919050565b6121b08261230e565b810181811067ffffffffffffffff821117156121cf576121ce6122df565b5b80604052505050565b60006121e382612129565b91507fffffffffffffffffffffffffffffffffffffffffffffffffffffffffffffffff82141561221657612215612252565b5b600182019050919050565b600061222c82612129565b915061223783612129565b92508261224757612246612281565b5b828206905092915050565b7f4e487b7100000000000000000000000000000000000000000000000000000000600052601160045260246000fd5b7f4e487b7100000000000000000000000000000000000000000000000000000000600052601260045260246000fd5b7f4e487b7100000000000000000000000000000000000000000000000000000000600052602260045260246000fd5b7f4e487b7100000000000000000000000000000000000000000000000000000000600052604160045260246000fd5b6000601f19601f8301169050919050565b7f4552433732313a207472616e7366657220746f206e6f6e20455243373231526560008201527f63656976657220696d706c656d656e7465720000000000000000000000000000602082015250565b7f4552433732313a207472616e736665722066726f6d20696e636f72726563742060008201527f6f776e6572000000000000000000000000000000000000000000000000000000602082015250565b7f4552433732313a20746f6b656e20616c7265616479206d696e74656400000000600082015250565b7f4552433732313a207472616e7366657220746f20746865207a65726f2061646460008201527f7265737300000000000000000000000000000000000000000000000000000000602082015250565b7f4552433732313a20617070726f766520746f2063616c6c657200000000000000600082015250565b7f4552433732313a206f70657261746f7220717565727920666f72206e6f6e657860008201527f697374656e7420746f6b656e0000000000000000000000000000000000000000602082015250565b7f4552433732313a20617070726f76652063616c6c6572206973206e6f74206f7760008201527f6e6572206e6f7220617070726f76656420666f7220616c6c0000000000000000602082015250565b7f4552433732313a2062616c616e636520717565727920666f7220746865207a6560008201527f726f206164647265737300000000000000000000000000000000000000000000602082015250565b7f4552433732313a206f776e657220717565727920666f72206e6f6e657869737460008201527f656e7420746f6b656e0000000000000000000000000000000000000000000000602082015250565b7f4552433732313a206d696e7420746f20746865207a65726f2061646472657373600082015250565b7f4552433732313a20617070726f76656420717565727920666f72206e6f6e657860008201527f697374656e7420746f6b656e0000000000000000000000000000000000000000602082015250565b7f4552433732314d657461646174613a2055524920717565727920666f72206e6f60008201527f6e6578697374656e7420746f6b656e0000000000000000000000000000000000602082015250565b7f4552433732313a20617070726f76616c20746f2063757272656e74206f776e6560008201527f7200000000000000000000000000000000000000000000000000000000000000602082015250565b7f544f4747453a3a6d696e743a204e4f545f41444d494e00000000000000000000600082015250565b7f4552433732313a207472616e736665722063616c6c6572206973206e6f74206f60008201527f776e6572206e6f7220617070726f766564000000000000000000000000000000602082015250565b612731816120bf565b811461273c57600080fd5b50565b612748816120d1565b811461275357600080fd5b50565b61275f816120dd565b811461276a57600080fd5b50565b61277681612129565b811461278157600080fd5b5056fea26469706673582212209318e9fdeb70d97557f9b5be2f63de49164d9d33932264c630facd0a46380f5e64736f6c63430008040033a26469706673582212203b10d67d0e98e415d88116981e8296c88bb558f1801dfab62f9e42e37e127c8664736f6c63430008040033",
  "linkReferences": {},
  "deployedLinkReferences": {}
}