{
  "_format": "hh-sol-artifact-1",
  "contractName": "togLoan",
  "sourceName": "contracts/togLoan.sol",
  "abi": [
    {
      "inputs": [
        {
          "internalType": "uint256",
          "name": "_poolSupplyMax",
          "type": "uint256"
        },
        {
          "internalType": "uint256",
          "name": "_numberBorrowerTokens",
          "type": "uint256"
        },
        {
          "internalType": "uint256",
          "name": "_reserveFactorMantissa",
          "type": "uint256"
        },
        {
          "internalType": "address",
          "name": "_borrower",
          "type": "address"
        },
        {
          "internalType": "address",
          "name": "_borrowerToken",
          "type": "address"
        },
        {
          "internalType": "address",
          "name": "_admin",
          "type": "address"
        }
      ],
      "stateMutability": "nonpayable",
      "type": "constructor"
    },
    {
      "anonymous": false,
      "inputs": [
        {
          "indexed": false,
          "internalType": "uint256",
          "name": "",
          "type": "uint256"
        }
      ],
      "name": "ArrayVal",
      "type": "event"
    },
    {
      "anonymous": false,
      "inputs": [
        {
          "indexed": false,
          "internalType": "address",
          "name": "",
          "type": "address"
        },
        {
          "indexed": false,
          "internalType": "uint256",
          "name": "",
          "type": "uint256"
        }
      ],
      "name": "Deposit",
      "type": "event"
    },
    {
      "anonymous": false,
      "inputs": [
        {
          "indexed": false,
          "internalType": "address",
          "name": "",
          "type": "address"
        },
        {
          "indexed": false,
          "internalType": "uint256",
          "name": "",
          "type": "uint256"
        }
      ],
      "name": "Withdraw",
      "type": "event"
    },
    {
      "anonymous": false,
      "inputs": [
        {
          "indexed": false,
          "internalType": "uint256",
          "name": "",
          "type": "uint256"
        }
      ],
      "name": "balance",
      "type": "event"
    },
    {
      "anonymous": false,
      "inputs": [
        {
          "indexed": false,
          "internalType": "uint256",
          "name": "_amount",
          "type": "uint256"
        },
        {
          "indexed": false,
          "internalType": "address",
          "name": "borrower",
          "type": "address"
        }
      ],
      "name": "borrowerTokenDeposited",
      "type": "event"
    },
    {
      "anonymous": false,
      "inputs": [
        {
          "indexed": false,
          "internalType": "uint256",
          "name": "_value",
          "type": "uint256"
        }
      ],
      "name": "ethWithdrawBorrower",
      "type": "event"
    },
    {
      "anonymous": false,
      "inputs": [
        {
          "indexed": false,
          "internalType": "uint256",
          "name": "_timeLimit",
          "type": "uint256"
        }
      ],
      "name": "supplyVaultNowOpen",
      "type": "event"
    },
    {
      "inputs": [],
      "name": "LP_deposit",
      "outputs": [],
      "stateMutability": "payable",
      "type": "function"
    },
    {
      "inputs": [],
      "name": "LPnfts",
      "outputs": [
        {
          "internalType": "contract ERC721",
          "name": "",
          "type": "address"
        }
      ],
      "stateMutability": "view",
      "type": "function"
    },
    {
      "inputs": [
        {
          "internalType": "string",
          "name": "_name",
          "type": "string"
        },
        {
          "internalType": "string",
          "name": "_symbol",
          "type": "string"
        }
      ],
      "name": "acceptLoanWithdrawLoan",
      "outputs": [],
      "stateMutability": "nonpayable",
      "type": "function"
    },
    {
      "inputs": [],
      "name": "admin",
      "outputs": [
        {
          "internalType": "address",
          "name": "",
          "type": "address"
        }
      ],
      "stateMutability": "view",
      "type": "function"
    },
    {
      "inputs": [],
      "name": "borrower",
      "outputs": [
        {
          "internalType": "address",
          "name": "",
          "type": "address"
        }
      ],
      "stateMutability": "view",
      "type": "function"
    },
    {
      "inputs": [],
      "name": "borrowerToken",
      "outputs": [
        {
          "internalType": "address",
          "name": "",
          "type": "address"
        }
      ],
      "stateMutability": "view",
      "type": "function"
    },
    {
      "inputs": [],
      "name": "currentIndex",
      "outputs": [
        {
          "internalType": "uint256",
          "name": "",
          "type": "uint256"
        }
      ],
      "stateMutability": "view",
      "type": "function"
    },
    {
      "inputs": [
        {
          "internalType": "uint256",
          "name": "_value",
          "type": "uint256"
        }
      ],
      "name": "depositTokens",
      "outputs": [],
      "stateMutability": "nonpayable",
      "type": "function"
    },
    {
      "inputs": [],
      "name": "endBorrowerAcceptWindow",
      "outputs": [
        {
          "internalType": "uint256",
          "name": "",
          "type": "uint256"
        }
      ],
      "stateMutability": "view",
      "type": "function"
    },
    {
      "inputs": [],
      "name": "endOfRaise",
      "outputs": [
        {
          "internalType": "uint256",
          "name": "",
          "type": "uint256"
        }
      ],
      "stateMutability": "view",
      "type": "function"
    },
    {
      "inputs": [],
      "name": "ethSupplied",
      "outputs": [
        {
          "internalType": "uint256",
          "name": "",
          "type": "uint256"
        }
      ],
      "stateMutability": "view",
      "type": "function"
    },
    {
      "inputs": [],
      "name": "loanAccepted",
      "outputs": [
        {
          "internalType": "bool",
          "name": "",
          "type": "bool"
        }
      ],
      "stateMutability": "view",
      "type": "function"
    },
    {
      "inputs": [],
      "name": "makeLoanPayment",
      "outputs": [],
      "stateMutability": "nonpayable",
      "type": "function"
    },
    {
      "inputs": [],
      "name": "numberBorrowerTokens",
      "outputs": [
        {
          "internalType": "uint256",
          "name": "",
          "type": "uint256"
        }
      ],
      "stateMutability": "view",
      "type": "function"
    },
    {
      "inputs": [],
      "name": "poolSupplyMax",
      "outputs": [
        {
          "internalType": "uint256",
          "name": "",
          "type": "uint256"
        }
      ],
      "stateMutability": "view",
      "type": "function"
    },
    {
      "inputs": [],
      "name": "reserveFactorMantissa",
      "outputs": [
        {
          "internalType": "uint256",
          "name": "",
          "type": "uint256"
        }
      ],
      "stateMutability": "view",
      "type": "function"
    },
    {
      "inputs": [],
      "name": "startOfRaise",
      "outputs": [
        {
          "internalType": "uint256",
          "name": "",
          "type": "uint256"
        }
      ],
      "stateMutability": "view",
      "type": "function"
    },
    {
      "inputs": [],
      "name": "valorDAORecibido",
      "outputs": [
        {
          "internalType": "uint256",
          "name": "",
          "type": "uint256"
        }
      ],
      "stateMutability": "view",
      "type": "function"
    },
    {
      "inputs": [],
      "name": "valorRetiroLPs",
      "outputs": [
        {
          "internalType": "uint256",
          "name": "",
          "type": "uint256"
        }
      ],
      "stateMutability": "view",
      "type": "function"
    },
    {
      "inputs": [],
      "name": "withdraw",
      "outputs": [],
      "stateMutability": "nonpayable",
      "type": "function"
    },
    {
      "inputs": [],
      "name": "withdrawFailedDeposits",
      "outputs": [],
      "stateMutability": "nonpayable",
      "type": "function"
    },
    {
      "inputs": [],
      "name": "withdrawLPtoken",
      "outputs": [],
      "stateMutability": "nonpayable",
      "type": "function"
    },
    {
      "inputs": [],
      "name": "withdrawTokensBorrower",
      "outputs": [],
      "stateMutability": "nonpayable",
      "type": "function"
    }
  ],
  "bytecode": "0x60a0604052600060085560006009556000600a553480156200002057600080fd5b50604051620055593803806200555983398181016040528101906200004691906200014e565b856003819055508460028190555082600160006101000a81548173ffffffffffffffffffffffffffffffffffffffff021916908373ffffffffffffffffffffffffffffffffffffffff16021790555081600060016101000a81548173ffffffffffffffffffffffffffffffffffffffff021916908373ffffffffffffffffffffffffffffffffffffffff16021790555083600b819055508073ffffffffffffffffffffffffffffffffffffffff1660808173ffffffffffffffffffffffffffffffffffffffff1660601b8152505050505050505062000256565b600081519050620001318162000222565b92915050565b60008151905062000148816200023c565b92915050565b60008060008060008060c087890312156200016857600080fd5b60006200017889828a0162000137565b96505060206200018b89828a0162000137565b95505060406200019e89828a0162000137565b9450506060620001b189828a0162000120565b9350506080620001c489828a0162000120565b92505060a0620001d789828a0162000120565b9150509295509295509295565b6000620001f182620001f8565b9050919050565b600073ffffffffffffffffffffffffffffffffffffffff82169050919050565b6000819050919050565b6200022d81620001e4565b81146200023957600080fd5b50565b620002478162000218565b81146200025357600080fd5b50565b60805160601c6152e4620002756000396000611a0c01526152e46000f3fe6080604052600436106200015e5760003560e01c806368c9b0f311620000c75780639eb708bc11620000795780639eb708bc146200042b578063a202b4d71462000445578063b8c36b11146200045f578063dd49756e146200048f578063ef819fae14620004bd578063f851a44014620004ed576200015e565b806368c9b0f3146200030d5780636c2d7994146200033d57806371126bec146200036d57806376888e27146200039d5780637df1f1b914620003cd5780639d410bf314620003fd576200015e565b80632972e92411620001215780632972e92414620002195780633ccfd60b146200023357806353d9ba8e146200024d57806359c25c25146200027d5780635c99410614620002ad57806365bacb4714620002dd576200015e565b80630f55508d146200016357806315978dbf146200016f578063173b990414620001895780632397294514620001b957806326987b6014620001e9575b600080fd5b6200016d6200051d565b005b3480156200017c57600080fd5b5062000187620008de565b005b3480156200019657600080fd5b50620001a1620008e0565b604051620001b09190620021e3565b60405180910390f35b348015620001c657600080fd5b50620001d1620008e6565b604051620001e0919062001f92565b60405180910390f35b348015620001f657600080fd5b5062000201620008f7565b604051620002109190620021e3565b60405180910390f35b3480156200022657600080fd5b5062000231620008fd565b005b3480156200024057600080fd5b506200024b62000a23565b005b3480156200025a57600080fd5b5062000265620011b7565b604051620002749190620021e3565b60405180910390f35b3480156200028a57600080fd5b5062000295620011bd565b604051620002a49190620021e3565b60405180910390f35b348015620002ba57600080fd5b50620002c5620011c3565b604051620002d49190620021e3565b60405180910390f35b348015620002ea57600080fd5b50620002f5620011c9565b604051620003049190620021e3565b60405180910390f35b3480156200031a57600080fd5b5062000325620011cf565b604051620003349190620021e3565b60405180910390f35b3480156200034a57600080fd5b5062000355620011d5565b60405162000364919062001f0b565b60405180910390f35b3480156200037a57600080fd5b5062000385620011fb565b60405162000394919062001faf565b60405180910390f35b348015620003aa57600080fd5b50620003b562001221565b604051620003c49190620021e3565b60405180910390f35b348015620003da57600080fd5b50620003e562001227565b604051620003f4919062001f0b565b60405180910390f35b3480156200040a57600080fd5b5062000429600480360381019062000423919062001b87565b6200124d565b005b3480156200043857600080fd5b5062000443620014a7565b005b3480156200045257600080fd5b506200045d620016be565b005b3480156200046c57600080fd5b506200047762001753565b604051620004869190620021e3565b60405180910390f35b3480156200049c57600080fd5b50620004bb6004803603810190620004b5919062001bfa565b62001759565b005b348015620004ca57600080fd5b50620004d562001a04565b604051620004e49190620021e3565b60405180910390f35b348015620004fa57600080fd5b506200050562001a0a565b60405162000514919062001f0b565b60405180910390f35b600160009054906101000a900473ffffffffffffffffffffffffffffffffffffffff1673ffffffffffffffffffffffffffffffffffffffff163373ffffffffffffffffffffffffffffffffffffffff161415620005b1576040517f08c379a0000000000000000000000000000000000000000000000000000000008152600401620005a8906200208f565b60405180910390fd5b600042905060055481118015620005c9575060045481105b6200060b576040517f08c379a0000000000000000000000000000000000000000000000000000000008152600401620006029062002139565b60405180910390fd5b6000600d60003373ffffffffffffffffffffffffffffffffffffffff1673ffffffffffffffffffffffffffffffffffffffff168152602001908152602001600020541462000690576040517f08c379a000000000000000000000000000000000000000000000000000000000815260040162000687906200219f565b60405180910390fd5b34600d60003373ffffffffffffffffffffffffffffffffffffffff1673ffffffffffffffffffffffffffffffffffffffff1681526020019081526020016000206000828254620006e19190620022b3565b925050819055506000600e80549050146200079557600034600e600a6000815480929190620007109062002438565b91905055815481106200074c577f4e487b7100000000000000000000000000000000000000000000000000000000600052603260045260246000fd5b9060005260206000200154620007639190620022b3565b9050600e81908060018154018082558091505060019003906000526020600020016000909190919091505550620007bf565b600e3490806001815401808255809150506001900390600052602060002001600090919091909150555b7fa711d19e52eb41c47e2aa371b9b08c4d54c89b3aa2b93c050dc48f59d6d490a3600e600a54815481106200081d577f4e487b7100000000000000000000000000000000000000000000000000000000600052603260045260246000fd5b9060005260206000200154604051620008379190620021e3565b60405180910390a1600a54600c60003373ffffffffffffffffffffffffffffffffffffffff1673ffffffffffffffffffffffffffffffffffffffff168152602001908152602001600020819055507fe1fffcc4923d04b559f4d29a8bfc6cda04eb5b0d3c460751c2402c5c5cc9109c3334604051620008b892919062001f65565b60405180910390a13460076000828254620008d49190620022b3565b9250508190555050565b565b600b5481565b60008054906101000a900460ff1681565b600a5481565b60008054906101000a900460ff16156200094e576040517f08c379a0000000000000000000000000000000000000000000000000000000008152600401620009459062002117565b60405180910390fd5b6000600d60003373ffffffffffffffffffffffffffffffffffffffff1673ffffffffffffffffffffffffffffffffffffffff168152602001908152602001600020541415620009d4576040517f08c379a0000000000000000000000000000000000000000000000000000000008152600401620009cb906200215b565b60405180910390fd5b6000429050600654811162000a20576040517f08c379a000000000000000000000000000000000000000000000000000000000815260040162000a179062002139565b60405180910390fd5b50565b6000600c60003373ffffffffffffffffffffffffffffffffffffffff1673ffffffffffffffffffffffffffffffffffffffff1681526020019081526020016000205490506000808214801562000acf575060095460085462000a86919062002310565b600e838154811062000ac1577f4e487b7100000000000000000000000000000000000000000000000000000000600052603260045260246000fd5b906000526020600020015411155b905060006001905060008084111562000c405760095460085462000af4919062002310565b600e60018662000b05919062002310565b8154811062000b3d577f4e487b7100000000000000000000000000000000000000000000000000000000600052603260045260246000fd5b9060005260206000200154109150600d60003373ffffffffffffffffffffffffffffffffffffffff1673ffffffffffffffffffffffffffffffffffffffff16815260200190815260200160002054600e60018662000b9c919062002310565b8154811062000bd4577f4e487b7100000000000000000000000000000000000000000000000000000000600052603260045260246000fd5b9060005260206000200154600e868154811062000c1a577f4e487b7100000000000000000000000000000000000000000000000000000000600052603260045260246000fd5b906000526020600020015462000c31919062002310565b62000c3d919062002310565b90505b818062000c4a5750825b62000c8c576040517f08c379a000000000000000000000000000000000000000000000000000000000815260040162000c83906200206d565b60405180910390fd5b6000600d60003373ffffffffffffffffffffffffffffffffffffffff1673ffffffffffffffffffffffffffffffffffffffff168152602001908152602001600020541162000d11576040517f08c379a000000000000000000000000000000000000000000000000000000000815260040162000d0890620020d3565b60405180910390fd5b60008085111562000f195760085482600e60018862000d31919062002310565b8154811062000d69577f4e487b7100000000000000000000000000000000000000000000000000000000600052603260045260246000fd5b906000526020600020015462000d809190620022b3565b1062000dc3576040517f08c379a000000000000000000000000000000000000000000000000000000000815260040162000dba9062002007565b60405180910390fd5b600d60003373ffffffffffffffffffffffffffffffffffffffff1673ffffffffffffffffffffffffffffffffffffffff16815260200190815260200160002054600e60018762000e14919062002310565b8154811062000e4c577f4e487b7100000000000000000000000000000000000000000000000000000000600052603260045260246000fd5b906000526020600020015460085462000e66919062002310565b1062000eb257600d60003373ffffffffffffffffffffffffffffffffffffffff1673ffffffffffffffffffffffffffffffffffffffff1681526020019081526020016000205462000f16565b600e60018662000ec3919062002310565b8154811062000efb577f4e487b7100000000000000000000000000000000000000000000000000000000600052603260045260246000fd5b906000526020600020015460085462000f15919062002310565b5b90505b600080861462000f2a578162000f6b565b600d60003373ffffffffffffffffffffffffffffffffffffffff1673ffffffffffffffffffffffffffffffffffffffff168152602001908152602001600020545b905060085481111562000f7d57600080fd5b80600d60003373ffffffffffffffffffffffffffffffffffffffff1673ffffffffffffffffffffffffffffffffffffffff168152602001908152602001600020600082825462000fce919062002310565b925050819055507f884edad9ce6fa2440d8a54cc123490eb96d2768479d49ff9c7366125a942436433826040516200100892919062001f65565b60405180910390a17f884edad9ce6fa2440d8a54cc123490eb96d2768479d49ff9c7366125a942436433600d60003373ffffffffffffffffffffffffffffffffffffffff1673ffffffffffffffffffffffffffffffffffffffff168152602001908152602001600020546040516200108292919062001f65565b60405180910390a1600086111562001123577f884edad9ce6fa2440d8a54cc123490eb96d2768479d49ff9c7366125a942436433600e600189620010c7919062002310565b81548110620010ff577f4e487b7100000000000000000000000000000000000000000000000000000000600052603260045260246000fd5b90600052602060002001546040516200111a92919062001f65565b60405180910390a15b600081111562001176573373ffffffffffffffffffffffffffffffffffffffff166108fc829081150290604051600060405180830381858888f1935050505015801562001174573d6000803e3d6000fd5b505b7f47bb89f0fc234008e53c79bc3e3dab90e27502d1380a4b3cc35038d57fa03d2a47604051620011a79190620021e3565b60405180910390a1505050505050565b60055481565b60085481565b60025481565b60075481565b60095481565b600060019054906101000a900473ffffffffffffffffffffffffffffffffffffffff1681565b600f60009054906101000a900473ffffffffffffffffffffffffffffffffffffffff1681565b60065481565b600160009054906101000a900473ffffffffffffffffffffffffffffffffffffffff1681565b600160009054906101000a900473ffffffffffffffffffffffffffffffffffffffff1673ffffffffffffffffffffffffffffffffffffffff163373ffffffffffffffffffffffffffffffffffffffff1614620012e0576040517f08c379a0000000000000000000000000000000000000000000000000000000008152600401620012d790620020f5565b60405180910390fd5b600042905060045481118015620012f8575060065481105b6200133a576040517f08c379a0000000000000000000000000000000000000000000000000000000008152600401620013319062002139565b60405180910390fd5b60008054906101000a900460ff16156200138b576040517f08c379a000000000000000000000000000000000000000000000000000000000815260040162001382906200217d565b60405180910390fd5b60016000806101000a81548160ff02191690831515021790555060003373ffffffffffffffffffffffffffffffffffffffff16600754604051620013cf9062001ef4565b60006040518083038185875af1925050503d80600081146200140e576040519150601f19603f3d011682016040523d82523d6000602084013e62001413565b606091505b50509050806200145a576040517f08c379a0000000000000000000000000000000000000000000000000000000008152600401620014519062002029565b60405180910390fd5b7f7c046c1724795ce324ef285dee325dda79387db88db5a1f7714988b13a9b5ecc6007546040516200148d9190620021e3565b60405180910390a1620014a1848462001a2e565b50505050565b60008054906101000a900460ff1615620014f8576040517f08c379a0000000000000000000000000000000000000000000000000000000008152600401620014ef906200204b565b60405180910390fd5b6000600d60003373ffffffffffffffffffffffffffffffffffffffff1673ffffffffffffffffffffffffffffffffffffffff1681526020019081526020016000205414156200157e576040517f08c379a000000000000000000000000000000000000000000000000000000000815260040162001575906200215b565b60405180910390fd5b6000600d60003373ffffffffffffffffffffffffffffffffffffffff1673ffffffffffffffffffffffffffffffffffffffff1681526020019081526020016000205490506000600d60003373ffffffffffffffffffffffffffffffffffffffff1673ffffffffffffffffffffffffffffffffffffffff1681526020019081526020016000208190555060003373ffffffffffffffffffffffffffffffffffffffff16826040516200162f9062001ef4565b60006040518083038185875af1925050503d80600081146200166e576040519150601f19603f3d011682016040523d82523d6000602084013e62001673565b606091505b5050905080620016ba576040517f08c379a0000000000000000000000000000000000000000000000000000000008152600401620016b19062002029565b60405180910390fd5b5050565b600160009054906101000a900473ffffffffffffffffffffffffffffffffffffffff1673ffffffffffffffffffffffffffffffffffffffff163373ffffffffffffffffffffffffffffffffffffffff161462001751576040517f08c379a00000000000000000000000000000000000000000000000000000000081526004016200174890620020f5565b60405180910390fd5b565b60035481565b600160009054906101000a900473ffffffffffffffffffffffffffffffffffffffff1673ffffffffffffffffffffffffffffffffffffffff163373ffffffffffffffffffffffffffffffffffffffff1614620017ec576040517f08c379a0000000000000000000000000000000000000000000000000000000008152600401620017e390620020f5565b60405180910390fd5b600254811462001833576040517f08c379a00000000000000000000000000000000000000000000000000000000081526004016200182a90620020b1565b60405180910390fd5b60008060019054906101000a900473ffffffffffffffffffffffffffffffffffffffff1673ffffffffffffffffffffffffffffffffffffffff166323b872dd600160009054906101000a900473ffffffffffffffffffffffffffffffffffffffff1630856040518463ffffffff1660e01b8152600401620018b79392919062001f28565b602060405180830381600087803b158015620018d257600080fd5b505af1158015620018e7573d6000803e3d6000fd5b505050506040513d601f19601f820116820180604052508101906200190d919062001b5b565b90508062001952576040517f08c379a00000000000000000000000000000000000000000000000000000000081526004016200194990620021c1565b60405180910390fd5b7f19893fa936723849d863fc33b53718b15653d646e3b6c4d69baacfa0bc644c4082306040516200198592919062002200565b60405180910390a14260058190555062015180600554620019a79190620022b3565b600481905550613840600454620019bf9190620022b3565b6006819055507f427ab1ad6fb8a2e156dc3f43eabced6adaf640ce9def138f05e1d5210b8e1ea9600454604051620019f89190620021e3565b60405180910390a15050565b60045481565b7f000000000000000000000000000000000000000000000000000000000000000081565b818160405162001a3e9062001aad565b62001a4b92919062001fcc565b604051809103906000f08015801562001a68573d6000803e3d6000fd5b50600f60006101000a81548173ffffffffffffffffffffffffffffffffffffffff021916908373ffffffffffffffffffffffffffffffffffffffff1602179055505050565b612b44806200276b83390190565b600062001ad262001acc8462002256565b6200222d565b90508281526020810184848401111562001aeb57600080fd5b62001af8848285620023bd565b509392505050565b60008151905062001b118162002736565b92915050565b600082601f83011262001b2957600080fd5b813562001b3b84826020860162001abb565b91505092915050565b60008135905062001b558162002750565b92915050565b60006020828403121562001b6e57600080fd5b600062001b7e8482850162001b00565b91505092915050565b6000806040838503121562001b9b57600080fd5b600083013567ffffffffffffffff81111562001bb657600080fd5b62001bc48582860162001b17565b925050602083013567ffffffffffffffff81111562001be257600080fd5b62001bf08582860162001b17565b9150509250929050565b60006020828403121562001c0d57600080fd5b600062001c1d8482850162001b44565b91505092915050565b62001c31816200234b565b82525050565b62001c42816200235f565b82525050565b62001c538162002395565b82525050565b600062001c66826200228c565b62001c728185620022a2565b935062001c84818560208601620023cc565b62001c8f81620024e4565b840191505092915050565b600062001ca9601383620022a2565b915062001cb682620024f5565b602082019050919050565b600062001cd0601283620022a2565b915062001cdd826200251e565b602082019050919050565b600062001cf7601483620022a2565b915062001d048262002547565b602082019050919050565b600062001d1e600c83620022a2565b915062001d2b8262002570565b602082019050919050565b600062001d45601983620022a2565b915062001d528262002599565b602082019050919050565b600062001d6c601983620022a2565b915062001d7982620025c2565b602082019050919050565b600062001d93601283620022a2565b915062001da082620025eb565b602082019050919050565b600062001dba601183620022a2565b915062001dc78262002614565b602082019050919050565b600062001de1601883620022a2565b915062001dee826200263d565b602082019050919050565b600062001e08601983620022a2565b915062001e158262002666565b602082019050919050565b600062001e2f600f83620022a2565b915062001e3c826200268f565b602082019050919050565b600062001e5660008362002297565b915062001e6382620026b8565b600082019050919050565b600062001e7d601c83620022a2565b915062001e8a82620026bb565b602082019050919050565b600062001ea4601183620022a2565b915062001eb182620026e4565b602082019050919050565b600062001ecb601683620022a2565b915062001ed8826200270d565b602082019050919050565b62001eee816200238b565b82525050565b600062001f018262001e47565b9150819050919050565b600060208201905062001f22600083018462001c26565b92915050565b600060608201905062001f3f600083018662001c26565b62001f4e602083018562001c26565b62001f5d604083018462001ee3565b949350505050565b600060408201905062001f7c600083018562001c26565b62001f8b602083018462001ee3565b9392505050565b600060208201905062001fa9600083018462001c37565b92915050565b600060208201905062001fc6600083018462001c48565b92915050565b6000604082019050818103600083015262001fe8818562001c59565b9050818103602083015262001ffe818462001c59565b90509392505050565b60006020820190508181036000830152620020228162001c9a565b9050919050565b60006020820190508181036000830152620020448162001cc1565b9050919050565b60006020820190508181036000830152620020668162001ce8565b9050919050565b60006020820190508181036000830152620020888162001d0f565b9050919050565b60006020820190508181036000830152620020aa8162001d36565b9050919050565b60006020820190508181036000830152620020cc8162001d5d565b9050919050565b60006020820190508181036000830152620020ee8162001d84565b9050919050565b60006020820190508181036000830152620021108162001dab565b9050919050565b60006020820190508181036000830152620021328162001dd2565b9050919050565b60006020820190508181036000830152620021548162001df9565b9050919050565b60006020820190508181036000830152620021768162001e20565b9050919050565b60006020820190508181036000830152620021988162001e6e565b9050919050565b60006020820190508181036000830152620021ba8162001e95565b9050919050565b60006020820190508181036000830152620021dc8162001ebc565b9050919050565b6000602082019050620021fa600083018462001ee3565b92915050565b600060408201905062002217600083018562001ee3565b62002226602083018462001c26565b9392505050565b6000620022396200224c565b905062002247828262002402565b919050565b6000604051905090565b600067ffffffffffffffff821115620022745762002273620024b5565b5b6200227f82620024e4565b9050602081019050919050565b600081519050919050565b600081905092915050565b600082825260208201905092915050565b6000620022c0826200238b565b9150620022cd836200238b565b9250827fffffffffffffffffffffffffffffffffffffffffffffffffffffffffffffffff0382111562002305576200230462002486565b5b828201905092915050565b60006200231d826200238b565b91506200232a836200238b565b92508282101562002340576200233f62002486565b5b828203905092915050565b600062002358826200236b565b9050919050565b60008115159050919050565b600073ffffffffffffffffffffffffffffffffffffffff82169050919050565b6000819050919050565b6000620023a282620023a9565b9050919050565b6000620023b6826200236b565b9050919050565b82818337600083830152505050565b60005b83811015620023ec578082015181840152602081019050620023cf565b83811115620023fc576000848401525b50505050565b6200240d82620024e4565b810181811067ffffffffffffffff821117156200242f576200242e620024b5565b5b80604052505050565b600062002445826200238b565b91507fffffffffffffffffffffffffffffffffffffffffffffffffffffffffffffffff8214156200247b576200247a62002486565b5b600182019050919050565b7f4e487b7100000000000000000000000000000000000000000000000000000000600052601160045260246000fd5b7f4e487b7100000000000000000000000000000000000000000000000000000000600052604160045260246000fd5b6000601f19601f8301169050919050565b7f63616e2774207769746864726177206d6f726500000000000000000000000000600082015250565b7f544f4747453a204641494c45445f53454e440000000000000000000000000000600082015250565b7f544f4747453a204c4f414e5f4143434550544544000000000000000000000000600082015250565b7f6e6f7420656c696769626c650000000000000000000000000000000000000000600082015250565b7f544f4747453a20424f52524f5745525f464f5242494444454e00000000000000600082015250565b7f544f4747453a204e4f545f415050524f5645445f56414c554500000000000000600082015250565b7f696e73756666696369656e742046756e64730000000000000000000000000000600082015250565b7f544f4747453a2070726f68696269746564000000000000000000000000000000600082015250565b7f544f4747453a204c4f414e5f4e4f545f41434345505445440000000000000000600082015250565b7f544f4747453a204f55545f4f465f54494d455f57494e444f5700000000000000600082015250565b7f544f4747453a204e4f5f56414c55450000000000000000000000000000000000600082015250565b50565b7f544f4747453a204c4f414e5f414c52454144595f414343455054454400000000600082015250565b7f616c7265616479206465706f7369746564000000000000000000000000000000600082015250565b7f544f4747453a205452414e534645525f4641494c454400000000000000000000600082015250565b62002741816200235f565b81146200274d57600080fd5b50565b6200275b816200238b565b81146200276757600080fd5b5056fe60806040523480156200001157600080fd5b5060405162002b4438038062002b44833981810160405281019062000037919062000197565b818181600090805190602001906200005192919062000075565b5080600190805190602001906200006a92919062000075565b50505050506200037a565b82805462000083906200029f565b90600052602060002090601f016020900481019282620000a75760008555620000f3565b82601f10620000c257805160ff1916838001178555620000f3565b82800160010185558215620000f3579182015b82811115620000f2578251825591602001919060010190620000d5565b5b50905062000102919062000106565b5090565b5b808211156200012157600081600090555060010162000107565b5090565b60006200013c620001368462000233565b6200020a565b9050828152602081018484840111156200015557600080fd5b6200016284828562000269565b509392505050565b600082601f8301126200017c57600080fd5b81516200018e84826020860162000125565b91505092915050565b60008060408385031215620001ab57600080fd5b600083015167ffffffffffffffff811115620001c657600080fd5b620001d4858286016200016a565b925050602083015167ffffffffffffffff811115620001f257600080fd5b62000200858286016200016a565b9150509250929050565b60006200021662000229565b9050620002248282620002d5565b919050565b6000604051905090565b600067ffffffffffffffff8211156200025157620002506200033a565b5b6200025c8262000369565b9050602081019050919050565b60005b83811015620002895780820151818401526020810190506200026c565b8381111562000299576000848401525b50505050565b60006002820490506001821680620002b857607f821691505b60208210811415620002cf57620002ce6200030b565b5b50919050565b620002e08262000369565b810181811067ffffffffffffffff821117156200030257620003016200033a565b5b80604052505050565b7f4e487b7100000000000000000000000000000000000000000000000000000000600052602260045260246000fd5b7f4e487b7100000000000000000000000000000000000000000000000000000000600052604160045260246000fd5b6000601f19601f8301169050919050565b6127ba806200038a6000396000f3fe608060405234801561001057600080fd5b50600436106100ea5760003560e01c80636352211e1161008c578063a22cb46511610066578063a22cb4651461025b578063b88d4fde14610277578063c87b56dd14610293578063e985e9c5146102c3576100ea565b80636352211e146101dd57806370a082311461020d57806395d89b411461023d576100ea565b8063095ea7b3116100c8578063095ea7b31461016d57806323b872dd1461018957806340c10f19146101a557806342842e0e146101c1576100ea565b806301ffc9a7146100ef57806306fdde031461011f578063081812fc1461013d575b600080fd5b61010960048036038101906101049190611950565b6102f3565b6040516101169190611d33565b60405180910390f35b6101276103d5565b6040516101349190611d4e565b60405180910390f35b610157600480360381019061015291906119a2565b610467565b6040516101649190611ccc565b60405180910390f35b61018760048036038101906101829190611914565b6104ec565b005b6101a3600480360381019061019e919061180e565b610604565b005b6101bf60048036038101906101ba9190611914565b610664565b005b6101db60048036038101906101d6919061180e565b610702565b005b6101f760048036038101906101f291906119a2565b610722565b6040516102049190611ccc565b60405180910390f35b610227600480360381019061022291906117a9565b6107d4565b6040516102349190611f50565b60405180910390f35b61024561088c565b6040516102529190611d4e565b60405180910390f35b610275600480360381019061027091906118d8565b61091e565b005b610291600480360381019061028c919061185d565b610934565b005b6102ad60048036038101906102a891906119a2565b610996565b6040516102ba9190611d4e565b60405180910390f35b6102dd60048036038101906102d891906117d2565b610a3d565b6040516102ea9190611d33565b60405180910390f35b60007f80ac58cd000000000000000000000000000000000000000000000000000000007bffffffffffffffffffffffffffffffffffffffffffffffffffffffff1916827bffffffffffffffffffffffffffffffffffffffffffffffffffffffff191614806103be57507f5b5e139f000000000000000000000000000000000000000000000000000000007bffffffffffffffffffffffffffffffffffffffffffffffffffffffff1916827bffffffffffffffffffffffffffffffffffffffffffffffffffffffff1916145b806103ce57506103cd82610ad1565b5b9050919050565b6060600080546103e490612175565b80601f016020809104026020016040519081016040528092919081815260200182805461041090612175565b801561045d5780601f106104325761010080835404028352916020019161045d565b820191906000526020600020905b81548152906001019060200180831161044057829003601f168201915b5050505050905090565b600061047282610b3b565b6104b1576040517f08c379a00000000000000000000000000000000000000000000000000000000081526004016104a890611eb0565b60405180910390fd5b6004600083815260200190815260200160002060009054906101000a900473ffffffffffffffffffffffffffffffffffffffff169050919050565b60006104f782610722565b90508073ffffffffffffffffffffffffffffffffffffffff168373ffffffffffffffffffffffffffffffffffffffff161415610568576040517f08c379a000000000000000000000000000000000000000000000000000000000815260040161055f90611ef0565b60405180910390fd5b8073ffffffffffffffffffffffffffffffffffffffff16610587610ba7565b73ffffffffffffffffffffffffffffffffffffffff1614806105b657506105b5816105b0610ba7565b610a3d565b5b6105f5576040517f08c379a00000000000000000000000000000000000000000000000000000000081526004016105ec90611e30565b60405180910390fd5b6105ff8383610baf565b505050565b61061561060f610ba7565b82610c68565b610654576040517f08c379a000000000000000000000000000000000000000000000000000000000815260040161064b90611f30565b60405180910390fd5b61065f838383610d46565b505050565b600660009054906101000a900473ffffffffffffffffffffffffffffffffffffffff1673ffffffffffffffffffffffffffffffffffffffff163373ffffffffffffffffffffffffffffffffffffffff16146106f4576040517f08c379a00000000000000000000000000000000000000000000000000000000081526004016106eb90611f10565b60405180910390fd5b6106fe8282610fad565b5050565b61071d83838360405180602001604052806000815250610934565b505050565b6000806002600084815260200190815260200160002060009054906101000a900473ffffffffffffffffffffffffffffffffffffffff169050600073ffffffffffffffffffffffffffffffffffffffff168173ffffffffffffffffffffffffffffffffffffffff1614156107cb576040517f08c379a00000000000000000000000000000000000000000000000000000000081526004016107c290611e70565b60405180910390fd5b80915050919050565b60008073ffffffffffffffffffffffffffffffffffffffff168273ffffffffffffffffffffffffffffffffffffffff161415610845576040517f08c379a000000000000000000000000000000000000000000000000000000000815260040161083c90611e50565b60405180910390fd5b600360008373ffffffffffffffffffffffffffffffffffffffff1673ffffffffffffffffffffffffffffffffffffffff168152602001908152602001600020549050919050565b60606001805461089b90612175565b80601f01602080910402602001604051908101604052809291908181526020018280546108c790612175565b80156109145780601f106108e957610100808354040283529160200191610914565b820191906000526020600020905b8154815290600101906020018083116108f757829003601f168201915b5050505050905090565b610930610929610ba7565b8383611187565b5050565b61094561093f610ba7565b83610c68565b610984576040517f08c379a000000000000000000000000000000000000000000000000000000000815260040161097b90611f30565b60405180910390fd5b610990848484846112f4565b50505050565b60606109a182610b3b565b6109e0576040517f08c379a00000000000000000000000000000000000000000000000000000000081526004016109d790611ed0565b60405180910390fd5b60006109ea611350565b90506000815111610a0a5760405180602001604052806000815250610a35565b80610a1484611367565b604051602001610a25929190611ca8565b6040516020818303038152906040525b915050919050565b6000600560008473ffffffffffffffffffffffffffffffffffffffff1673ffffffffffffffffffffffffffffffffffffffff16815260200190815260200160002060008373ffffffffffffffffffffffffffffffffffffffff1673ffffffffffffffffffffffffffffffffffffffff16815260200190815260200160002060009054906101000a900460ff16905092915050565b60007f01ffc9a7000000000000000000000000000000000000000000000000000000007bffffffffffffffffffffffffffffffffffffffffffffffffffffffff1916827bffffffffffffffffffffffffffffffffffffffffffffffffffffffff1916149050919050565b60008073ffffffffffffffffffffffffffffffffffffffff166002600084815260200190815260200160002060009054906101000a900473ffffffffffffffffffffffffffffffffffffffff1673ffffffffffffffffffffffffffffffffffffffff1614159050919050565b600033905090565b816004600083815260200190815260200160002060006101000a81548173ffffffffffffffffffffffffffffffffffffffff021916908373ffffffffffffffffffffffffffffffffffffffff160217905550808273ffffffffffffffffffffffffffffffffffffffff16610c2283610722565b73ffffffffffffffffffffffffffffffffffffffff167f8c5be1e5ebec7d5bd14f71427d1e84f3dd0314c0f7b2291e5b200ac8c7c3b92560405160405180910390a45050565b6000610c7382610b3b565b610cb2576040517f08c379a0000000000000000000000000000000000000000000000000000000008152600401610ca990611e10565b60405180910390fd5b6000610cbd83610722565b90508073ffffffffffffffffffffffffffffffffffffffff168473ffffffffffffffffffffffffffffffffffffffff161480610d2c57508373ffffffffffffffffffffffffffffffffffffffff16610d1484610467565b73ffffffffffffffffffffffffffffffffffffffff16145b80610d3d5750610d3c8185610a3d565b5b91505092915050565b8273ffffffffffffffffffffffffffffffffffffffff16610d6682610722565b73ffffffffffffffffffffffffffffffffffffffff1614610dbc576040517f08c379a0000000000000000000000000000000000000000000000000000000008152600401610db390611d90565b60405180910390fd5b600073ffffffffffffffffffffffffffffffffffffffff168273ffffffffffffffffffffffffffffffffffffffff161415610e2c576040517f08c379a0000000000000000000000000000000000000000000000000000000008152600401610e2390611dd0565b60405180910390fd5b610e37838383611514565b610e42600082610baf565b6001600360008573ffffffffffffffffffffffffffffffffffffffff1673ffffffffffffffffffffffffffffffffffffffff1681526020019081526020016000206000828254610e92919061208b565b925050819055506001600360008473ffffffffffffffffffffffffffffffffffffffff1673ffffffffffffffffffffffffffffffffffffffff1681526020019081526020016000206000828254610ee99190612004565b92505081905550816002600083815260200190815260200160002060006101000a81548173ffffffffffffffffffffffffffffffffffffffff021916908373ffffffffffffffffffffffffffffffffffffffff160217905550808273ffffffffffffffffffffffffffffffffffffffff168473ffffffffffffffffffffffffffffffffffffffff167fddf252ad1be2c89b69c2b068fc378daa952ba7f163c4a11628f55a4df523b3ef60405160405180910390a4610fa8838383611519565b505050565b600073ffffffffffffffffffffffffffffffffffffffff168273ffffffffffffffffffffffffffffffffffffffff16141561101d576040517f08c379a000000000000000000000000000000000000000000000000000000000815260040161101490611e90565b60405180910390fd5b61102681610b3b565b15611066576040517f08c379a000000000000000000000000000000000000000000000000000000000815260040161105d90611db0565b60405180910390fd5b61107260008383611514565b6001600360008473ffffffffffffffffffffffffffffffffffffffff1673ffffffffffffffffffffffffffffffffffffffff16815260200190815260200160002060008282546110c29190612004565b92505081905550816002600083815260200190815260200160002060006101000a81548173ffffffffffffffffffffffffffffffffffffffff021916908373ffffffffffffffffffffffffffffffffffffffff160217905550808273ffffffffffffffffffffffffffffffffffffffff16600073ffffffffffffffffffffffffffffffffffffffff167fddf252ad1be2c89b69c2b068fc378daa952ba7f163c4a11628f55a4df523b3ef60405160405180910390a461118360008383611519565b5050565b8173ffffffffffffffffffffffffffffffffffffffff168373ffffffffffffffffffffffffffffffffffffffff1614156111f6576040517f08c379a00000000000000000000000000000000000000000000000000000000081526004016111ed90611df0565b60405180910390fd5b80600560008573ffffffffffffffffffffffffffffffffffffffff1673ffffffffffffffffffffffffffffffffffffffff16815260200190815260200160002060008473ffffffffffffffffffffffffffffffffffffffff1673ffffffffffffffffffffffffffffffffffffffff16815260200190815260200160002060006101000a81548160ff0219169083151502179055508173ffffffffffffffffffffffffffffffffffffffff168373ffffffffffffffffffffffffffffffffffffffff167f17307eab39ab6107e8899845ad3d59bd9653f200f220920489ca2b5937696c31836040516112e79190611d33565b60405180910390a3505050565b6112ff848484610d46565b61130b8484848461151e565b61134a576040517f08c379a000000000000000000000000000000000000000000000000000000000815260040161134190611d70565b60405180910390fd5b50505050565b606060405180602001604052806000815250905090565b606060008214156113af576040518060400160405280600181526020017f3000000000000000000000000000000000000000000000000000000000000000815250905061150f565b600082905060005b600082146113e15780806113ca906121d8565b915050600a826113da919061205a565b91506113b7565b60008167ffffffffffffffff811115611423577f4e487b7100000000000000000000000000000000000000000000000000000000600052604160045260246000fd5b6040519080825280601f01601f1916602001820160405280156114555781602001600182028036833780820191505090505b5090505b600085146115085760018261146e919061208b565b9150600a8561147d9190612221565b60306114899190612004565b60f81b8183815181106114c5577f4e487b7100000000000000000000000000000000000000000000000000000000600052603260045260246000fd5b60200101907effffffffffffffffffffffffffffffffffffffffffffffffffffffffffffff1916908160001a905350600a85611501919061205a565b9450611459565b8093505050505b919050565b505050565b505050565b600061153f8473ffffffffffffffffffffffffffffffffffffffff166116b5565b156116a8578373ffffffffffffffffffffffffffffffffffffffff1663150b7a02611568610ba7565b8786866040518563ffffffff1660e01b815260040161158a9493929190611ce7565b602060405180830381600087803b1580156115a457600080fd5b505af19250505080156115d557506040513d601f19601f820116820180604052508101906115d29190611979565b60015b611658573d8060008114611605576040519150601f19603f3d011682016040523d82523d6000602084013e61160a565b606091505b50600081511415611650576040517f08c379a000000000000000000000000000000000000000000000000000000000815260040161164790611d70565b60405180910390fd5b805181602001fd5b63150b7a0260e01b7bffffffffffffffffffffffffffffffffffffffffffffffffffffffff1916817bffffffffffffffffffffffffffffffffffffffffffffffffffffffff1916149150506116ad565b600190505b949350505050565b6000808273ffffffffffffffffffffffffffffffffffffffff163b119050919050565b60006116eb6116e684611f90565b611f6b565b90508281526020810184848401111561170357600080fd5b61170e848285612133565b509392505050565b60008135905061172581612728565b92915050565b60008135905061173a8161273f565b92915050565b60008135905061174f81612756565b92915050565b60008151905061176481612756565b92915050565b600082601f83011261177b57600080fd5b813561178b8482602086016116d8565b91505092915050565b6000813590506117a38161276d565b92915050565b6000602082840312156117bb57600080fd5b60006117c984828501611716565b91505092915050565b600080604083850312156117e557600080fd5b60006117f385828601611716565b925050602061180485828601611716565b9150509250929050565b60008060006060848603121561182357600080fd5b600061183186828701611716565b935050602061184286828701611716565b925050604061185386828701611794565b9150509250925092565b6000806000806080858703121561187357600080fd5b600061188187828801611716565b945050602061189287828801611716565b93505060406118a387828801611794565b925050606085013567ffffffffffffffff8111156118c057600080fd5b6118cc8782880161176a565b91505092959194509250565b600080604083850312156118eb57600080fd5b60006118f985828601611716565b925050602061190a8582860161172b565b9150509250929050565b6000806040838503121561192757600080fd5b600061193585828601611716565b925050602061194685828601611794565b9150509250929050565b60006020828403121561196257600080fd5b600061197084828501611740565b91505092915050565b60006020828403121561198b57600080fd5b600061199984828501611755565b91505092915050565b6000602082840312156119b457600080fd5b60006119c284828501611794565b91505092915050565b6119d4816120bf565b82525050565b6119e3816120d1565b82525050565b60006119f482611fc1565b6119fe8185611fd7565b9350611a0e818560208601612142565b611a178161230e565b840191505092915050565b6000611a2d82611fcc565b611a378185611fe8565b9350611a47818560208601612142565b611a508161230e565b840191505092915050565b6000611a6682611fcc565b611a708185611ff9565b9350611a80818560208601612142565b80840191505092915050565b6000611a99603283611fe8565b9150611aa48261231f565b604082019050919050565b6000611abc602583611fe8565b9150611ac78261236e565b604082019050919050565b6000611adf601c83611fe8565b9150611aea826123bd565b602082019050919050565b6000611b02602483611fe8565b9150611b0d826123e6565b604082019050919050565b6000611b25601983611fe8565b9150611b3082612435565b602082019050919050565b6000611b48602c83611fe8565b9150611b538261245e565b604082019050919050565b6000611b6b603883611fe8565b9150611b76826124ad565b604082019050919050565b6000611b8e602a83611fe8565b9150611b99826124fc565b604082019050919050565b6000611bb1602983611fe8565b9150611bbc8261254b565b604082019050919050565b6000611bd4602083611fe8565b9150611bdf8261259a565b602082019050919050565b6000611bf7602c83611fe8565b9150611c02826125c3565b604082019050919050565b6000611c1a602f83611fe8565b9150611c2582612612565b604082019050919050565b6000611c3d602183611fe8565b9150611c4882612661565b604082019050919050565b6000611c60601683611fe8565b9150611c6b826126b0565b602082019050919050565b6000611c83603183611fe8565b9150611c8e826126d9565b604082019050919050565b611ca281612129565b82525050565b6000611cb48285611a5b565b9150611cc08284611a5b565b91508190509392505050565b6000602082019050611ce160008301846119cb565b92915050565b6000608082019050611cfc60008301876119cb565b611d0960208301866119cb565b611d166040830185611c99565b8181036060830152611d2881846119e9565b905095945050505050565b6000602082019050611d4860008301846119da565b92915050565b60006020820190508181036000830152611d688184611a22565b905092915050565b60006020820190508181036000830152611d8981611a8c565b9050919050565b60006020820190508181036000830152611da981611aaf565b9050919050565b60006020820190508181036000830152611dc981611ad2565b9050919050565b60006020820190508181036000830152611de981611af5565b9050919050565b60006020820190508181036000830152611e0981611b18565b9050919050565b60006020820190508181036000830152611e2981611b3b565b9050919050565b60006020820190508181036000830152611e4981611b5e565b9050919050565b60006020820190508181036000830152611e6981611b81565b9050919050565b60006020820190508181036000830152611e8981611ba4565b9050919050565b60006020820190508181036000830152611ea981611bc7565b9050919050565b60006020820190508181036000830152611ec981611bea565b9050919050565b60006020820190508181036000830152611ee981611c0d565b9050919050565b60006020820190508181036000830152611f0981611c30565b9050919050565b60006020820190508181036000830152611f2981611c53565b9050919050565b60006020820190508181036000830152611f4981611c76565b9050919050565b6000602082019050611f656000830184611c99565b92915050565b6000611f75611f86565b9050611f8182826121a7565b919050565b6000604051905090565b600067ffffffffffffffff821115611fab57611faa6122df565b5b611fb48261230e565b9050602081019050919050565b600081519050919050565b600081519050919050565b600082825260208201905092915050565b600082825260208201905092915050565b600081905092915050565b600061200f82612129565b915061201a83612129565b9250827fffffffffffffffffffffffffffffffffffffffffffffffffffffffffffffffff0382111561204f5761204e612252565b5b828201905092915050565b600061206582612129565b915061207083612129565b9250826120805761207f612281565b5b828204905092915050565b600061209682612129565b91506120a183612129565b9250828210156120b4576120b3612252565b5b828203905092915050565b60006120ca82612109565b9050919050565b60008115159050919050565b60007fffffffff0000000000000000000000000000000000000000000000000000000082169050919050565b600073ffffffffffffffffffffffffffffffffffffffff82169050919050565b6000819050919050565b82818337600083830152505050565b60005b83811015612160578082015181840152602081019050612145565b8381111561216f576000848401525b50505050565b6000600282049050600182168061218d57607f821691505b602082108114156121a1576121a06122b0565b5b50919050565b6121b08261230e565b810181811067ffffffffffffffff821117156121cf576121ce6122df565b5b80604052505050565b60006121e382612129565b91507fffffffffffffffffffffffffffffffffffffffffffffffffffffffffffffffff82141561221657612215612252565b5b600182019050919050565b600061222c82612129565b915061223783612129565b92508261224757612246612281565b5b828206905092915050565b7f4e487b7100000000000000000000000000000000000000000000000000000000600052601160045260246000fd5b7f4e487b7100000000000000000000000000000000000000000000000000000000600052601260045260246000fd5b7f4e487b7100000000000000000000000000000000000000000000000000000000600052602260045260246000fd5b7f4e487b7100000000000000000000000000000000000000000000000000000000600052604160045260246000fd5b6000601f19601f8301169050919050565b7f4552433732313a207472616e7366657220746f206e6f6e20455243373231526560008201527f63656976657220696d706c656d656e7465720000000000000000000000000000602082015250565b7f4552433732313a207472616e736665722066726f6d20696e636f72726563742060008201527f6f776e6572000000000000000000000000000000000000000000000000000000602082015250565b7f4552433732313a20746f6b656e20616c7265616479206d696e74656400000000600082015250565b7f4552433732313a207472616e7366657220746f20746865207a65726f2061646460008201527f7265737300000000000000000000000000000000000000000000000000000000602082015250565b7f4552433732313a20617070726f766520746f2063616c6c657200000000000000600082015250565b7f4552433732313a206f70657261746f7220717565727920666f72206e6f6e657860008201527f697374656e7420746f6b656e0000000000000000000000000000000000000000602082015250565b7f4552433732313a20617070726f76652063616c6c6572206973206e6f74206f7760008201527f6e6572206e6f7220617070726f76656420666f7220616c6c0000000000000000602082015250565b7f4552433732313a2062616c616e636520717565727920666f7220746865207a6560008201527f726f206164647265737300000000000000000000000000000000000000000000602082015250565b7f4552433732313a206f776e657220717565727920666f72206e6f6e657869737460008201527f656e7420746f6b656e0000000000000000000000000000000000000000000000602082015250565b7f4552433732313a206d696e7420746f20746865207a65726f2061646472657373600082015250565b7f4552433732313a20617070726f76656420717565727920666f72206e6f6e657860008201527f697374656e7420746f6b656e0000000000000000000000000000000000000000602082015250565b7f4552433732314d657461646174613a2055524920717565727920666f72206e6f60008201527f6e6578697374656e7420746f6b656e0000000000000000000000000000000000602082015250565b7f4552433732313a20617070726f76616c20746f2063757272656e74206f776e6560008201527f7200000000000000000000000000000000000000000000000000000000000000602082015250565b7f544f4747453a3a6d696e743a204e4f545f41444d494e00000000000000000000600082015250565b7f4552433732313a207472616e736665722063616c6c6572206973206e6f74206f60008201527f776e6572206e6f7220617070726f766564000000000000000000000000000000602082015250565b612731816120bf565b811461273c57600080fd5b50565b612748816120d1565b811461275357600080fd5b50565b61275f816120dd565b811461276a57600080fd5b50565b61277681612129565b811461278157600080fd5b5056fea26469706673582212209318e9fdeb70d97557f9b5be2f63de49164d9d33932264c630facd0a46380f5e64736f6c63430008040033a264697066735822122013d1ee15110afd8ae40ba9dea1cf4f7434073bf95cb7615f93fccab688e7db3d64736f6c63430008040033",
  "linkReferences": {},
  "deployedLinkReferences": {}
}