{
  "_format": "hh-sol-artifact-1",
  "contractName": "togLoan",
  "sourceName": "contracts/togLoan.sol",
  "abi": [
    {
      "inputs": [
        {
          "internalType": "uint256",
          "name": "_poolSupplyMax",
          "type": "uint256"
        },
        {
          "internalType": "uint256",
          "name": "_numberBorrowerTokens",
          "type": "uint256"
        },
        {
          "internalType": "uint256",
          "name": "_reserveFactorMantissa",
          "type": "uint256"
        },
        {
          "internalType": "address",
          "name": "_borrower",
          "type": "address"
        },
        {
          "internalType": "address",
          "name": "_borrowerToken",
          "type": "address"
        },
        {
          "internalType": "address",
          "name": "_admin",
          "type": "address"
        }
      ],
      "stateMutability": "nonpayable",
      "type": "constructor"
    },
    {
      "anonymous": false,
      "inputs": [
        {
          "indexed": false,
          "internalType": "uint256",
          "name": "",
          "type": "uint256"
        }
      ],
      "name": "ArrayVal",
      "type": "event"
    },
    {
      "anonymous": false,
      "inputs": [
        {
          "indexed": false,
          "internalType": "address",
          "name": "",
          "type": "address"
        },
        {
          "indexed": false,
          "internalType": "uint256",
          "name": "",
          "type": "uint256"
        }
      ],
      "name": "Deposit",
      "type": "event"
    },
    {
      "anonymous": false,
      "inputs": [
        {
          "indexed": false,
          "internalType": "address",
          "name": "",
          "type": "address"
        },
        {
          "indexed": false,
          "internalType": "uint256",
          "name": "",
          "type": "uint256"
        }
      ],
      "name": "Withdraw",
      "type": "event"
    },
    {
      "anonymous": false,
      "inputs": [
        {
          "indexed": false,
          "internalType": "uint256",
          "name": "",
          "type": "uint256"
        }
      ],
      "name": "balance",
      "type": "event"
    },
    {
      "anonymous": false,
      "inputs": [
        {
          "indexed": false,
          "internalType": "uint256",
          "name": "_amount",
          "type": "uint256"
        },
        {
          "indexed": false,
          "internalType": "address",
          "name": "borrower",
          "type": "address"
        }
      ],
      "name": "borrowerTokenDeposited",
      "type": "event"
    },
    {
      "anonymous": false,
      "inputs": [
        {
          "indexed": false,
          "internalType": "uint256",
          "name": "_value",
          "type": "uint256"
        }
      ],
      "name": "ethWithdrawBorrower",
      "type": "event"
    },
    {
      "anonymous": false,
      "inputs": [
        {
          "indexed": false,
          "internalType": "uint256",
          "name": "_timeLimit",
          "type": "uint256"
        }
      ],
      "name": "supplyVaultNowOpen",
      "type": "event"
    },
    {
      "inputs": [],
      "name": "LP_deposit",
      "outputs": [],
      "stateMutability": "payable",
      "type": "function"
    },
    {
      "inputs": [],
      "name": "LPnfts",
      "outputs": [
        {
          "internalType": "contract ERC721",
          "name": "",
          "type": "address"
        }
      ],
      "stateMutability": "view",
      "type": "function"
    },
    {
      "inputs": [
        {
          "internalType": "string",
          "name": "_name",
          "type": "string"
        },
        {
          "internalType": "string",
          "name": "_symbol",
          "type": "string"
        }
      ],
      "name": "acceptLoanWithdrawLoan",
      "outputs": [],
      "stateMutability": "nonpayable",
      "type": "function"
    },
    {
      "inputs": [],
      "name": "admin",
      "outputs": [
        {
          "internalType": "address",
          "name": "",
          "type": "address"
        }
      ],
      "stateMutability": "view",
      "type": "function"
    },
    {
      "inputs": [],
      "name": "borrower",
      "outputs": [
        {
          "internalType": "address",
          "name": "",
          "type": "address"
        }
      ],
      "stateMutability": "view",
      "type": "function"
    },
    {
      "inputs": [],
      "name": "borrowerToken",
      "outputs": [
        {
          "internalType": "address",
          "name": "",
          "type": "address"
        }
      ],
      "stateMutability": "view",
      "type": "function"
    },
    {
      "inputs": [],
      "name": "currentIndex",
      "outputs": [
        {
          "internalType": "uint256",
          "name": "",
          "type": "uint256"
        }
      ],
      "stateMutability": "view",
      "type": "function"
    },
    {
      "inputs": [],
      "name": "dao",
      "outputs": [
        {
          "internalType": "address",
          "name": "",
          "type": "address"
        }
      ],
      "stateMutability": "view",
      "type": "function"
    },
    {
      "inputs": [
        {
          "internalType": "uint256",
          "name": "_value",
          "type": "uint256"
        }
      ],
      "name": "depositTokens",
      "outputs": [],
      "stateMutability": "nonpayable",
      "type": "function"
    },
    {
      "inputs": [],
      "name": "endBorrowerAcceptWindow",
      "outputs": [
        {
          "internalType": "uint256",
          "name": "",
          "type": "uint256"
        }
      ],
      "stateMutability": "view",
      "type": "function"
    },
    {
      "inputs": [],
      "name": "endOfRaise",
      "outputs": [
        {
          "internalType": "uint256",
          "name": "",
          "type": "uint256"
        }
      ],
      "stateMutability": "view",
      "type": "function"
    },
    {
      "inputs": [],
      "name": "ethSupplied",
      "outputs": [
        {
          "internalType": "uint256",
          "name": "",
          "type": "uint256"
        }
      ],
      "stateMutability": "view",
      "type": "function"
    },
    {
      "inputs": [],
      "name": "loanAccepted",
      "outputs": [
        {
          "internalType": "bool",
          "name": "",
          "type": "bool"
        }
      ],
      "stateMutability": "view",
      "type": "function"
    },
    {
      "inputs": [],
      "name": "makeLoanPayment",
      "outputs": [],
      "stateMutability": "nonpayable",
      "type": "function"
    },
    {
      "inputs": [],
      "name": "numberBorrowerTokens",
      "outputs": [
        {
          "internalType": "uint256",
          "name": "",
          "type": "uint256"
        }
      ],
      "stateMutability": "view",
      "type": "function"
    },
    {
      "inputs": [],
      "name": "poolSupplyMax",
      "outputs": [
        {
          "internalType": "uint256",
          "name": "",
          "type": "uint256"
        }
      ],
      "stateMutability": "view",
      "type": "function"
    },
    {
      "inputs": [],
      "name": "reserveFactorMantissa",
      "outputs": [
        {
          "internalType": "uint256",
          "name": "",
          "type": "uint256"
        }
      ],
      "stateMutability": "view",
      "type": "function"
    },
    {
      "inputs": [],
      "name": "startOfRaise",
      "outputs": [
        {
          "internalType": "uint256",
          "name": "",
          "type": "uint256"
        }
      ],
      "stateMutability": "view",
      "type": "function"
    },
    {
      "inputs": [],
      "name": "valorDAORecibido",
      "outputs": [
        {
          "internalType": "uint256",
          "name": "",
          "type": "uint256"
        }
      ],
      "stateMutability": "view",
      "type": "function"
    },
    {
      "inputs": [],
      "name": "valorRetiroLPs",
      "outputs": [
        {
          "internalType": "uint256",
          "name": "",
          "type": "uint256"
        }
      ],
      "stateMutability": "view",
      "type": "function"
    },
    {
      "inputs": [],
      "name": "withdraw",
      "outputs": [],
      "stateMutability": "nonpayable",
      "type": "function"
    },
    {
      "inputs": [],
      "name": "withdrawFailedDeposits",
      "outputs": [],
      "stateMutability": "nonpayable",
      "type": "function"
    },
    {
      "inputs": [],
      "name": "withdrawLPtoken",
      "outputs": [],
      "stateMutability": "nonpayable",
      "type": "function"
    },
    {
      "inputs": [],
      "name": "withdrawTokensBorrower",
      "outputs": [],
      "stateMutability": "nonpayable",
      "type": "function"
    }
  ],
  "bytecode": "0x60a060405260006009556000600a556000600b553480156200002057600080fd5b50604051620054a1380380620054a183398181016040528101906200004691906200014e565b856004819055508460038190555082600160006101000a81548173ffffffffffffffffffffffffffffffffffffffff021916908373ffffffffffffffffffffffffffffffffffffffff16021790555081600060016101000a81548173ffffffffffffffffffffffffffffffffffffffff021916908373ffffffffffffffffffffffffffffffffffffffff16021790555083600c819055508073ffffffffffffffffffffffffffffffffffffffff1660808173ffffffffffffffffffffffffffffffffffffffff1660601b8152505050505050505062000256565b600081519050620001318162000222565b92915050565b60008151905062000148816200023c565b92915050565b60008060008060008060c087890312156200016857600080fd5b60006200017889828a0162000137565b96505060206200018b89828a0162000137565b95505060406200019e89828a0162000137565b9450506060620001b189828a0162000120565b9350506080620001c489828a0162000120565b92505060a0620001d789828a0162000120565b9150509295509295509295565b6000620001f182620001f8565b9050919050565b600073ffffffffffffffffffffffffffffffffffffffff82169050919050565b6000819050919050565b6200022d81620001e4565b81146200023957600080fd5b50565b620002478162000218565b81146200025357600080fd5b50565b60805160601c61522c6200027560003960006119c6015261522c6000f3fe6080604052600436106200016a5760003560e01c806368c9b0f311620000c75780639eb708bc11620000795780639eb708bc1462000467578063a202b4d71462000481578063b8c36b11146200049b578063dd49756e14620004cb578063ef819fae14620004f9578063f851a4401462000529576200016a565b806368c9b0f314620003495780636c2d7994146200037957806371126bec14620003a957806376888e2714620003d95780637df1f1b914620004095780639d410bf31462000439576200016a565b80633ccfd60b11620001215780633ccfd60b146200023f5780634162169f146200025957806353d9ba8e146200028957806359c25c2514620002b95780635c99410614620002e957806365bacb471462000319576200016a565b80630f55508d146200016f57806315978dbf146200017b578063173b990414620001955780632397294514620001c557806326987b6014620001f55780632972e9241462000225575b600080fd5b6200017962000559565b005b3480156200018857600080fd5b50620001936200091a565b005b348015620001a257600080fd5b50620001ad6200091c565b604051620001bc919062002154565b60405180910390f35b348015620001d257600080fd5b50620001dd62000922565b604051620001ec919062001f25565b60405180910390f35b3480156200020257600080fd5b506200020d62000933565b6040516200021c919062002154565b60405180910390f35b3480156200023257600080fd5b506200023d62000939565b005b3480156200024c57600080fd5b506200025762000a5f565b005b3480156200026657600080fd5b5062000271620011f3565b60405162000280919062001e9e565b60405180910390f35b3480156200029657600080fd5b50620002a162001219565b604051620002b0919062002154565b60405180910390f35b348015620002c657600080fd5b50620002d16200121f565b604051620002e0919062002154565b60405180910390f35b348015620002f657600080fd5b506200030162001225565b60405162000310919062002154565b60405180910390f35b3480156200032657600080fd5b50620003316200122b565b60405162000340919062002154565b60405180910390f35b3480156200035657600080fd5b506200036162001231565b60405162000370919062002154565b60405180910390f35b3480156200038657600080fd5b506200039162001237565b604051620003a0919062001e9e565b60405180910390f35b348015620003b657600080fd5b50620003c16200125d565b604051620003d0919062001f42565b60405180910390f35b348015620003e657600080fd5b50620003f162001283565b60405162000400919062002154565b60405180910390f35b3480156200041657600080fd5b506200042162001289565b60405162000430919062001e9e565b60405180910390f35b3480156200044657600080fd5b506200046560048036038101906200045f919062001b41565b620012af565b005b3480156200047457600080fd5b506200047f620014d1565b005b3480156200048e57600080fd5b5062000499620016e8565b005b348015620004a857600080fd5b50620004b362001745565b604051620004c2919062002154565b60405180910390f35b348015620004d857600080fd5b50620004f76004803603810190620004f1919062001bb4565b6200174b565b005b3480156200050657600080fd5b5062000511620019be565b60405162000520919062002154565b60405180910390f35b3480156200053657600080fd5b5062000541620019c4565b60405162000550919062001e9e565b60405180910390f35b600160009054906101000a900473ffffffffffffffffffffffffffffffffffffffff1673ffffffffffffffffffffffffffffffffffffffff163373ffffffffffffffffffffffffffffffffffffffff161415620005ed576040517f08c379a0000000000000000000000000000000000000000000000000000000008152600401620005e49062002022565b60405180910390fd5b60004290506006548111801562000605575060055481105b62000647576040517f08c379a00000000000000000000000000000000000000000000000000000000081526004016200063e90620020aa565b60405180910390fd5b6000600e60003373ffffffffffffffffffffffffffffffffffffffff1673ffffffffffffffffffffffffffffffffffffffff1681526020019081526020016000205414620006cc576040517f08c379a0000000000000000000000000000000000000000000000000000000008152600401620006c39062002110565b60405180910390fd5b34600e60003373ffffffffffffffffffffffffffffffffffffffff1673ffffffffffffffffffffffffffffffffffffffff16815260200190815260200160002060008282546200071d919062002224565b925050819055506000600f8054905014620007d157600034600f600b60008154809291906200074c90620023a9565b919050558154811062000788577f4e487b7100000000000000000000000000000000000000000000000000000000600052603260045260246000fd5b90600052602060002001546200079f919062002224565b9050600f81908060018154018082558091505060019003906000526020600020016000909190919091505550620007fb565b600f3490806001815401808255809150506001900390600052602060002001600090919091909150555b7fa711d19e52eb41c47e2aa371b9b08c4d54c89b3aa2b93c050dc48f59d6d490a3600f600b548154811062000859577f4e487b7100000000000000000000000000000000000000000000000000000000600052603260045260246000fd5b906000526020600020015460405162000873919062002154565b60405180910390a1600b54600d60003373ffffffffffffffffffffffffffffffffffffffff1673ffffffffffffffffffffffffffffffffffffffff168152602001908152602001600020819055507fe1fffcc4923d04b559f4d29a8bfc6cda04eb5b0d3c460751c2402c5c5cc9109c3334604051620008f492919062001ef8565b60405180910390a1346008600082825462000910919062002224565b9250508190555050565b565b600c5481565b60008054906101000a900460ff1681565b600b5481565b60008054906101000a900460ff16156200098a576040517f08c379a0000000000000000000000000000000000000000000000000000000008152600401620009819062002088565b60405180910390fd5b6000600e60003373ffffffffffffffffffffffffffffffffffffffff1673ffffffffffffffffffffffffffffffffffffffff16815260200190815260200160002054141562000a10576040517f08c379a000000000000000000000000000000000000000000000000000000000815260040162000a0790620020cc565b60405180910390fd5b6000429050600754811162000a5c576040517f08c379a000000000000000000000000000000000000000000000000000000000815260040162000a5390620020aa565b60405180910390fd5b50565b6000600d60003373ffffffffffffffffffffffffffffffffffffffff1673ffffffffffffffffffffffffffffffffffffffff1681526020019081526020016000205490506000808214801562000b0b5750600a5460095462000ac2919062002281565b600f838154811062000afd577f4e487b7100000000000000000000000000000000000000000000000000000000600052603260045260246000fd5b906000526020600020015411155b905060006001905060008084111562000c7c57600a5460095462000b30919062002281565b600f60018662000b41919062002281565b8154811062000b79577f4e487b7100000000000000000000000000000000000000000000000000000000600052603260045260246000fd5b9060005260206000200154109150600e60003373ffffffffffffffffffffffffffffffffffffffff1673ffffffffffffffffffffffffffffffffffffffff16815260200190815260200160002054600f60018662000bd8919062002281565b8154811062000c10577f4e487b7100000000000000000000000000000000000000000000000000000000600052603260045260246000fd5b9060005260206000200154600f868154811062000c56577f4e487b7100000000000000000000000000000000000000000000000000000000600052603260045260246000fd5b906000526020600020015462000c6d919062002281565b62000c79919062002281565b90505b818062000c865750825b62000cc8576040517f08c379a000000000000000000000000000000000000000000000000000000000815260040162000cbf9062002000565b60405180910390fd5b6000600e60003373ffffffffffffffffffffffffffffffffffffffff1673ffffffffffffffffffffffffffffffffffffffff168152602001908152602001600020541162000d4d576040517f08c379a000000000000000000000000000000000000000000000000000000000815260040162000d449062002066565b60405180910390fd5b60008085111562000f555760095482600f60018862000d6d919062002281565b8154811062000da5577f4e487b7100000000000000000000000000000000000000000000000000000000600052603260045260246000fd5b906000526020600020015462000dbc919062002224565b1062000dff576040517f08c379a000000000000000000000000000000000000000000000000000000000815260040162000df69062001f9a565b60405180910390fd5b600e60003373ffffffffffffffffffffffffffffffffffffffff1673ffffffffffffffffffffffffffffffffffffffff16815260200190815260200160002054600f60018762000e50919062002281565b8154811062000e88577f4e487b7100000000000000000000000000000000000000000000000000000000600052603260045260246000fd5b906000526020600020015460095462000ea2919062002281565b1062000eee57600e60003373ffffffffffffffffffffffffffffffffffffffff1673ffffffffffffffffffffffffffffffffffffffff1681526020019081526020016000205462000f52565b600f60018662000eff919062002281565b8154811062000f37577f4e487b7100000000000000000000000000000000000000000000000000000000600052603260045260246000fd5b906000526020600020015460095462000f51919062002281565b5b90505b600080861462000f66578162000fa7565b600e60003373ffffffffffffffffffffffffffffffffffffffff1673ffffffffffffffffffffffffffffffffffffffff168152602001908152602001600020545b905060095481111562000fb957600080fd5b80600e60003373ffffffffffffffffffffffffffffffffffffffff1673ffffffffffffffffffffffffffffffffffffffff16815260200190815260200160002060008282546200100a919062002281565b925050819055507f884edad9ce6fa2440d8a54cc123490eb96d2768479d49ff9c7366125a942436433826040516200104492919062001ef8565b60405180910390a17f884edad9ce6fa2440d8a54cc123490eb96d2768479d49ff9c7366125a942436433600e60003373ffffffffffffffffffffffffffffffffffffffff1673ffffffffffffffffffffffffffffffffffffffff16815260200190815260200160002054604051620010be92919062001ef8565b60405180910390a160008611156200115f577f884edad9ce6fa2440d8a54cc123490eb96d2768479d49ff9c7366125a942436433600f60018962001103919062002281565b815481106200113b577f4e487b7100000000000000000000000000000000000000000000000000000000600052603260045260246000fd5b90600052602060002001546040516200115692919062001ef8565b60405180910390a15b6000811115620011b2573373ffffffffffffffffffffffffffffffffffffffff166108fc829081150290604051600060405180830381858888f19350505050158015620011b0573d6000803e3d6000fd5b505b7f47bb89f0fc234008e53c79bc3e3dab90e27502d1380a4b3cc35038d57fa03d2a47604051620011e3919062002154565b60405180910390a1505050505050565b600260009054906101000a900473ffffffffffffffffffffffffffffffffffffffff1681565b60065481565b60095481565b60035481565b60085481565b600a5481565b600060019054906101000a900473ffffffffffffffffffffffffffffffffffffffff1681565b601060009054906101000a900473ffffffffffffffffffffffffffffffffffffffff1681565b60075481565b600160009054906101000a900473ffffffffffffffffffffffffffffffffffffffff1681565b600260009054906101000a900473ffffffffffffffffffffffffffffffffffffffff1673ffffffffffffffffffffffffffffffffffffffff163373ffffffffffffffffffffffffffffffffffffffff16146200130a57600080fd5b60004290506005548111801562001322575060075481105b62001364576040517f08c379a00000000000000000000000000000000000000000000000000000000081526004016200135b90620020aa565b60405180910390fd5b60008054906101000a900460ff1615620013b5576040517f08c379a0000000000000000000000000000000000000000000000000000000008152600401620013ac90620020ee565b60405180910390fd5b60016000806101000a81548160ff02191690831515021790555060003373ffffffffffffffffffffffffffffffffffffffff16600854604051620013f99062001e87565b60006040518083038185875af1925050503d806000811462001438576040519150601f19603f3d011682016040523d82523d6000602084013e6200143d565b606091505b505090508062001484576040517f08c379a00000000000000000000000000000000000000000000000000000000081526004016200147b9062001fbc565b60405180910390fd5b7f7c046c1724795ce324ef285dee325dda79387db88db5a1f7714988b13a9b5ecc600854604051620014b7919062002154565b60405180910390a1620014cb8484620019e8565b50505050565b60008054906101000a900460ff161562001522576040517f08c379a0000000000000000000000000000000000000000000000000000000008152600401620015199062001fde565b60405180910390fd5b6000600e60003373ffffffffffffffffffffffffffffffffffffffff1673ffffffffffffffffffffffffffffffffffffffff168152602001908152602001600020541415620015a8576040517f08c379a00000000000000000000000000000000000000000000000000000000081526004016200159f90620020cc565b60405180910390fd5b6000600e60003373ffffffffffffffffffffffffffffffffffffffff1673ffffffffffffffffffffffffffffffffffffffff1681526020019081526020016000205490506000600e60003373ffffffffffffffffffffffffffffffffffffffff1673ffffffffffffffffffffffffffffffffffffffff1681526020019081526020016000208190555060003373ffffffffffffffffffffffffffffffffffffffff1682604051620016599062001e87565b60006040518083038185875af1925050503d806000811462001698576040519150601f19603f3d011682016040523d82523d6000602084013e6200169d565b606091505b5050905080620016e4576040517f08c379a0000000000000000000000000000000000000000000000000000000008152600401620016db9062001fbc565b60405180910390fd5b5050565b600260009054906101000a900473ffffffffffffffffffffffffffffffffffffffff1673ffffffffffffffffffffffffffffffffffffffff163373ffffffffffffffffffffffffffffffffffffffff16146200174357600080fd5b565b60045481565b600260009054906101000a900473ffffffffffffffffffffffffffffffffffffffff1673ffffffffffffffffffffffffffffffffffffffff163373ffffffffffffffffffffffffffffffffffffffff1614620017a657600080fd5b6003548114620017ed576040517f08c379a0000000000000000000000000000000000000000000000000000000008152600401620017e49062002044565b60405180910390fd5b60008060019054906101000a900473ffffffffffffffffffffffffffffffffffffffff1673ffffffffffffffffffffffffffffffffffffffff166323b872dd600160009054906101000a900473ffffffffffffffffffffffffffffffffffffffff1630856040518463ffffffff1660e01b8152600401620018719392919062001ebb565b602060405180830381600087803b1580156200188c57600080fd5b505af1158015620018a1573d6000803e3d6000fd5b505050506040513d601f19601f82011682018060405250810190620018c7919062001b15565b9050806200190c576040517f08c379a0000000000000000000000000000000000000000000000000000000008152600401620019039062002132565b60405180910390fd5b7f19893fa936723849d863fc33b53718b15653d646e3b6c4d69baacfa0bc644c4082306040516200193f92919062002171565b60405180910390a1426006819055506201518060065462001961919062002224565b60058190555061384060055462001979919062002224565b6007819055507f427ab1ad6fb8a2e156dc3f43eabced6adaf640ce9def138f05e1d5210b8e1ea9600554604051620019b2919062002154565b60405180910390a15050565b60055481565b7f000000000000000000000000000000000000000000000000000000000000000081565b8181604051620019f89062001a67565b62001a0592919062001f5f565b604051809103906000f08015801562001a22573d6000803e3d6000fd5b50601060006101000a81548173ffffffffffffffffffffffffffffffffffffffff021916908373ffffffffffffffffffffffffffffffffffffffff1602179055505050565b612b4480620026b383390190565b600062001a8c62001a8684620021c7565b6200219e565b90508281526020810184848401111562001aa557600080fd5b62001ab28482856200232e565b509392505050565b60008151905062001acb816200267e565b92915050565b600082601f83011262001ae357600080fd5b813562001af584826020860162001a75565b91505092915050565b60008135905062001b0f8162002698565b92915050565b60006020828403121562001b2857600080fd5b600062001b388482850162001aba565b91505092915050565b6000806040838503121562001b5557600080fd5b600083013567ffffffffffffffff81111562001b7057600080fd5b62001b7e8582860162001ad1565b925050602083013567ffffffffffffffff81111562001b9c57600080fd5b62001baa8582860162001ad1565b9150509250929050565b60006020828403121562001bc757600080fd5b600062001bd78482850162001afe565b91505092915050565b62001beb81620022bc565b82525050565b62001bfc81620022d0565b82525050565b62001c0d8162002306565b82525050565b600062001c2082620021fd565b62001c2c818562002213565b935062001c3e8185602086016200233d565b62001c498162002455565b840191505092915050565b600062001c6360138362002213565b915062001c708262002466565b602082019050919050565b600062001c8a60128362002213565b915062001c97826200248f565b602082019050919050565b600062001cb160148362002213565b915062001cbe82620024b8565b602082019050919050565b600062001cd8600c8362002213565b915062001ce582620024e1565b602082019050919050565b600062001cff60198362002213565b915062001d0c826200250a565b602082019050919050565b600062001d2660198362002213565b915062001d338262002533565b602082019050919050565b600062001d4d60128362002213565b915062001d5a826200255c565b602082019050919050565b600062001d7460188362002213565b915062001d818262002585565b602082019050919050565b600062001d9b60198362002213565b915062001da882620025ae565b602082019050919050565b600062001dc2600f8362002213565b915062001dcf82620025d7565b602082019050919050565b600062001de960008362002208565b915062001df68262002600565b600082019050919050565b600062001e10601c8362002213565b915062001e1d8262002603565b602082019050919050565b600062001e3760118362002213565b915062001e44826200262c565b602082019050919050565b600062001e5e60168362002213565b915062001e6b8262002655565b602082019050919050565b62001e8181620022fc565b82525050565b600062001e948262001dda565b9150819050919050565b600060208201905062001eb5600083018462001be0565b92915050565b600060608201905062001ed2600083018662001be0565b62001ee1602083018562001be0565b62001ef0604083018462001e76565b949350505050565b600060408201905062001f0f600083018562001be0565b62001f1e602083018462001e76565b9392505050565b600060208201905062001f3c600083018462001bf1565b92915050565b600060208201905062001f59600083018462001c02565b92915050565b6000604082019050818103600083015262001f7b818562001c13565b9050818103602083015262001f91818462001c13565b90509392505050565b6000602082019050818103600083015262001fb58162001c54565b9050919050565b6000602082019050818103600083015262001fd78162001c7b565b9050919050565b6000602082019050818103600083015262001ff98162001ca2565b9050919050565b600060208201905081810360008301526200201b8162001cc9565b9050919050565b600060208201905081810360008301526200203d8162001cf0565b9050919050565b600060208201905081810360008301526200205f8162001d17565b9050919050565b60006020820190508181036000830152620020818162001d3e565b9050919050565b60006020820190508181036000830152620020a38162001d65565b9050919050565b60006020820190508181036000830152620020c58162001d8c565b9050919050565b60006020820190508181036000830152620020e78162001db3565b9050919050565b60006020820190508181036000830152620021098162001e01565b9050919050565b600060208201905081810360008301526200212b8162001e28565b9050919050565b600060208201905081810360008301526200214d8162001e4f565b9050919050565b60006020820190506200216b600083018462001e76565b92915050565b600060408201905062002188600083018562001e76565b62002197602083018462001be0565b9392505050565b6000620021aa620021bd565b9050620021b8828262002373565b919050565b6000604051905090565b600067ffffffffffffffff821115620021e557620021e462002426565b5b620021f08262002455565b9050602081019050919050565b600081519050919050565b600081905092915050565b600082825260208201905092915050565b60006200223182620022fc565b91506200223e83620022fc565b9250827fffffffffffffffffffffffffffffffffffffffffffffffffffffffffffffffff03821115620022765762002275620023f7565b5b828201905092915050565b60006200228e82620022fc565b91506200229b83620022fc565b925082821015620022b157620022b0620023f7565b5b828203905092915050565b6000620022c982620022dc565b9050919050565b60008115159050919050565b600073ffffffffffffffffffffffffffffffffffffffff82169050919050565b6000819050919050565b600062002313826200231a565b9050919050565b60006200232782620022dc565b9050919050565b82818337600083830152505050565b60005b838110156200235d57808201518184015260208101905062002340565b838111156200236d576000848401525b50505050565b6200237e8262002455565b810181811067ffffffffffffffff82111715620023a0576200239f62002426565b5b80604052505050565b6000620023b682620022fc565b91507fffffffffffffffffffffffffffffffffffffffffffffffffffffffffffffffff821415620023ec57620023eb620023f7565b5b600182019050919050565b7f4e487b7100000000000000000000000000000000000000000000000000000000600052601160045260246000fd5b7f4e487b7100000000000000000000000000000000000000000000000000000000600052604160045260246000fd5b6000601f19601f8301169050919050565b7f63616e2774207769746864726177206d6f726500000000000000000000000000600082015250565b7f544f4747453a204641494c45445f53454e440000000000000000000000000000600082015250565b7f544f4747453a204c4f414e5f4143434550544544000000000000000000000000600082015250565b7f6e6f7420656c696769626c650000000000000000000000000000000000000000600082015250565b7f544f4747453a20424f52524f5745525f464f5242494444454e00000000000000600082015250565b7f544f4747453a204e4f545f415050524f5645445f56414c554500000000000000600082015250565b7f696e73756666696369656e742046756e64730000000000000000000000000000600082015250565b7f544f4747453a204c4f414e5f4e4f545f41434345505445440000000000000000600082015250565b7f544f4747453a204f55545f4f465f54494d455f57494e444f5700000000000000600082015250565b7f544f4747453a204e4f5f56414c55450000000000000000000000000000000000600082015250565b50565b7f544f4747453a204c4f414e5f414c52454144595f414343455054454400000000600082015250565b7f616c7265616479206465706f7369746564000000000000000000000000000000600082015250565b7f544f4747453a205452414e534645525f4641494c454400000000000000000000600082015250565b6200268981620022d0565b81146200269557600080fd5b50565b620026a381620022fc565b8114620026af57600080fd5b5056fe60806040523480156200001157600080fd5b5060405162002b4438038062002b44833981810160405281019062000037919062000197565b818181600090805190602001906200005192919062000075565b5080600190805190602001906200006a92919062000075565b50505050506200037a565b82805462000083906200029f565b90600052602060002090601f016020900481019282620000a75760008555620000f3565b82601f10620000c257805160ff1916838001178555620000f3565b82800160010185558215620000f3579182015b82811115620000f2578251825591602001919060010190620000d5565b5b50905062000102919062000106565b5090565b5b808211156200012157600081600090555060010162000107565b5090565b60006200013c620001368462000233565b6200020a565b9050828152602081018484840111156200015557600080fd5b6200016284828562000269565b509392505050565b600082601f8301126200017c57600080fd5b81516200018e84826020860162000125565b91505092915050565b60008060408385031215620001ab57600080fd5b600083015167ffffffffffffffff811115620001c657600080fd5b620001d4858286016200016a565b925050602083015167ffffffffffffffff811115620001f257600080fd5b62000200858286016200016a565b9150509250929050565b60006200021662000229565b9050620002248282620002d5565b919050565b6000604051905090565b600067ffffffffffffffff8211156200025157620002506200033a565b5b6200025c8262000369565b9050602081019050919050565b60005b83811015620002895780820151818401526020810190506200026c565b8381111562000299576000848401525b50505050565b60006002820490506001821680620002b857607f821691505b60208210811415620002cf57620002ce6200030b565b5b50919050565b620002e08262000369565b810181811067ffffffffffffffff821117156200030257620003016200033a565b5b80604052505050565b7f4e487b7100000000000000000000000000000000000000000000000000000000600052602260045260246000fd5b7f4e487b7100000000000000000000000000000000000000000000000000000000600052604160045260246000fd5b6000601f19601f8301169050919050565b6127ba806200038a6000396000f3fe608060405234801561001057600080fd5b50600436106100ea5760003560e01c80636352211e1161008c578063a22cb46511610066578063a22cb4651461025b578063b88d4fde14610277578063c87b56dd14610293578063e985e9c5146102c3576100ea565b80636352211e146101dd57806370a082311461020d57806395d89b411461023d576100ea565b8063095ea7b3116100c8578063095ea7b31461016d57806323b872dd1461018957806340c10f19146101a557806342842e0e146101c1576100ea565b806301ffc9a7146100ef57806306fdde031461011f578063081812fc1461013d575b600080fd5b61010960048036038101906101049190611950565b6102f3565b6040516101169190611d33565b60405180910390f35b6101276103d5565b6040516101349190611d4e565b60405180910390f35b610157600480360381019061015291906119a2565b610467565b6040516101649190611ccc565b60405180910390f35b61018760048036038101906101829190611914565b6104ec565b005b6101a3600480360381019061019e919061180e565b610604565b005b6101bf60048036038101906101ba9190611914565b610664565b005b6101db60048036038101906101d6919061180e565b610702565b005b6101f760048036038101906101f291906119a2565b610722565b6040516102049190611ccc565b60405180910390f35b610227600480360381019061022291906117a9565b6107d4565b6040516102349190611f50565b60405180910390f35b61024561088c565b6040516102529190611d4e565b60405180910390f35b610275600480360381019061027091906118d8565b61091e565b005b610291600480360381019061028c919061185d565b610934565b005b6102ad60048036038101906102a891906119a2565b610996565b6040516102ba9190611d4e565b60405180910390f35b6102dd60048036038101906102d891906117d2565b610a3d565b6040516102ea9190611d33565b60405180910390f35b60007f80ac58cd000000000000000000000000000000000000000000000000000000007bffffffffffffffffffffffffffffffffffffffffffffffffffffffff1916827bffffffffffffffffffffffffffffffffffffffffffffffffffffffff191614806103be57507f5b5e139f000000000000000000000000000000000000000000000000000000007bffffffffffffffffffffffffffffffffffffffffffffffffffffffff1916827bffffffffffffffffffffffffffffffffffffffffffffffffffffffff1916145b806103ce57506103cd82610ad1565b5b9050919050565b6060600080546103e490612175565b80601f016020809104026020016040519081016040528092919081815260200182805461041090612175565b801561045d5780601f106104325761010080835404028352916020019161045d565b820191906000526020600020905b81548152906001019060200180831161044057829003601f168201915b5050505050905090565b600061047282610b3b565b6104b1576040517f08c379a00000000000000000000000000000000000000000000000000000000081526004016104a890611eb0565b60405180910390fd5b6004600083815260200190815260200160002060009054906101000a900473ffffffffffffffffffffffffffffffffffffffff169050919050565b60006104f782610722565b90508073ffffffffffffffffffffffffffffffffffffffff168373ffffffffffffffffffffffffffffffffffffffff161415610568576040517f08c379a000000000000000000000000000000000000000000000000000000000815260040161055f90611ef0565b60405180910390fd5b8073ffffffffffffffffffffffffffffffffffffffff16610587610ba7565b73ffffffffffffffffffffffffffffffffffffffff1614806105b657506105b5816105b0610ba7565b610a3d565b5b6105f5576040517f08c379a00000000000000000000000000000000000000000000000000000000081526004016105ec90611e30565b60405180910390fd5b6105ff8383610baf565b505050565b61061561060f610ba7565b82610c68565b610654576040517f08c379a000000000000000000000000000000000000000000000000000000000815260040161064b90611f30565b60405180910390fd5b61065f838383610d46565b505050565b600660009054906101000a900473ffffffffffffffffffffffffffffffffffffffff1673ffffffffffffffffffffffffffffffffffffffff163373ffffffffffffffffffffffffffffffffffffffff16146106f4576040517f08c379a00000000000000000000000000000000000000000000000000000000081526004016106eb90611f10565b60405180910390fd5b6106fe8282610fad565b5050565b61071d83838360405180602001604052806000815250610934565b505050565b6000806002600084815260200190815260200160002060009054906101000a900473ffffffffffffffffffffffffffffffffffffffff169050600073ffffffffffffffffffffffffffffffffffffffff168173ffffffffffffffffffffffffffffffffffffffff1614156107cb576040517f08c379a00000000000000000000000000000000000000000000000000000000081526004016107c290611e70565b60405180910390fd5b80915050919050565b60008073ffffffffffffffffffffffffffffffffffffffff168273ffffffffffffffffffffffffffffffffffffffff161415610845576040517f08c379a000000000000000000000000000000000000000000000000000000000815260040161083c90611e50565b60405180910390fd5b600360008373ffffffffffffffffffffffffffffffffffffffff1673ffffffffffffffffffffffffffffffffffffffff168152602001908152602001600020549050919050565b60606001805461089b90612175565b80601f01602080910402602001604051908101604052809291908181526020018280546108c790612175565b80156109145780601f106108e957610100808354040283529160200191610914565b820191906000526020600020905b8154815290600101906020018083116108f757829003601f168201915b5050505050905090565b610930610929610ba7565b8383611187565b5050565b61094561093f610ba7565b83610c68565b610984576040517f08c379a000000000000000000000000000000000000000000000000000000000815260040161097b90611f30565b60405180910390fd5b610990848484846112f4565b50505050565b60606109a182610b3b565b6109e0576040517f08c379a00000000000000000000000000000000000000000000000000000000081526004016109d790611ed0565b60405180910390fd5b60006109ea611350565b90506000815111610a0a5760405180602001604052806000815250610a35565b80610a1484611367565b604051602001610a25929190611ca8565b6040516020818303038152906040525b915050919050565b6000600560008473ffffffffffffffffffffffffffffffffffffffff1673ffffffffffffffffffffffffffffffffffffffff16815260200190815260200160002060008373ffffffffffffffffffffffffffffffffffffffff1673ffffffffffffffffffffffffffffffffffffffff16815260200190815260200160002060009054906101000a900460ff16905092915050565b60007f01ffc9a7000000000000000000000000000000000000000000000000000000007bffffffffffffffffffffffffffffffffffffffffffffffffffffffff1916827bffffffffffffffffffffffffffffffffffffffffffffffffffffffff1916149050919050565b60008073ffffffffffffffffffffffffffffffffffffffff166002600084815260200190815260200160002060009054906101000a900473ffffffffffffffffffffffffffffffffffffffff1673ffffffffffffffffffffffffffffffffffffffff1614159050919050565b600033905090565b816004600083815260200190815260200160002060006101000a81548173ffffffffffffffffffffffffffffffffffffffff021916908373ffffffffffffffffffffffffffffffffffffffff160217905550808273ffffffffffffffffffffffffffffffffffffffff16610c2283610722565b73ffffffffffffffffffffffffffffffffffffffff167f8c5be1e5ebec7d5bd14f71427d1e84f3dd0314c0f7b2291e5b200ac8c7c3b92560405160405180910390a45050565b6000610c7382610b3b565b610cb2576040517f08c379a0000000000000000000000000000000000000000000000000000000008152600401610ca990611e10565b60405180910390fd5b6000610cbd83610722565b90508073ffffffffffffffffffffffffffffffffffffffff168473ffffffffffffffffffffffffffffffffffffffff161480610d2c57508373ffffffffffffffffffffffffffffffffffffffff16610d1484610467565b73ffffffffffffffffffffffffffffffffffffffff16145b80610d3d5750610d3c8185610a3d565b5b91505092915050565b8273ffffffffffffffffffffffffffffffffffffffff16610d6682610722565b73ffffffffffffffffffffffffffffffffffffffff1614610dbc576040517f08c379a0000000000000000000000000000000000000000000000000000000008152600401610db390611d90565b60405180910390fd5b600073ffffffffffffffffffffffffffffffffffffffff168273ffffffffffffffffffffffffffffffffffffffff161415610e2c576040517f08c379a0000000000000000000000000000000000000000000000000000000008152600401610e2390611dd0565b60405180910390fd5b610e37838383611514565b610e42600082610baf565b6001600360008573ffffffffffffffffffffffffffffffffffffffff1673ffffffffffffffffffffffffffffffffffffffff1681526020019081526020016000206000828254610e92919061208b565b925050819055506001600360008473ffffffffffffffffffffffffffffffffffffffff1673ffffffffffffffffffffffffffffffffffffffff1681526020019081526020016000206000828254610ee99190612004565b92505081905550816002600083815260200190815260200160002060006101000a81548173ffffffffffffffffffffffffffffffffffffffff021916908373ffffffffffffffffffffffffffffffffffffffff160217905550808273ffffffffffffffffffffffffffffffffffffffff168473ffffffffffffffffffffffffffffffffffffffff167fddf252ad1be2c89b69c2b068fc378daa952ba7f163c4a11628f55a4df523b3ef60405160405180910390a4610fa8838383611519565b505050565b600073ffffffffffffffffffffffffffffffffffffffff168273ffffffffffffffffffffffffffffffffffffffff16141561101d576040517f08c379a000000000000000000000000000000000000000000000000000000000815260040161101490611e90565b60405180910390fd5b61102681610b3b565b15611066576040517f08c379a000000000000000000000000000000000000000000000000000000000815260040161105d90611db0565b60405180910390fd5b61107260008383611514565b6001600360008473ffffffffffffffffffffffffffffffffffffffff1673ffffffffffffffffffffffffffffffffffffffff16815260200190815260200160002060008282546110c29190612004565b92505081905550816002600083815260200190815260200160002060006101000a81548173ffffffffffffffffffffffffffffffffffffffff021916908373ffffffffffffffffffffffffffffffffffffffff160217905550808273ffffffffffffffffffffffffffffffffffffffff16600073ffffffffffffffffffffffffffffffffffffffff167fddf252ad1be2c89b69c2b068fc378daa952ba7f163c4a11628f55a4df523b3ef60405160405180910390a461118360008383611519565b5050565b8173ffffffffffffffffffffffffffffffffffffffff168373ffffffffffffffffffffffffffffffffffffffff1614156111f6576040517f08c379a00000000000000000000000000000000000000000000000000000000081526004016111ed90611df0565b60405180910390fd5b80600560008573ffffffffffffffffffffffffffffffffffffffff1673ffffffffffffffffffffffffffffffffffffffff16815260200190815260200160002060008473ffffffffffffffffffffffffffffffffffffffff1673ffffffffffffffffffffffffffffffffffffffff16815260200190815260200160002060006101000a81548160ff0219169083151502179055508173ffffffffffffffffffffffffffffffffffffffff168373ffffffffffffffffffffffffffffffffffffffff167f17307eab39ab6107e8899845ad3d59bd9653f200f220920489ca2b5937696c31836040516112e79190611d33565b60405180910390a3505050565b6112ff848484610d46565b61130b8484848461151e565b61134a576040517f08c379a000000000000000000000000000000000000000000000000000000000815260040161134190611d70565b60405180910390fd5b50505050565b606060405180602001604052806000815250905090565b606060008214156113af576040518060400160405280600181526020017f3000000000000000000000000000000000000000000000000000000000000000815250905061150f565b600082905060005b600082146113e15780806113ca906121d8565b915050600a826113da919061205a565b91506113b7565b60008167ffffffffffffffff811115611423577f4e487b7100000000000000000000000000000000000000000000000000000000600052604160045260246000fd5b6040519080825280601f01601f1916602001820160405280156114555781602001600182028036833780820191505090505b5090505b600085146115085760018261146e919061208b565b9150600a8561147d9190612221565b60306114899190612004565b60f81b8183815181106114c5577f4e487b7100000000000000000000000000000000000000000000000000000000600052603260045260246000fd5b60200101907effffffffffffffffffffffffffffffffffffffffffffffffffffffffffffff1916908160001a905350600a85611501919061205a565b9450611459565b8093505050505b919050565b505050565b505050565b600061153f8473ffffffffffffffffffffffffffffffffffffffff166116b5565b156116a8578373ffffffffffffffffffffffffffffffffffffffff1663150b7a02611568610ba7565b8786866040518563ffffffff1660e01b815260040161158a9493929190611ce7565b602060405180830381600087803b1580156115a457600080fd5b505af19250505080156115d557506040513d601f19601f820116820180604052508101906115d29190611979565b60015b611658573d8060008114611605576040519150601f19603f3d011682016040523d82523d6000602084013e61160a565b606091505b50600081511415611650576040517f08c379a000000000000000000000000000000000000000000000000000000000815260040161164790611d70565b60405180910390fd5b805181602001fd5b63150b7a0260e01b7bffffffffffffffffffffffffffffffffffffffffffffffffffffffff1916817bffffffffffffffffffffffffffffffffffffffffffffffffffffffff1916149150506116ad565b600190505b949350505050565b6000808273ffffffffffffffffffffffffffffffffffffffff163b119050919050565b60006116eb6116e684611f90565b611f6b565b90508281526020810184848401111561170357600080fd5b61170e848285612133565b509392505050565b60008135905061172581612728565b92915050565b60008135905061173a8161273f565b92915050565b60008135905061174f81612756565b92915050565b60008151905061176481612756565b92915050565b600082601f83011261177b57600080fd5b813561178b8482602086016116d8565b91505092915050565b6000813590506117a38161276d565b92915050565b6000602082840312156117bb57600080fd5b60006117c984828501611716565b91505092915050565b600080604083850312156117e557600080fd5b60006117f385828601611716565b925050602061180485828601611716565b9150509250929050565b60008060006060848603121561182357600080fd5b600061183186828701611716565b935050602061184286828701611716565b925050604061185386828701611794565b9150509250925092565b6000806000806080858703121561187357600080fd5b600061188187828801611716565b945050602061189287828801611716565b93505060406118a387828801611794565b925050606085013567ffffffffffffffff8111156118c057600080fd5b6118cc8782880161176a565b91505092959194509250565b600080604083850312156118eb57600080fd5b60006118f985828601611716565b925050602061190a8582860161172b565b9150509250929050565b6000806040838503121561192757600080fd5b600061193585828601611716565b925050602061194685828601611794565b9150509250929050565b60006020828403121561196257600080fd5b600061197084828501611740565b91505092915050565b60006020828403121561198b57600080fd5b600061199984828501611755565b91505092915050565b6000602082840312156119b457600080fd5b60006119c284828501611794565b91505092915050565b6119d4816120bf565b82525050565b6119e3816120d1565b82525050565b60006119f482611fc1565b6119fe8185611fd7565b9350611a0e818560208601612142565b611a178161230e565b840191505092915050565b6000611a2d82611fcc565b611a378185611fe8565b9350611a47818560208601612142565b611a508161230e565b840191505092915050565b6000611a6682611fcc565b611a708185611ff9565b9350611a80818560208601612142565b80840191505092915050565b6000611a99603283611fe8565b9150611aa48261231f565b604082019050919050565b6000611abc602583611fe8565b9150611ac78261236e565b604082019050919050565b6000611adf601c83611fe8565b9150611aea826123bd565b602082019050919050565b6000611b02602483611fe8565b9150611b0d826123e6565b604082019050919050565b6000611b25601983611fe8565b9150611b3082612435565b602082019050919050565b6000611b48602c83611fe8565b9150611b538261245e565b604082019050919050565b6000611b6b603883611fe8565b9150611b76826124ad565b604082019050919050565b6000611b8e602a83611fe8565b9150611b99826124fc565b604082019050919050565b6000611bb1602983611fe8565b9150611bbc8261254b565b604082019050919050565b6000611bd4602083611fe8565b9150611bdf8261259a565b602082019050919050565b6000611bf7602c83611fe8565b9150611c02826125c3565b604082019050919050565b6000611c1a602f83611fe8565b9150611c2582612612565b604082019050919050565b6000611c3d602183611fe8565b9150611c4882612661565b604082019050919050565b6000611c60601683611fe8565b9150611c6b826126b0565b602082019050919050565b6000611c83603183611fe8565b9150611c8e826126d9565b604082019050919050565b611ca281612129565b82525050565b6000611cb48285611a5b565b9150611cc08284611a5b565b91508190509392505050565b6000602082019050611ce160008301846119cb565b92915050565b6000608082019050611cfc60008301876119cb565b611d0960208301866119cb565b611d166040830185611c99565b8181036060830152611d2881846119e9565b905095945050505050565b6000602082019050611d4860008301846119da565b92915050565b60006020820190508181036000830152611d688184611a22565b905092915050565b60006020820190508181036000830152611d8981611a8c565b9050919050565b60006020820190508181036000830152611da981611aaf565b9050919050565b60006020820190508181036000830152611dc981611ad2565b9050919050565b60006020820190508181036000830152611de981611af5565b9050919050565b60006020820190508181036000830152611e0981611b18565b9050919050565b60006020820190508181036000830152611e2981611b3b565b9050919050565b60006020820190508181036000830152611e4981611b5e565b9050919050565b60006020820190508181036000830152611e6981611b81565b9050919050565b60006020820190508181036000830152611e8981611ba4565b9050919050565b60006020820190508181036000830152611ea981611bc7565b9050919050565b60006020820190508181036000830152611ec981611bea565b9050919050565b60006020820190508181036000830152611ee981611c0d565b9050919050565b60006020820190508181036000830152611f0981611c30565b9050919050565b60006020820190508181036000830152611f2981611c53565b9050919050565b60006020820190508181036000830152611f4981611c76565b9050919050565b6000602082019050611f656000830184611c99565b92915050565b6000611f75611f86565b9050611f8182826121a7565b919050565b6000604051905090565b600067ffffffffffffffff821115611fab57611faa6122df565b5b611fb48261230e565b9050602081019050919050565b600081519050919050565b600081519050919050565b600082825260208201905092915050565b600082825260208201905092915050565b600081905092915050565b600061200f82612129565b915061201a83612129565b9250827fffffffffffffffffffffffffffffffffffffffffffffffffffffffffffffffff0382111561204f5761204e612252565b5b828201905092915050565b600061206582612129565b915061207083612129565b9250826120805761207f612281565b5b828204905092915050565b600061209682612129565b91506120a183612129565b9250828210156120b4576120b3612252565b5b828203905092915050565b60006120ca82612109565b9050919050565b60008115159050919050565b60007fffffffff0000000000000000000000000000000000000000000000000000000082169050919050565b600073ffffffffffffffffffffffffffffffffffffffff82169050919050565b6000819050919050565b82818337600083830152505050565b60005b83811015612160578082015181840152602081019050612145565b8381111561216f576000848401525b50505050565b6000600282049050600182168061218d57607f821691505b602082108114156121a1576121a06122b0565b5b50919050565b6121b08261230e565b810181811067ffffffffffffffff821117156121cf576121ce6122df565b5b80604052505050565b60006121e382612129565b91507fffffffffffffffffffffffffffffffffffffffffffffffffffffffffffffffff82141561221657612215612252565b5b600182019050919050565b600061222c82612129565b915061223783612129565b92508261224757612246612281565b5b828206905092915050565b7f4e487b7100000000000000000000000000000000000000000000000000000000600052601160045260246000fd5b7f4e487b7100000000000000000000000000000000000000000000000000000000600052601260045260246000fd5b7f4e487b7100000000000000000000000000000000000000000000000000000000600052602260045260246000fd5b7f4e487b7100000000000000000000000000000000000000000000000000000000600052604160045260246000fd5b6000601f19601f8301169050919050565b7f4552433732313a207472616e7366657220746f206e6f6e20455243373231526560008201527f63656976657220696d706c656d656e7465720000000000000000000000000000602082015250565b7f4552433732313a207472616e736665722066726f6d20696e636f72726563742060008201527f6f776e6572000000000000000000000000000000000000000000000000000000602082015250565b7f4552433732313a20746f6b656e20616c7265616479206d696e74656400000000600082015250565b7f4552433732313a207472616e7366657220746f20746865207a65726f2061646460008201527f7265737300000000000000000000000000000000000000000000000000000000602082015250565b7f4552433732313a20617070726f766520746f2063616c6c657200000000000000600082015250565b7f4552433732313a206f70657261746f7220717565727920666f72206e6f6e657860008201527f697374656e7420746f6b656e0000000000000000000000000000000000000000602082015250565b7f4552433732313a20617070726f76652063616c6c6572206973206e6f74206f7760008201527f6e6572206e6f7220617070726f76656420666f7220616c6c0000000000000000602082015250565b7f4552433732313a2062616c616e636520717565727920666f7220746865207a6560008201527f726f206164647265737300000000000000000000000000000000000000000000602082015250565b7f4552433732313a206f776e657220717565727920666f72206e6f6e657869737460008201527f656e7420746f6b656e0000000000000000000000000000000000000000000000602082015250565b7f4552433732313a206d696e7420746f20746865207a65726f2061646472657373600082015250565b7f4552433732313a20617070726f76656420717565727920666f72206e6f6e657860008201527f697374656e7420746f6b656e0000000000000000000000000000000000000000602082015250565b7f4552433732314d657461646174613a2055524920717565727920666f72206e6f60008201527f6e6578697374656e7420746f6b656e0000000000000000000000000000000000602082015250565b7f4552433732313a20617070726f76616c20746f2063757272656e74206f776e6560008201527f7200000000000000000000000000000000000000000000000000000000000000602082015250565b7f544f4747453a3a6d696e743a204e4f545f41444d494e00000000000000000000600082015250565b7f4552433732313a207472616e736665722063616c6c6572206973206e6f74206f60008201527f776e6572206e6f7220617070726f766564000000000000000000000000000000602082015250565b612731816120bf565b811461273c57600080fd5b50565b612748816120d1565b811461275357600080fd5b50565b61275f816120dd565b811461276a57600080fd5b50565b61277681612129565b811461278157600080fd5b5056fea26469706673582212209318e9fdeb70d97557f9b5be2f63de49164d9d33932264c630facd0a46380f5e64736f6c63430008040033a2646970667358221220dc5dc83fbbe604c70c996782bfa512c7cc18a779f3ce0adc9c1036570edfc6d664736f6c63430008040033",
  "linkReferences": {},
  "deployedLinkReferences": {}
}