{
  "_format": "hh-sol-artifact-1",
  "contractName": "DutchAuction",
  "sourceName": "contracts/DutchAuction.sol",
  "abi": [
    {
      "inputs": [
        {
          "internalType": "uint256",
          "name": "_startingPrice",
          "type": "uint256"
        },
        {
          "internalType": "address",
          "name": "_admin",
          "type": "address"
        },
        {
          "internalType": "uint256",
          "name": "_discountRate",
          "type": "uint256"
        }
      ],
      "stateMutability": "nonpayable",
      "type": "constructor"
    },
    {
      "inputs": [],
      "name": "admin",
      "outputs": [
        {
          "internalType": "address",
          "name": "",
          "type": "address"
        }
      ],
      "stateMutability": "view",
      "type": "function"
    },
    {
      "inputs": [],
      "name": "buy",
      "outputs": [],
      "stateMutability": "payable",
      "type": "function"
    },
    {
      "inputs": [],
      "name": "discountRate",
      "outputs": [
        {
          "internalType": "uint256",
          "name": "",
          "type": "uint256"
        }
      ],
      "stateMutability": "view",
      "type": "function"
    },
    {
      "inputs": [],
      "name": "expiresAt",
      "outputs": [
        {
          "internalType": "uint256",
          "name": "",
          "type": "uint256"
        }
      ],
      "stateMutability": "view",
      "type": "function"
    },
    {
      "inputs": [],
      "name": "getPrice",
      "outputs": [
        {
          "internalType": "uint256",
          "name": "",
          "type": "uint256"
        }
      ],
      "stateMutability": "view",
      "type": "function"
    },
    {
      "inputs": [],
      "name": "startAt",
      "outputs": [
        {
          "internalType": "uint256",
          "name": "",
          "type": "uint256"
        }
      ],
      "stateMutability": "view",
      "type": "function"
    }
  ],
  "bytecode": "0x60e06040523480156200001157600080fd5b5060405162000aca38038062000aca833981810160405281019062000037919062000134565b8260008190555081600160006101000a81548173ffffffffffffffffffffffffffffffffffffffff021916908373ffffffffffffffffffffffffffffffffffffffff1602179055508060c0818152505042608081815250506201518042620000a09190620001e4565b60a081815250506201518081620000b8919062000241565b831015620000fd576040517f08c379a0000000000000000000000000000000000000000000000000000000008152600401620000f490620001b1565b60405180910390fd5b50505062000392565b60008151905062000117816200035e565b92915050565b6000815190506200012e8162000378565b92915050565b6000806000606084860312156200014a57600080fd5b60006200015a868287016200011d565b93505060206200016d8682870162000106565b925050604062000180868287016200011d565b9150509250925092565b600062000199602483620001d3565b9150620001a6826200030f565b604082019050919050565b60006020820190508181036000830152620001cc816200018a565b9050919050565b600082825260208201905092915050565b6000620001f182620002d6565b9150620001fe83620002d6565b9250827fffffffffffffffffffffffffffffffffffffffffffffffffffffffffffffffff03821115620002365762000235620002e0565b5b828201905092915050565b60006200024e82620002d6565b91506200025b83620002d6565b9250817fffffffffffffffffffffffffffffffffffffffffffffffffffffffffffffffff0483118215151615620002975762000296620002e0565b5b828202905092915050565b6000620002af82620002b6565b9050919050565b600073ffffffffffffffffffffffffffffffffffffffff82169050919050565b6000819050919050565b7f4e487b7100000000000000000000000000000000000000000000000000000000600052601160045260246000fd5b7f544f4747453a636f6e7374727563746f7220677265617465727468616e73746160008201527f7274696700000000000000000000000000000000000000000000000000000000602082015250565b6200036981620002a2565b81146200037557600080fd5b50565b6200038381620002d6565b81146200038f57600080fd5b50565b60805160a05160c0516106f3620003d76000396000818161019501526103ad01526000818161013d01526101d7015260008181610164015261038901526106f36000f3fe6080604052600436106100555760003560e01c80638622a6891461005a57806398d5fdca14610085578063a6f2ae3a146100b0578063c7446565146100ba578063e6c0e6d5146100e5578063f851a44014610110575b600080fd5b34801561006657600080fd5b5061006f61013b565b60405161007c9190610546565b60405180910390f35b34801561009157600080fd5b5061009a61015f565b6040516100a79190610546565b60405180910390f35b6100b86101d5565b005b3480156100c657600080fd5b506100cf610387565b6040516100dc9190610546565b60405180910390f35b3480156100f157600080fd5b506100fa6103ab565b6040516101079190610546565b60405180910390f35b34801561011c57600080fd5b506101256103cf565b60405161013291906104eb565b60405180910390f35b7f000000000000000000000000000000000000000000000000000000000000000081565b6000807f00000000000000000000000000000000000000000000000000000000000000004261018e91906105cc565b90506000817f00000000000000000000000000000000000000000000000000000000000000006101be9190610572565b9050806000546101ce91906105cc565b9250505090565b7f00000000000000000000000000000000000000000000000000000000000000004210610237576040517f08c379a000000000000000000000000000000000000000000000000000000000815260040161022e90610526565b60405180910390fd5b600061024161015f565b905080341080156102525750600034115b1561029f573373ffffffffffffffffffffffffffffffffffffffff166108fc349081150290604051600060405180830381858888f1935050505015801561029d573d6000803e3d6000fd5b505b803410156102e2576040517f08c379a00000000000000000000000000000000000000000000000000000000081526004016102d990610506565b60405180910390fd5b6102eb336103f5565b600081346102f991906105cc565b9050600081111561034c573373ffffffffffffffffffffffffffffffffffffffff166108fc829081150290604051600060405180830381858888f1935050505015801561034a573d6000803e3d6000fd5b505b600160009054906101000a900473ffffffffffffffffffffffffffffffffffffffff1673ffffffffffffffffffffffffffffffffffffffff16ff5b7f000000000000000000000000000000000000000000000000000000000000000081565b7f000000000000000000000000000000000000000000000000000000000000000081565b600160009054906101000a900473ffffffffffffffffffffffffffffffffffffffff1681565b8060405160240161040691906104eb565b6040516020818303038152906040527f5c19a95c000000000000000000000000000000000000000000000000000000007bffffffffffffffffffffffffffffffffffffffffffffffffffffffff19166020820180517bffffffffffffffffffffffffffffffffffffffffffffffffffffffff83818316178352505050505050565b61049081610600565b82525050565b60006104a3600b83610561565b91506104ae8261066b565b602082019050919050565b60006104c6601c83610561565b91506104d182610694565b602082019050919050565b6104e581610632565b82525050565b60006020820190506105006000830184610487565b92915050565b6000602082019050818103600083015261051f81610496565b9050919050565b6000602082019050818103600083015261053f816104b9565b9050919050565b600060208201905061055b60008301846104dc565b92915050565b600082825260208201905092915050565b600061057d82610632565b915061058883610632565b9250817fffffffffffffffffffffffffffffffffffffffffffffffffffffffffffffffff04831182151516156105c1576105c061063c565b5b828202905092915050565b60006105d782610632565b91506105e283610632565b9250828210156105f5576105f461063c565b5b828203905092915050565b600061060b82610612565b9050919050565b600073ffffffffffffffffffffffffffffffffffffffff82169050919050565b6000819050919050565b7f4e487b7100000000000000000000000000000000000000000000000000000000600052601160045260246000fd5b7f455448203c207072696365000000000000000000000000000000000000000000600082015250565b7f544f4747453a62757928292d3e61756374696f6e20457870697265640000000060008201525056fea26469706673582212200b1e59248f3dc7bad80a79fbe471c7ad72728bcff8f43187be4ca78bd55bf73964736f6c63430008040033",
  "linkReferences": {},
  "deployedLinkReferences": {}
}