{
  "_format": "hh-sol-artifact-1",
  "contractName": "ggETH",
  "sourceName": "contracts/ggeth.sol",
  "abi": [
    {
      "inputs": [
        {
          "internalType": "string",
          "name": "name",
          "type": "string"
        },
        {
          "internalType": "string",
          "name": "symbol",
          "type": "string"
        }
      ],
      "stateMutability": "nonpayable",
      "type": "constructor"
    },
    {
      "anonymous": false,
      "inputs": [
        {
          "indexed": true,
          "internalType": "address",
          "name": "owner",
          "type": "address"
        },
        {
          "indexed": true,
          "internalType": "address",
          "name": "approved",
          "type": "address"
        },
        {
          "indexed": true,
          "internalType": "uint256",
          "name": "tokenId",
          "type": "uint256"
        }
      ],
      "name": "Approval",
      "type": "event"
    },
    {
      "anonymous": false,
      "inputs": [
        {
          "indexed": true,
          "internalType": "address",
          "name": "owner",
          "type": "address"
        },
        {
          "indexed": true,
          "internalType": "address",
          "name": "operator",
          "type": "address"
        },
        {
          "indexed": false,
          "internalType": "bool",
          "name": "approved",
          "type": "bool"
        }
      ],
      "name": "ApprovalForAll",
      "type": "event"
    },
    {
      "anonymous": false,
      "inputs": [
        {
          "indexed": true,
          "internalType": "address",
          "name": "from",
          "type": "address"
        },
        {
          "indexed": true,
          "internalType": "address",
          "name": "to",
          "type": "address"
        },
        {
          "indexed": true,
          "internalType": "uint256",
          "name": "tokenId",
          "type": "uint256"
        }
      ],
      "name": "Transfer",
      "type": "event"
    },
    {
      "inputs": [
        {
          "internalType": "address",
          "name": "to",
          "type": "address"
        },
        {
          "internalType": "uint256",
          "name": "tokenId",
          "type": "uint256"
        }
      ],
      "name": "approve",
      "outputs": [],
      "stateMutability": "nonpayable",
      "type": "function"
    },
    {
      "inputs": [
        {
          "internalType": "address",
          "name": "owner",
          "type": "address"
        }
      ],
      "name": "balanceOf",
      "outputs": [
        {
          "internalType": "uint256",
          "name": "",
          "type": "uint256"
        }
      ],
      "stateMutability": "view",
      "type": "function"
    },
    {
      "inputs": [
        {
          "internalType": "uint256",
          "name": "",
          "type": "uint256"
        }
      ],
      "name": "deposits",
      "outputs": [
        {
          "internalType": "uint256",
          "name": "",
          "type": "uint256"
        }
      ],
      "stateMutability": "view",
      "type": "function"
    },
    {
      "inputs": [
        {
          "internalType": "uint256",
          "name": "tokenId",
          "type": "uint256"
        }
      ],
      "name": "getApproved",
      "outputs": [
        {
          "internalType": "address",
          "name": "",
          "type": "address"
        }
      ],
      "stateMutability": "view",
      "type": "function"
    },
    {
      "inputs": [
        {
          "internalType": "address",
          "name": "owner",
          "type": "address"
        },
        {
          "internalType": "address",
          "name": "operator",
          "type": "address"
        }
      ],
      "name": "isApprovedForAll",
      "outputs": [
        {
          "internalType": "bool",
          "name": "",
          "type": "bool"
        }
      ],
      "stateMutability": "view",
      "type": "function"
    },
    {
      "inputs": [
        {
          "internalType": "address",
          "name": "_account",
          "type": "address"
        },
        {
          "internalType": "uint256",
          "name": "tokenId",
          "type": "uint256"
        },
        {
          "internalType": "uint256",
          "name": "deposit",
          "type": "uint256"
        }
      ],
      "name": "mint",
      "outputs": [],
      "stateMutability": "nonpayable",
      "type": "function"
    },
    {
      "inputs": [],
      "name": "name",
      "outputs": [
        {
          "internalType": "string",
          "name": "",
          "type": "string"
        }
      ],
      "stateMutability": "view",
      "type": "function"
    },
    {
      "inputs": [
        {
          "internalType": "uint256",
          "name": "tokenId",
          "type": "uint256"
        }
      ],
      "name": "ownerOf",
      "outputs": [
        {
          "internalType": "address",
          "name": "",
          "type": "address"
        }
      ],
      "stateMutability": "view",
      "type": "function"
    },
    {
      "inputs": [
        {
          "internalType": "address",
          "name": "from",
          "type": "address"
        },
        {
          "internalType": "address",
          "name": "to",
          "type": "address"
        },
        {
          "internalType": "uint256",
          "name": "tokenId",
          "type": "uint256"
        }
      ],
      "name": "safeTransferFrom",
      "outputs": [],
      "stateMutability": "nonpayable",
      "type": "function"
    },
    {
      "inputs": [
        {
          "internalType": "address",
          "name": "from",
          "type": "address"
        },
        {
          "internalType": "address",
          "name": "to",
          "type": "address"
        },
        {
          "internalType": "uint256",
          "name": "tokenId",
          "type": "uint256"
        },
        {
          "internalType": "bytes",
          "name": "_data",
          "type": "bytes"
        }
      ],
      "name": "safeTransferFrom",
      "outputs": [],
      "stateMutability": "nonpayable",
      "type": "function"
    },
    {
      "inputs": [
        {
          "internalType": "address",
          "name": "operator",
          "type": "address"
        },
        {
          "internalType": "bool",
          "name": "approved",
          "type": "bool"
        }
      ],
      "name": "setApprovalForAll",
      "outputs": [],
      "stateMutability": "nonpayable",
      "type": "function"
    },
    {
      "inputs": [
        {
          "internalType": "bytes4",
          "name": "interfaceId",
          "type": "bytes4"
        }
      ],
      "name": "supportsInterface",
      "outputs": [
        {
          "internalType": "bool",
          "name": "",
          "type": "bool"
        }
      ],
      "stateMutability": "view",
      "type": "function"
    },
    {
      "inputs": [],
      "name": "symbol",
      "outputs": [
        {
          "internalType": "string",
          "name": "",
          "type": "string"
        }
      ],
      "stateMutability": "view",
      "type": "function"
    },
    {
      "inputs": [
        {
          "internalType": "uint256",
          "name": "tokenId",
          "type": "uint256"
        }
      ],
      "name": "tokenURI",
      "outputs": [
        {
          "internalType": "string",
          "name": "",
          "type": "string"
        }
      ],
      "stateMutability": "view",
      "type": "function"
    },
    {
      "inputs": [
        {
          "internalType": "address",
          "name": "from",
          "type": "address"
        },
        {
          "internalType": "address",
          "name": "to",
          "type": "address"
        },
        {
          "internalType": "uint256",
          "name": "tokenId",
          "type": "uint256"
        }
      ],
      "name": "transferFrom",
      "outputs": [],
      "stateMutability": "nonpayable",
      "type": "function"
    }
  ],
  "bytecode": "0x60806040523480156200001157600080fd5b5060405162002bff38038062002bff833981810160405281019062000037919062000197565b818181600090805190602001906200005192919062000075565b5080600190805190602001906200006a92919062000075565b50505050506200037a565b82805462000083906200029f565b90600052602060002090601f016020900481019282620000a75760008555620000f3565b82601f10620000c257805160ff1916838001178555620000f3565b82800160010185558215620000f3579182015b82811115620000f2578251825591602001919060010190620000d5565b5b50905062000102919062000106565b5090565b5b808211156200012157600081600090555060010162000107565b5090565b60006200013c620001368462000233565b6200020a565b9050828152602081018484840111156200015557600080fd5b6200016284828562000269565b509392505050565b600082601f8301126200017c57600080fd5b81516200018e84826020860162000125565b91505092915050565b60008060408385031215620001ab57600080fd5b600083015167ffffffffffffffff811115620001c657600080fd5b620001d4858286016200016a565b925050602083015167ffffffffffffffff811115620001f257600080fd5b62000200858286016200016a565b9150509250929050565b60006200021662000229565b9050620002248282620002d5565b919050565b6000604051905090565b600067ffffffffffffffff8211156200025157620002506200033a565b5b6200025c8262000369565b9050602081019050919050565b60005b83811015620002895780820151818401526020810190506200026c565b8381111562000299576000848401525b50505050565b60006002820490506001821680620002b857607f821691505b60208210811415620002cf57620002ce6200030b565b5b50919050565b620002e08262000369565b810181811067ffffffffffffffff821117156200030257620003016200033a565b5b80604052505050565b7f4e487b7100000000000000000000000000000000000000000000000000000000600052602260045260246000fd5b7f4e487b7100000000000000000000000000000000000000000000000000000000600052604160045260246000fd5b6000601f19601f8301169050919050565b612875806200038a6000396000f3fe608060405234801561001057600080fd5b50600436106100f55760003560e01c80636352211e11610097578063b02c43d011610066578063b02c43d014610282578063b88d4fde146102b2578063c87b56dd146102ce578063e985e9c5146102fe576100f5565b80636352211e146101e857806370a082311461021857806395d89b4114610248578063a22cb46514610266576100f5565b8063095ea7b3116100d3578063095ea7b314610178578063156e29f61461019457806323b872dd146101b057806342842e0e146101cc576100f5565b806301ffc9a7146100fa57806306fdde031461012a578063081812fc14610148575b600080fd5b610114600480360381019061010f9190611a0b565b61032e565b6040516101219190611dee565b60405180910390f35b610132610410565b60405161013f9190611e09565b60405180910390f35b610162600480360381019061015d9190611a5d565b6104a2565b60405161016f9190611d87565b60405180910390f35b610192600480360381019061018d9190611980565b610527565b005b6101ae60048036038101906101a991906119bc565b61063f565b005b6101ca60048036038101906101c5919061187a565b6106f6565b005b6101e660048036038101906101e1919061187a565b610756565b005b61020260048036038101906101fd9190611a5d565b610776565b60405161020f9190611d87565b60405180910390f35b610232600480360381019061022d9190611815565b610828565b60405161023f919061200b565b60405180910390f35b6102506108e0565b60405161025d9190611e09565b60405180910390f35b610280600480360381019061027b9190611944565b610972565b005b61029c60048036038101906102979190611a5d565b610988565b6040516102a9919061200b565b60405180910390f35b6102cc60048036038101906102c791906118c9565b6109a0565b005b6102e860048036038101906102e39190611a5d565b610a02565b6040516102f59190611e09565b60405180910390f35b6103186004803603810190610313919061183e565b610aa9565b6040516103259190611dee565b60405180910390f35b60007f80ac58cd000000000000000000000000000000000000000000000000000000007bffffffffffffffffffffffffffffffffffffffffffffffffffffffff1916827bffffffffffffffffffffffffffffffffffffffffffffffffffffffff191614806103f957507f5b5e139f000000000000000000000000000000000000000000000000000000007bffffffffffffffffffffffffffffffffffffffffffffffffffffffff1916827bffffffffffffffffffffffffffffffffffffffffffffffffffffffff1916145b80610409575061040882610b3d565b5b9050919050565b60606000805461041f90612230565b80601f016020809104026020016040519081016040528092919081815260200182805461044b90612230565b80156104985780601f1061046d57610100808354040283529160200191610498565b820191906000526020600020905b81548152906001019060200180831161047b57829003601f168201915b5050505050905090565b60006104ad82610ba7565b6104ec576040517f08c379a00000000000000000000000000000000000000000000000000000000081526004016104e390611f6b565b60405180910390fd5b6004600083815260200190815260200160002060009054906101000a900473ffffffffffffffffffffffffffffffffffffffff169050919050565b600061053282610776565b90508073ffffffffffffffffffffffffffffffffffffffff168373ffffffffffffffffffffffffffffffffffffffff1614156105a3576040517f08c379a000000000000000000000000000000000000000000000000000000000815260040161059a90611fab565b60405180910390fd5b8073ffffffffffffffffffffffffffffffffffffffff166105c2610c13565b73ffffffffffffffffffffffffffffffffffffffff1614806105f157506105f0816105eb610c13565b610aa9565b5b610630576040517f08c379a000000000000000000000000000000000000000000000000000000000815260040161062790611eeb565b60405180910390fd5b61063a8383610c1b565b505050565b600660009054906101000a900473ffffffffffffffffffffffffffffffffffffffff1673ffffffffffffffffffffffffffffffffffffffff163373ffffffffffffffffffffffffffffffffffffffff16146106cf576040517f08c379a00000000000000000000000000000000000000000000000000000000081526004016106c690611fcb565b60405180910390fd5b6106d98383610cd4565b806007600084815260200190815260200160002081905550505050565b610707610701610c13565b82610eae565b610746576040517f08c379a000000000000000000000000000000000000000000000000000000000815260040161073d90611feb565b60405180910390fd5b610751838383610f8c565b505050565b610771838383604051806020016040528060008152506109a0565b505050565b6000806002600084815260200190815260200160002060009054906101000a900473ffffffffffffffffffffffffffffffffffffffff169050600073ffffffffffffffffffffffffffffffffffffffff168173ffffffffffffffffffffffffffffffffffffffff16141561081f576040517f08c379a000000000000000000000000000000000000000000000000000000000815260040161081690611f2b565b60405180910390fd5b80915050919050565b60008073ffffffffffffffffffffffffffffffffffffffff168273ffffffffffffffffffffffffffffffffffffffff161415610899576040517f08c379a000000000000000000000000000000000000000000000000000000000815260040161089090611f0b565b60405180910390fd5b600360008373ffffffffffffffffffffffffffffffffffffffff1673ffffffffffffffffffffffffffffffffffffffff168152602001908152602001600020549050919050565b6060600180546108ef90612230565b80601f016020809104026020016040519081016040528092919081815260200182805461091b90612230565b80156109685780601f1061093d57610100808354040283529160200191610968565b820191906000526020600020905b81548152906001019060200180831161094b57829003601f168201915b5050505050905090565b61098461097d610c13565b83836111f3565b5050565b60076020528060005260406000206000915090505481565b6109b16109ab610c13565b83610eae565b6109f0576040517f08c379a00000000000000000000000000000000000000000000000000000000081526004016109e790611feb565b60405180910390fd5b6109fc84848484611360565b50505050565b6060610a0d82610ba7565b610a4c576040517f08c379a0000000000000000000000000000000000000000000000000000000008152600401610a4390611f8b565b60405180910390fd5b6000610a566113bc565b90506000815111610a765760405180602001604052806000815250610aa1565b80610a80846113d3565b604051602001610a91929190611d63565b6040516020818303038152906040525b915050919050565b6000600560008473ffffffffffffffffffffffffffffffffffffffff1673ffffffffffffffffffffffffffffffffffffffff16815260200190815260200160002060008373ffffffffffffffffffffffffffffffffffffffff1673ffffffffffffffffffffffffffffffffffffffff16815260200190815260200160002060009054906101000a900460ff16905092915050565b60007f01ffc9a7000000000000000000000000000000000000000000000000000000007bffffffffffffffffffffffffffffffffffffffffffffffffffffffff1916827bffffffffffffffffffffffffffffffffffffffffffffffffffffffff1916149050919050565b60008073ffffffffffffffffffffffffffffffffffffffff166002600084815260200190815260200160002060009054906101000a900473ffffffffffffffffffffffffffffffffffffffff1673ffffffffffffffffffffffffffffffffffffffff1614159050919050565b600033905090565b816004600083815260200190815260200160002060006101000a81548173ffffffffffffffffffffffffffffffffffffffff021916908373ffffffffffffffffffffffffffffffffffffffff160217905550808273ffffffffffffffffffffffffffffffffffffffff16610c8e83610776565b73ffffffffffffffffffffffffffffffffffffffff167f8c5be1e5ebec7d5bd14f71427d1e84f3dd0314c0f7b2291e5b200ac8c7c3b92560405160405180910390a45050565b600073ffffffffffffffffffffffffffffffffffffffff168273ffffffffffffffffffffffffffffffffffffffff161415610d44576040517f08c379a0000000000000000000000000000000000000000000000000000000008152600401610d3b90611f4b565b60405180910390fd5b610d4d81610ba7565b15610d8d576040517f08c379a0000000000000000000000000000000000000000000000000000000008152600401610d8490611e6b565b60405180910390fd5b610d9960008383611580565b6001600360008473ffffffffffffffffffffffffffffffffffffffff1673ffffffffffffffffffffffffffffffffffffffff1681526020019081526020016000206000828254610de991906120bf565b92505081905550816002600083815260200190815260200160002060006101000a81548173ffffffffffffffffffffffffffffffffffffffff021916908373ffffffffffffffffffffffffffffffffffffffff160217905550808273ffffffffffffffffffffffffffffffffffffffff16600073ffffffffffffffffffffffffffffffffffffffff167fddf252ad1be2c89b69c2b068fc378daa952ba7f163c4a11628f55a4df523b3ef60405160405180910390a4610eaa60008383611585565b5050565b6000610eb982610ba7565b610ef8576040517f08c379a0000000000000000000000000000000000000000000000000000000008152600401610eef90611ecb565b60405180910390fd5b6000610f0383610776565b90508073ffffffffffffffffffffffffffffffffffffffff168473ffffffffffffffffffffffffffffffffffffffff161480610f7257508373ffffffffffffffffffffffffffffffffffffffff16610f5a846104a2565b73ffffffffffffffffffffffffffffffffffffffff16145b80610f835750610f828185610aa9565b5b91505092915050565b8273ffffffffffffffffffffffffffffffffffffffff16610fac82610776565b73ffffffffffffffffffffffffffffffffffffffff1614611002576040517f08c379a0000000000000000000000000000000000000000000000000000000008152600401610ff990611e4b565b60405180910390fd5b600073ffffffffffffffffffffffffffffffffffffffff168273ffffffffffffffffffffffffffffffffffffffff161415611072576040517f08c379a000000000000000000000000000000000000000000000000000000000815260040161106990611e8b565b60405180910390fd5b61107d838383611580565b611088600082610c1b565b6001600360008573ffffffffffffffffffffffffffffffffffffffff1673ffffffffffffffffffffffffffffffffffffffff16815260200190815260200160002060008282546110d89190612146565b925050819055506001600360008473ffffffffffffffffffffffffffffffffffffffff1673ffffffffffffffffffffffffffffffffffffffff168152602001908152602001600020600082825461112f91906120bf565b92505081905550816002600083815260200190815260200160002060006101000a81548173ffffffffffffffffffffffffffffffffffffffff021916908373ffffffffffffffffffffffffffffffffffffffff160217905550808273ffffffffffffffffffffffffffffffffffffffff168473ffffffffffffffffffffffffffffffffffffffff167fddf252ad1be2c89b69c2b068fc378daa952ba7f163c4a11628f55a4df523b3ef60405160405180910390a46111ee838383611585565b505050565b8173ffffffffffffffffffffffffffffffffffffffff168373ffffffffffffffffffffffffffffffffffffffff161415611262576040517f08c379a000000000000000000000000000000000000000000000000000000000815260040161125990611eab565b60405180910390fd5b80600560008573ffffffffffffffffffffffffffffffffffffffff1673ffffffffffffffffffffffffffffffffffffffff16815260200190815260200160002060008473ffffffffffffffffffffffffffffffffffffffff1673ffffffffffffffffffffffffffffffffffffffff16815260200190815260200160002060006101000a81548160ff0219169083151502179055508173ffffffffffffffffffffffffffffffffffffffff168373ffffffffffffffffffffffffffffffffffffffff167f17307eab39ab6107e8899845ad3d59bd9653f200f220920489ca2b5937696c31836040516113539190611dee565b60405180910390a3505050565b61136b848484610f8c565b6113778484848461158a565b6113b6576040517f08c379a00000000000000000000000000000000000000000000000000000000081526004016113ad90611e2b565b60405180910390fd5b50505050565b606060405180602001604052806000815250905090565b6060600082141561141b576040518060400160405280600181526020017f3000000000000000000000000000000000000000000000000000000000000000815250905061157b565b600082905060005b6000821461144d57808061143690612293565b915050600a826114469190612115565b9150611423565b60008167ffffffffffffffff81111561148f577f4e487b7100000000000000000000000000000000000000000000000000000000600052604160045260246000fd5b6040519080825280601f01601f1916602001820160405280156114c15781602001600182028036833780820191505090505b5090505b60008514611574576001826114da9190612146565b9150600a856114e991906122dc565b60306114f591906120bf565b60f81b818381518110611531577f4e487b7100000000000000000000000000000000000000000000000000000000600052603260045260246000fd5b60200101907effffffffffffffffffffffffffffffffffffffffffffffffffffffffffffff1916908160001a905350600a8561156d9190612115565b94506114c5565b8093505050505b919050565b505050565b505050565b60006115ab8473ffffffffffffffffffffffffffffffffffffffff16611721565b15611714578373ffffffffffffffffffffffffffffffffffffffff1663150b7a026115d4610c13565b8786866040518563ffffffff1660e01b81526004016115f69493929190611da2565b602060405180830381600087803b15801561161057600080fd5b505af192505050801561164157506040513d601f19601f8201168201806040525081019061163e9190611a34565b60015b6116c4573d8060008114611671576040519150601f19603f3d011682016040523d82523d6000602084013e611676565b606091505b506000815114156116bc576040517f08c379a00000000000000000000000000000000000000000000000000000000081526004016116b390611e2b565b60405180910390fd5b805181602001fd5b63150b7a0260e01b7bffffffffffffffffffffffffffffffffffffffffffffffffffffffff1916817bffffffffffffffffffffffffffffffffffffffffffffffffffffffff191614915050611719565b600190505b949350505050565b6000808273ffffffffffffffffffffffffffffffffffffffff163b119050919050565b60006117576117528461204b565b612026565b90508281526020810184848401111561176f57600080fd5b61177a8482856121ee565b509392505050565b600081359050611791816127e3565b92915050565b6000813590506117a6816127fa565b92915050565b6000813590506117bb81612811565b92915050565b6000815190506117d081612811565b92915050565b600082601f8301126117e757600080fd5b81356117f7848260208601611744565b91505092915050565b60008135905061180f81612828565b92915050565b60006020828403121561182757600080fd5b600061183584828501611782565b91505092915050565b6000806040838503121561185157600080fd5b600061185f85828601611782565b925050602061187085828601611782565b9150509250929050565b60008060006060848603121561188f57600080fd5b600061189d86828701611782565b93505060206118ae86828701611782565b92505060406118bf86828701611800565b9150509250925092565b600080600080608085870312156118df57600080fd5b60006118ed87828801611782565b94505060206118fe87828801611782565b935050604061190f87828801611800565b925050606085013567ffffffffffffffff81111561192c57600080fd5b611938878288016117d6565b91505092959194509250565b6000806040838503121561195757600080fd5b600061196585828601611782565b925050602061197685828601611797565b9150509250929050565b6000806040838503121561199357600080fd5b60006119a185828601611782565b92505060206119b285828601611800565b9150509250929050565b6000806000606084860312156119d157600080fd5b60006119df86828701611782565b93505060206119f086828701611800565b9250506040611a0186828701611800565b9150509250925092565b600060208284031215611a1d57600080fd5b6000611a2b848285016117ac565b91505092915050565b600060208284031215611a4657600080fd5b6000611a54848285016117c1565b91505092915050565b600060208284031215611a6f57600080fd5b6000611a7d84828501611800565b91505092915050565b611a8f8161217a565b82525050565b611a9e8161218c565b82525050565b6000611aaf8261207c565b611ab98185612092565b9350611ac98185602086016121fd565b611ad2816123c9565b840191505092915050565b6000611ae882612087565b611af281856120a3565b9350611b028185602086016121fd565b611b0b816123c9565b840191505092915050565b6000611b2182612087565b611b2b81856120b4565b9350611b3b8185602086016121fd565b80840191505092915050565b6000611b546032836120a3565b9150611b5f826123da565b604082019050919050565b6000611b776025836120a3565b9150611b8282612429565b604082019050919050565b6000611b9a601c836120a3565b9150611ba582612478565b602082019050919050565b6000611bbd6024836120a3565b9150611bc8826124a1565b604082019050919050565b6000611be06019836120a3565b9150611beb826124f0565b602082019050919050565b6000611c03602c836120a3565b9150611c0e82612519565b604082019050919050565b6000611c266038836120a3565b9150611c3182612568565b604082019050919050565b6000611c49602a836120a3565b9150611c54826125b7565b604082019050919050565b6000611c6c6029836120a3565b9150611c7782612606565b604082019050919050565b6000611c8f6020836120a3565b9150611c9a82612655565b602082019050919050565b6000611cb2602c836120a3565b9150611cbd8261267e565b604082019050919050565b6000611cd5602f836120a3565b9150611ce0826126cd565b604082019050919050565b6000611cf86021836120a3565b9150611d038261271c565b604082019050919050565b6000611d1b6016836120a3565b9150611d268261276b565b602082019050919050565b6000611d3e6031836120a3565b9150611d4982612794565b604082019050919050565b611d5d816121e4565b82525050565b6000611d6f8285611b16565b9150611d7b8284611b16565b91508190509392505050565b6000602082019050611d9c6000830184611a86565b92915050565b6000608082019050611db76000830187611a86565b611dc46020830186611a86565b611dd16040830185611d54565b8181036060830152611de38184611aa4565b905095945050505050565b6000602082019050611e036000830184611a95565b92915050565b60006020820190508181036000830152611e238184611add565b905092915050565b60006020820190508181036000830152611e4481611b47565b9050919050565b60006020820190508181036000830152611e6481611b6a565b9050919050565b60006020820190508181036000830152611e8481611b8d565b9050919050565b60006020820190508181036000830152611ea481611bb0565b9050919050565b60006020820190508181036000830152611ec481611bd3565b9050919050565b60006020820190508181036000830152611ee481611bf6565b9050919050565b60006020820190508181036000830152611f0481611c19565b9050919050565b60006020820190508181036000830152611f2481611c3c565b9050919050565b60006020820190508181036000830152611f4481611c5f565b9050919050565b60006020820190508181036000830152611f6481611c82565b9050919050565b60006020820190508181036000830152611f8481611ca5565b9050919050565b60006020820190508181036000830152611fa481611cc8565b9050919050565b60006020820190508181036000830152611fc481611ceb565b9050919050565b60006020820190508181036000830152611fe481611d0e565b9050919050565b6000602082019050818103600083015261200481611d31565b9050919050565b60006020820190506120206000830184611d54565b92915050565b6000612030612041565b905061203c8282612262565b919050565b6000604051905090565b600067ffffffffffffffff8211156120665761206561239a565b5b61206f826123c9565b9050602081019050919050565b600081519050919050565b600081519050919050565b600082825260208201905092915050565b600082825260208201905092915050565b600081905092915050565b60006120ca826121e4565b91506120d5836121e4565b9250827fffffffffffffffffffffffffffffffffffffffffffffffffffffffffffffffff0382111561210a5761210961230d565b5b828201905092915050565b6000612120826121e4565b915061212b836121e4565b92508261213b5761213a61233c565b5b828204905092915050565b6000612151826121e4565b915061215c836121e4565b92508282101561216f5761216e61230d565b5b828203905092915050565b6000612185826121c4565b9050919050565b60008115159050919050565b60007fffffffff0000000000000000000000000000000000000000000000000000000082169050919050565b600073ffffffffffffffffffffffffffffffffffffffff82169050919050565b6000819050919050565b82818337600083830152505050565b60005b8381101561221b578082015181840152602081019050612200565b8381111561222a576000848401525b50505050565b6000600282049050600182168061224857607f821691505b6020821081141561225c5761225b61236b565b5b50919050565b61226b826123c9565b810181811067ffffffffffffffff8211171561228a5761228961239a565b5b80604052505050565b600061229e826121e4565b91507fffffffffffffffffffffffffffffffffffffffffffffffffffffffffffffffff8214156122d1576122d061230d565b5b600182019050919050565b60006122e7826121e4565b91506122f2836121e4565b9250826123025761230161233c565b5b828206905092915050565b7f4e487b7100000000000000000000000000000000000000000000000000000000600052601160045260246000fd5b7f4e487b7100000000000000000000000000000000000000000000000000000000600052601260045260246000fd5b7f4e487b7100000000000000000000000000000000000000000000000000000000600052602260045260246000fd5b7f4e487b7100000000000000000000000000000000000000000000000000000000600052604160045260246000fd5b6000601f19601f8301169050919050565b7f4552433732313a207472616e7366657220746f206e6f6e20455243373231526560008201527f63656976657220696d706c656d656e7465720000000000000000000000000000602082015250565b7f4552433732313a207472616e736665722066726f6d20696e636f72726563742060008201527f6f776e6572000000000000000000000000000000000000000000000000000000602082015250565b7f4552433732313a20746f6b656e20616c7265616479206d696e74656400000000600082015250565b7f4552433732313a207472616e7366657220746f20746865207a65726f2061646460008201527f7265737300000000000000000000000000000000000000000000000000000000602082015250565b7f4552433732313a20617070726f766520746f2063616c6c657200000000000000600082015250565b7f4552433732313a206f70657261746f7220717565727920666f72206e6f6e657860008201527f697374656e7420746f6b656e0000000000000000000000000000000000000000602082015250565b7f4552433732313a20617070726f76652063616c6c6572206973206e6f74206f7760008201527f6e6572206e6f7220617070726f76656420666f7220616c6c0000000000000000602082015250565b7f4552433732313a2062616c616e636520717565727920666f7220746865207a6560008201527f726f206164647265737300000000000000000000000000000000000000000000602082015250565b7f4552433732313a206f776e657220717565727920666f72206e6f6e657869737460008201527f656e7420746f6b656e0000000000000000000000000000000000000000000000602082015250565b7f4552433732313a206d696e7420746f20746865207a65726f2061646472657373600082015250565b7f4552433732313a20617070726f76656420717565727920666f72206e6f6e657860008201527f697374656e7420746f6b656e0000000000000000000000000000000000000000602082015250565b7f4552433732314d657461646174613a2055524920717565727920666f72206e6f60008201527f6e6578697374656e7420746f6b656e0000000000000000000000000000000000602082015250565b7f4552433732313a20617070726f76616c20746f2063757272656e74206f776e6560008201527f7200000000000000000000000000000000000000000000000000000000000000602082015250565b7f544f4747453a3a6d696e743a204e4f545f41444d494e00000000000000000000600082015250565b7f4552433732313a207472616e736665722063616c6c6572206973206e6f74206f60008201527f776e6572206e6f7220617070726f766564000000000000000000000000000000602082015250565b6127ec8161217a565b81146127f757600080fd5b50565b6128038161218c565b811461280e57600080fd5b50565b61281a81612198565b811461282557600080fd5b50565b612831816121e4565b811461283c57600080fd5b5056fea2646970667358221220f9ade30caf21178a131dcf3fb1c74b35ba9c37f2434f2ea973def3bbe31b3ac664736f6c63430008040033",
  "linkReferences": {},
  "deployedLinkReferences": {}
}