{
  "_format": "hh-sol-artifact-1",
  "contractName": "ggETH",
  "sourceName": "contracts/ggeth.sol",
  "abi": [
    {
      "inputs": [
        {
          "internalType": "string",
          "name": "name",
          "type": "string"
        },
        {
          "internalType": "string",
          "name": "symbol",
          "type": "string"
        }
      ],
      "stateMutability": "nonpayable",
      "type": "constructor"
    },
    {
      "anonymous": false,
      "inputs": [
        {
          "indexed": true,
          "internalType": "address",
          "name": "owner",
          "type": "address"
        },
        {
          "indexed": true,
          "internalType": "address",
          "name": "approved",
          "type": "address"
        },
        {
          "indexed": true,
          "internalType": "uint256",
          "name": "tokenId",
          "type": "uint256"
        }
      ],
      "name": "Approval",
      "type": "event"
    },
    {
      "anonymous": false,
      "inputs": [
        {
          "indexed": true,
          "internalType": "address",
          "name": "owner",
          "type": "address"
        },
        {
          "indexed": true,
          "internalType": "address",
          "name": "operator",
          "type": "address"
        },
        {
          "indexed": false,
          "internalType": "bool",
          "name": "approved",
          "type": "bool"
        }
      ],
      "name": "ApprovalForAll",
      "type": "event"
    },
    {
      "anonymous": false,
      "inputs": [
        {
          "indexed": true,
          "internalType": "address",
          "name": "from",
          "type": "address"
        },
        {
          "indexed": true,
          "internalType": "address",
          "name": "to",
          "type": "address"
        },
        {
          "indexed": true,
          "internalType": "uint256",
          "name": "tokenId",
          "type": "uint256"
        }
      ],
      "name": "Transfer",
      "type": "event"
    },
    {
      "inputs": [
        {
          "internalType": "address",
          "name": "to",
          "type": "address"
        },
        {
          "internalType": "uint256",
          "name": "tokenId",
          "type": "uint256"
        }
      ],
      "name": "approve",
      "outputs": [],
      "stateMutability": "nonpayable",
      "type": "function"
    },
    {
      "inputs": [
        {
          "internalType": "address",
          "name": "owner",
          "type": "address"
        }
      ],
      "name": "balanceOf",
      "outputs": [
        {
          "internalType": "uint256",
          "name": "",
          "type": "uint256"
        }
      ],
      "stateMutability": "view",
      "type": "function"
    },
    {
      "inputs": [
        {
          "internalType": "address",
          "name": "",
          "type": "address"
        }
      ],
      "name": "deposits",
      "outputs": [
        {
          "internalType": "uint256",
          "name": "",
          "type": "uint256"
        }
      ],
      "stateMutability": "view",
      "type": "function"
    },
    {
      "inputs": [
        {
          "internalType": "uint256",
          "name": "tokenId",
          "type": "uint256"
        }
      ],
      "name": "getApproved",
      "outputs": [
        {
          "internalType": "address",
          "name": "",
          "type": "address"
        }
      ],
      "stateMutability": "view",
      "type": "function"
    },
    {
      "inputs": [
        {
          "internalType": "address",
          "name": "owner",
          "type": "address"
        },
        {
          "internalType": "address",
          "name": "operator",
          "type": "address"
        }
      ],
      "name": "isApprovedForAll",
      "outputs": [
        {
          "internalType": "bool",
          "name": "",
          "type": "bool"
        }
      ],
      "stateMutability": "view",
      "type": "function"
    },
    {
      "inputs": [
        {
          "internalType": "address",
          "name": "_account",
          "type": "address"
        },
        {
          "internalType": "uint256",
          "name": "_amount",
          "type": "uint256"
        }
      ],
      "name": "mint",
      "outputs": [],
      "stateMutability": "nonpayable",
      "type": "function"
    },
    {
      "inputs": [],
      "name": "name",
      "outputs": [
        {
          "internalType": "string",
          "name": "",
          "type": "string"
        }
      ],
      "stateMutability": "view",
      "type": "function"
    },
    {
      "inputs": [
        {
          "internalType": "uint256",
          "name": "tokenId",
          "type": "uint256"
        }
      ],
      "name": "ownerOf",
      "outputs": [
        {
          "internalType": "address",
          "name": "",
          "type": "address"
        }
      ],
      "stateMutability": "view",
      "type": "function"
    },
    {
      "inputs": [
        {
          "internalType": "address",
          "name": "from",
          "type": "address"
        },
        {
          "internalType": "address",
          "name": "to",
          "type": "address"
        },
        {
          "internalType": "uint256",
          "name": "tokenId",
          "type": "uint256"
        }
      ],
      "name": "safeTransferFrom",
      "outputs": [],
      "stateMutability": "nonpayable",
      "type": "function"
    },
    {
      "inputs": [
        {
          "internalType": "address",
          "name": "from",
          "type": "address"
        },
        {
          "internalType": "address",
          "name": "to",
          "type": "address"
        },
        {
          "internalType": "uint256",
          "name": "tokenId",
          "type": "uint256"
        },
        {
          "internalType": "bytes",
          "name": "_data",
          "type": "bytes"
        }
      ],
      "name": "safeTransferFrom",
      "outputs": [],
      "stateMutability": "nonpayable",
      "type": "function"
    },
    {
      "inputs": [
        {
          "internalType": "address",
          "name": "operator",
          "type": "address"
        },
        {
          "internalType": "bool",
          "name": "approved",
          "type": "bool"
        }
      ],
      "name": "setApprovalForAll",
      "outputs": [],
      "stateMutability": "nonpayable",
      "type": "function"
    },
    {
      "inputs": [
        {
          "internalType": "bytes4",
          "name": "interfaceId",
          "type": "bytes4"
        }
      ],
      "name": "supportsInterface",
      "outputs": [
        {
          "internalType": "bool",
          "name": "",
          "type": "bool"
        }
      ],
      "stateMutability": "view",
      "type": "function"
    },
    {
      "inputs": [],
      "name": "symbol",
      "outputs": [
        {
          "internalType": "string",
          "name": "",
          "type": "string"
        }
      ],
      "stateMutability": "view",
      "type": "function"
    },
    {
      "inputs": [
        {
          "internalType": "uint256",
          "name": "tokenId",
          "type": "uint256"
        }
      ],
      "name": "tokenURI",
      "outputs": [
        {
          "internalType": "string",
          "name": "",
          "type": "string"
        }
      ],
      "stateMutability": "view",
      "type": "function"
    },
    {
      "inputs": [
        {
          "internalType": "address",
          "name": "from",
          "type": "address"
        },
        {
          "internalType": "address",
          "name": "to",
          "type": "address"
        },
        {
          "internalType": "uint256",
          "name": "tokenId",
          "type": "uint256"
        }
      ],
      "name": "transferFrom",
      "outputs": [],
      "stateMutability": "nonpayable",
      "type": "function"
    }
  ],
  "bytecode": "0x60806040523480156200001157600080fd5b5060405162002b9738038062002b97833981810160405281019062000037919062000197565b818181600090805190602001906200005192919062000075565b5080600190805190602001906200006a92919062000075565b50505050506200037a565b82805462000083906200029f565b90600052602060002090601f016020900481019282620000a75760008555620000f3565b82601f10620000c257805160ff1916838001178555620000f3565b82800160010185558215620000f3579182015b82811115620000f2578251825591602001919060010190620000d5565b5b50905062000102919062000106565b5090565b5b808211156200012157600081600090555060010162000107565b5090565b60006200013c620001368462000233565b6200020a565b9050828152602081018484840111156200015557600080fd5b6200016284828562000269565b509392505050565b600082601f8301126200017c57600080fd5b81516200018e84826020860162000125565b91505092915050565b60008060408385031215620001ab57600080fd5b600083015167ffffffffffffffff811115620001c657600080fd5b620001d4858286016200016a565b925050602083015167ffffffffffffffff811115620001f257600080fd5b62000200858286016200016a565b9150509250929050565b60006200021662000229565b9050620002248282620002d5565b919050565b6000604051905090565b600067ffffffffffffffff8211156200025157620002506200033a565b5b6200025c8262000369565b9050602081019050919050565b60005b83811015620002895780820151818401526020810190506200026c565b8381111562000299576000848401525b50505050565b60006002820490506001821680620002b857607f821691505b60208210811415620002cf57620002ce6200030b565b5b50919050565b620002e08262000369565b810181811067ffffffffffffffff821117156200030257620003016200033a565b5b80604052505050565b7f4e487b7100000000000000000000000000000000000000000000000000000000600052602260045260246000fd5b7f4e487b7100000000000000000000000000000000000000000000000000000000600052604160045260246000fd5b6000601f19601f8301169050919050565b61280d806200038a6000396000f3fe608060405234801561001057600080fd5b50600436106100f55760003560e01c80636352211e11610097578063b88d4fde11610066578063b88d4fde14610282578063c87b56dd1461029e578063e985e9c5146102ce578063fc7e286d146102fe576100f5565b80636352211e146101e857806370a082311461021857806395d89b4114610248578063a22cb46514610266576100f5565b8063095ea7b3116100d3578063095ea7b31461017857806323b872dd1461019457806340c10f19146101b057806342842e0e146101cc576100f5565b806301ffc9a7146100fa57806306fdde031461012a578063081812fc14610148575b600080fd5b610114600480360381019061010f91906119a3565b61032e565b6040516101219190611d86565b60405180910390f35b610132610410565b60405161013f9190611da1565b60405180910390f35b610162600480360381019061015d91906119f5565b6104a2565b60405161016f9190611d1f565b60405180910390f35b610192600480360381019061018d9190611967565b610527565b005b6101ae60048036038101906101a99190611861565b61063f565b005b6101ca60048036038101906101c59190611967565b61069f565b005b6101e660048036038101906101e19190611861565b61073d565b005b61020260048036038101906101fd91906119f5565b61075d565b60405161020f9190611d1f565b60405180910390f35b610232600480360381019061022d91906117fc565b61080f565b60405161023f9190611fa3565b60405180910390f35b6102506108c7565b60405161025d9190611da1565b60405180910390f35b610280600480360381019061027b919061192b565b610959565b005b61029c600480360381019061029791906118b0565b61096f565b005b6102b860048036038101906102b391906119f5565b6109d1565b6040516102c59190611da1565b60405180910390f35b6102e860048036038101906102e39190611825565b610a78565b6040516102f59190611d86565b60405180910390f35b610318600480360381019061031391906117fc565b610b0c565b6040516103259190611fa3565b60405180910390f35b60007f80ac58cd000000000000000000000000000000000000000000000000000000007bffffffffffffffffffffffffffffffffffffffffffffffffffffffff1916827bffffffffffffffffffffffffffffffffffffffffffffffffffffffff191614806103f957507f5b5e139f000000000000000000000000000000000000000000000000000000007bffffffffffffffffffffffffffffffffffffffffffffffffffffffff1916827bffffffffffffffffffffffffffffffffffffffffffffffffffffffff1916145b80610409575061040882610b24565b5b9050919050565b60606000805461041f906121c8565b80601f016020809104026020016040519081016040528092919081815260200182805461044b906121c8565b80156104985780601f1061046d57610100808354040283529160200191610498565b820191906000526020600020905b81548152906001019060200180831161047b57829003601f168201915b5050505050905090565b60006104ad82610b8e565b6104ec576040517f08c379a00000000000000000000000000000000000000000000000000000000081526004016104e390611f03565b60405180910390fd5b6004600083815260200190815260200160002060009054906101000a900473ffffffffffffffffffffffffffffffffffffffff169050919050565b60006105328261075d565b90508073ffffffffffffffffffffffffffffffffffffffff168373ffffffffffffffffffffffffffffffffffffffff1614156105a3576040517f08c379a000000000000000000000000000000000000000000000000000000000815260040161059a90611f43565b60405180910390fd5b8073ffffffffffffffffffffffffffffffffffffffff166105c2610bfa565b73ffffffffffffffffffffffffffffffffffffffff1614806105f157506105f0816105eb610bfa565b610a78565b5b610630576040517f08c379a000000000000000000000000000000000000000000000000000000000815260040161062790611e83565b60405180910390fd5b61063a8383610c02565b505050565b61065061064a610bfa565b82610cbb565b61068f576040517f08c379a000000000000000000000000000000000000000000000000000000000815260040161068690611f83565b60405180910390fd5b61069a838383610d99565b505050565b600660009054906101000a900473ffffffffffffffffffffffffffffffffffffffff1673ffffffffffffffffffffffffffffffffffffffff163373ffffffffffffffffffffffffffffffffffffffff161461072f576040517f08c379a000000000000000000000000000000000000000000000000000000000815260040161072690611f63565b60405180910390fd5b6107398282611000565b5050565b6107588383836040518060200160405280600081525061096f565b505050565b6000806002600084815260200190815260200160002060009054906101000a900473ffffffffffffffffffffffffffffffffffffffff169050600073ffffffffffffffffffffffffffffffffffffffff168173ffffffffffffffffffffffffffffffffffffffff161415610806576040517f08c379a00000000000000000000000000000000000000000000000000000000081526004016107fd90611ec3565b60405180910390fd5b80915050919050565b60008073ffffffffffffffffffffffffffffffffffffffff168273ffffffffffffffffffffffffffffffffffffffff161415610880576040517f08c379a000000000000000000000000000000000000000000000000000000000815260040161087790611ea3565b60405180910390fd5b600360008373ffffffffffffffffffffffffffffffffffffffff1673ffffffffffffffffffffffffffffffffffffffff168152602001908152602001600020549050919050565b6060600180546108d6906121c8565b80601f0160208091040260200160405190810160405280929190818152602001828054610902906121c8565b801561094f5780601f106109245761010080835404028352916020019161094f565b820191906000526020600020905b81548152906001019060200180831161093257829003601f168201915b5050505050905090565b61096b610964610bfa565b83836111da565b5050565b61098061097a610bfa565b83610cbb565b6109bf576040517f08c379a00000000000000000000000000000000000000000000000000000000081526004016109b690611f83565b60405180910390fd5b6109cb84848484611347565b50505050565b60606109dc82610b8e565b610a1b576040517f08c379a0000000000000000000000000000000000000000000000000000000008152600401610a1290611f23565b60405180910390fd5b6000610a256113a3565b90506000815111610a455760405180602001604052806000815250610a70565b80610a4f846113ba565b604051602001610a60929190611cfb565b6040516020818303038152906040525b915050919050565b6000600560008473ffffffffffffffffffffffffffffffffffffffff1673ffffffffffffffffffffffffffffffffffffffff16815260200190815260200160002060008373ffffffffffffffffffffffffffffffffffffffff1673ffffffffffffffffffffffffffffffffffffffff16815260200190815260200160002060009054906101000a900460ff16905092915050565b60076020528060005260406000206000915090505481565b60007f01ffc9a7000000000000000000000000000000000000000000000000000000007bffffffffffffffffffffffffffffffffffffffffffffffffffffffff1916827bffffffffffffffffffffffffffffffffffffffffffffffffffffffff1916149050919050565b60008073ffffffffffffffffffffffffffffffffffffffff166002600084815260200190815260200160002060009054906101000a900473ffffffffffffffffffffffffffffffffffffffff1673ffffffffffffffffffffffffffffffffffffffff1614159050919050565b600033905090565b816004600083815260200190815260200160002060006101000a81548173ffffffffffffffffffffffffffffffffffffffff021916908373ffffffffffffffffffffffffffffffffffffffff160217905550808273ffffffffffffffffffffffffffffffffffffffff16610c758361075d565b73ffffffffffffffffffffffffffffffffffffffff167f8c5be1e5ebec7d5bd14f71427d1e84f3dd0314c0f7b2291e5b200ac8c7c3b92560405160405180910390a45050565b6000610cc682610b8e565b610d05576040517f08c379a0000000000000000000000000000000000000000000000000000000008152600401610cfc90611e63565b60405180910390fd5b6000610d108361075d565b90508073ffffffffffffffffffffffffffffffffffffffff168473ffffffffffffffffffffffffffffffffffffffff161480610d7f57508373ffffffffffffffffffffffffffffffffffffffff16610d67846104a2565b73ffffffffffffffffffffffffffffffffffffffff16145b80610d905750610d8f8185610a78565b5b91505092915050565b8273ffffffffffffffffffffffffffffffffffffffff16610db98261075d565b73ffffffffffffffffffffffffffffffffffffffff1614610e0f576040517f08c379a0000000000000000000000000000000000000000000000000000000008152600401610e0690611de3565b60405180910390fd5b600073ffffffffffffffffffffffffffffffffffffffff168273ffffffffffffffffffffffffffffffffffffffff161415610e7f576040517f08c379a0000000000000000000000000000000000000000000000000000000008152600401610e7690611e23565b60405180910390fd5b610e8a838383611567565b610e95600082610c02565b6001600360008573ffffffffffffffffffffffffffffffffffffffff1673ffffffffffffffffffffffffffffffffffffffff1681526020019081526020016000206000828254610ee591906120de565b925050819055506001600360008473ffffffffffffffffffffffffffffffffffffffff1673ffffffffffffffffffffffffffffffffffffffff1681526020019081526020016000206000828254610f3c9190612057565b92505081905550816002600083815260200190815260200160002060006101000a81548173ffffffffffffffffffffffffffffffffffffffff021916908373ffffffffffffffffffffffffffffffffffffffff160217905550808273ffffffffffffffffffffffffffffffffffffffff168473ffffffffffffffffffffffffffffffffffffffff167fddf252ad1be2c89b69c2b068fc378daa952ba7f163c4a11628f55a4df523b3ef60405160405180910390a4610ffb83838361156c565b505050565b600073ffffffffffffffffffffffffffffffffffffffff168273ffffffffffffffffffffffffffffffffffffffff161415611070576040517f08c379a000000000000000000000000000000000000000000000000000000000815260040161106790611ee3565b60405180910390fd5b61107981610b8e565b156110b9576040517f08c379a00000000000000000000000000000000000000000000000000000000081526004016110b090611e03565b60405180910390fd5b6110c560008383611567565b6001600360008473ffffffffffffffffffffffffffffffffffffffff1673ffffffffffffffffffffffffffffffffffffffff16815260200190815260200160002060008282546111159190612057565b92505081905550816002600083815260200190815260200160002060006101000a81548173ffffffffffffffffffffffffffffffffffffffff021916908373ffffffffffffffffffffffffffffffffffffffff160217905550808273ffffffffffffffffffffffffffffffffffffffff16600073ffffffffffffffffffffffffffffffffffffffff167fddf252ad1be2c89b69c2b068fc378daa952ba7f163c4a11628f55a4df523b3ef60405160405180910390a46111d66000838361156c565b5050565b8173ffffffffffffffffffffffffffffffffffffffff168373ffffffffffffffffffffffffffffffffffffffff161415611249576040517f08c379a000000000000000000000000000000000000000000000000000000000815260040161124090611e43565b60405180910390fd5b80600560008573ffffffffffffffffffffffffffffffffffffffff1673ffffffffffffffffffffffffffffffffffffffff16815260200190815260200160002060008473ffffffffffffffffffffffffffffffffffffffff1673ffffffffffffffffffffffffffffffffffffffff16815260200190815260200160002060006101000a81548160ff0219169083151502179055508173ffffffffffffffffffffffffffffffffffffffff168373ffffffffffffffffffffffffffffffffffffffff167f17307eab39ab6107e8899845ad3d59bd9653f200f220920489ca2b5937696c318360405161133a9190611d86565b60405180910390a3505050565b611352848484610d99565b61135e84848484611571565b61139d576040517f08c379a000000000000000000000000000000000000000000000000000000000815260040161139490611dc3565b60405180910390fd5b50505050565b606060405180602001604052806000815250905090565b60606000821415611402576040518060400160405280600181526020017f30000000000000000000000000000000000000000000000000000000000000008152509050611562565b600082905060005b6000821461143457808061141d9061222b565b915050600a8261142d91906120ad565b915061140a565b60008167ffffffffffffffff811115611476577f4e487b7100000000000000000000000000000000000000000000000000000000600052604160045260246000fd5b6040519080825280601f01601f1916602001820160405280156114a85781602001600182028036833780820191505090505b5090505b6000851461155b576001826114c191906120de565b9150600a856114d09190612274565b60306114dc9190612057565b60f81b818381518110611518577f4e487b7100000000000000000000000000000000000000000000000000000000600052603260045260246000fd5b60200101907effffffffffffffffffffffffffffffffffffffffffffffffffffffffffffff1916908160001a905350600a8561155491906120ad565b94506114ac565b8093505050505b919050565b505050565b505050565b60006115928473ffffffffffffffffffffffffffffffffffffffff16611708565b156116fb578373ffffffffffffffffffffffffffffffffffffffff1663150b7a026115bb610bfa565b8786866040518563ffffffff1660e01b81526004016115dd9493929190611d3a565b602060405180830381600087803b1580156115f757600080fd5b505af192505050801561162857506040513d601f19601f8201168201806040525081019061162591906119cc565b60015b6116ab573d8060008114611658576040519150601f19603f3d011682016040523d82523d6000602084013e61165d565b606091505b506000815114156116a3576040517f08c379a000000000000000000000000000000000000000000000000000000000815260040161169a90611dc3565b60405180910390fd5b805181602001fd5b63150b7a0260e01b7bffffffffffffffffffffffffffffffffffffffffffffffffffffffff1916817bffffffffffffffffffffffffffffffffffffffffffffffffffffffff191614915050611700565b600190505b949350505050565b6000808273ffffffffffffffffffffffffffffffffffffffff163b119050919050565b600061173e61173984611fe3565b611fbe565b90508281526020810184848401111561175657600080fd5b611761848285612186565b509392505050565b6000813590506117788161277b565b92915050565b60008135905061178d81612792565b92915050565b6000813590506117a2816127a9565b92915050565b6000815190506117b7816127a9565b92915050565b600082601f8301126117ce57600080fd5b81356117de84826020860161172b565b91505092915050565b6000813590506117f6816127c0565b92915050565b60006020828403121561180e57600080fd5b600061181c84828501611769565b91505092915050565b6000806040838503121561183857600080fd5b600061184685828601611769565b925050602061185785828601611769565b9150509250929050565b60008060006060848603121561187657600080fd5b600061188486828701611769565b935050602061189586828701611769565b92505060406118a6868287016117e7565b9150509250925092565b600080600080608085870312156118c657600080fd5b60006118d487828801611769565b94505060206118e587828801611769565b93505060406118f6878288016117e7565b925050606085013567ffffffffffffffff81111561191357600080fd5b61191f878288016117bd565b91505092959194509250565b6000806040838503121561193e57600080fd5b600061194c85828601611769565b925050602061195d8582860161177e565b9150509250929050565b6000806040838503121561197a57600080fd5b600061198885828601611769565b9250506020611999858286016117e7565b9150509250929050565b6000602082840312156119b557600080fd5b60006119c384828501611793565b91505092915050565b6000602082840312156119de57600080fd5b60006119ec848285016117a8565b91505092915050565b600060208284031215611a0757600080fd5b6000611a15848285016117e7565b91505092915050565b611a2781612112565b82525050565b611a3681612124565b82525050565b6000611a4782612014565b611a51818561202a565b9350611a61818560208601612195565b611a6a81612361565b840191505092915050565b6000611a808261201f565b611a8a818561203b565b9350611a9a818560208601612195565b611aa381612361565b840191505092915050565b6000611ab98261201f565b611ac3818561204c565b9350611ad3818560208601612195565b80840191505092915050565b6000611aec60328361203b565b9150611af782612372565b604082019050919050565b6000611b0f60258361203b565b9150611b1a826123c1565b604082019050919050565b6000611b32601c8361203b565b9150611b3d82612410565b602082019050919050565b6000611b5560248361203b565b9150611b6082612439565b604082019050919050565b6000611b7860198361203b565b9150611b8382612488565b602082019050919050565b6000611b9b602c8361203b565b9150611ba6826124b1565b604082019050919050565b6000611bbe60388361203b565b9150611bc982612500565b604082019050919050565b6000611be1602a8361203b565b9150611bec8261254f565b604082019050919050565b6000611c0460298361203b565b9150611c0f8261259e565b604082019050919050565b6000611c2760208361203b565b9150611c32826125ed565b602082019050919050565b6000611c4a602c8361203b565b9150611c5582612616565b604082019050919050565b6000611c6d602f8361203b565b9150611c7882612665565b604082019050919050565b6000611c9060218361203b565b9150611c9b826126b4565b604082019050919050565b6000611cb360168361203b565b9150611cbe82612703565b602082019050919050565b6000611cd660318361203b565b9150611ce18261272c565b604082019050919050565b611cf58161217c565b82525050565b6000611d078285611aae565b9150611d138284611aae565b91508190509392505050565b6000602082019050611d346000830184611a1e565b92915050565b6000608082019050611d4f6000830187611a1e565b611d5c6020830186611a1e565b611d696040830185611cec565b8181036060830152611d7b8184611a3c565b905095945050505050565b6000602082019050611d9b6000830184611a2d565b92915050565b60006020820190508181036000830152611dbb8184611a75565b905092915050565b60006020820190508181036000830152611ddc81611adf565b9050919050565b60006020820190508181036000830152611dfc81611b02565b9050919050565b60006020820190508181036000830152611e1c81611b25565b9050919050565b60006020820190508181036000830152611e3c81611b48565b9050919050565b60006020820190508181036000830152611e5c81611b6b565b9050919050565b60006020820190508181036000830152611e7c81611b8e565b9050919050565b60006020820190508181036000830152611e9c81611bb1565b9050919050565b60006020820190508181036000830152611ebc81611bd4565b9050919050565b60006020820190508181036000830152611edc81611bf7565b9050919050565b60006020820190508181036000830152611efc81611c1a565b9050919050565b60006020820190508181036000830152611f1c81611c3d565b9050919050565b60006020820190508181036000830152611f3c81611c60565b9050919050565b60006020820190508181036000830152611f5c81611c83565b9050919050565b60006020820190508181036000830152611f7c81611ca6565b9050919050565b60006020820190508181036000830152611f9c81611cc9565b9050919050565b6000602082019050611fb86000830184611cec565b92915050565b6000611fc8611fd9565b9050611fd482826121fa565b919050565b6000604051905090565b600067ffffffffffffffff821115611ffe57611ffd612332565b5b61200782612361565b9050602081019050919050565b600081519050919050565b600081519050919050565b600082825260208201905092915050565b600082825260208201905092915050565b600081905092915050565b60006120628261217c565b915061206d8361217c565b9250827fffffffffffffffffffffffffffffffffffffffffffffffffffffffffffffffff038211156120a2576120a16122a5565b5b828201905092915050565b60006120b88261217c565b91506120c38361217c565b9250826120d3576120d26122d4565b5b828204905092915050565b60006120e98261217c565b91506120f48361217c565b925082821015612107576121066122a5565b5b828203905092915050565b600061211d8261215c565b9050919050565b60008115159050919050565b60007fffffffff0000000000000000000000000000000000000000000000000000000082169050919050565b600073ffffffffffffffffffffffffffffffffffffffff82169050919050565b6000819050919050565b82818337600083830152505050565b60005b838110156121b3578082015181840152602081019050612198565b838111156121c2576000848401525b50505050565b600060028204905060018216806121e057607f821691505b602082108114156121f4576121f3612303565b5b50919050565b61220382612361565b810181811067ffffffffffffffff8211171561222257612221612332565b5b80604052505050565b60006122368261217c565b91507fffffffffffffffffffffffffffffffffffffffffffffffffffffffffffffffff821415612269576122686122a5565b5b600182019050919050565b600061227f8261217c565b915061228a8361217c565b92508261229a576122996122d4565b5b828206905092915050565b7f4e487b7100000000000000000000000000000000000000000000000000000000600052601160045260246000fd5b7f4e487b7100000000000000000000000000000000000000000000000000000000600052601260045260246000fd5b7f4e487b7100000000000000000000000000000000000000000000000000000000600052602260045260246000fd5b7f4e487b7100000000000000000000000000000000000000000000000000000000600052604160045260246000fd5b6000601f19601f8301169050919050565b7f4552433732313a207472616e7366657220746f206e6f6e20455243373231526560008201527f63656976657220696d706c656d656e7465720000000000000000000000000000602082015250565b7f4552433732313a207472616e736665722066726f6d20696e636f72726563742060008201527f6f776e6572000000000000000000000000000000000000000000000000000000602082015250565b7f4552433732313a20746f6b656e20616c7265616479206d696e74656400000000600082015250565b7f4552433732313a207472616e7366657220746f20746865207a65726f2061646460008201527f7265737300000000000000000000000000000000000000000000000000000000602082015250565b7f4552433732313a20617070726f766520746f2063616c6c657200000000000000600082015250565b7f4552433732313a206f70657261746f7220717565727920666f72206e6f6e657860008201527f697374656e7420746f6b656e0000000000000000000000000000000000000000602082015250565b7f4552433732313a20617070726f76652063616c6c6572206973206e6f74206f7760008201527f6e6572206e6f7220617070726f76656420666f7220616c6c0000000000000000602082015250565b7f4552433732313a2062616c616e636520717565727920666f7220746865207a6560008201527f726f206164647265737300000000000000000000000000000000000000000000602082015250565b7f4552433732313a206f776e657220717565727920666f72206e6f6e657869737460008201527f656e7420746f6b656e0000000000000000000000000000000000000000000000602082015250565b7f4552433732313a206d696e7420746f20746865207a65726f2061646472657373600082015250565b7f4552433732313a20617070726f76656420717565727920666f72206e6f6e657860008201527f697374656e7420746f6b656e0000000000000000000000000000000000000000602082015250565b7f4552433732314d657461646174613a2055524920717565727920666f72206e6f60008201527f6e6578697374656e7420746f6b656e0000000000000000000000000000000000602082015250565b7f4552433732313a20617070726f76616c20746f2063757272656e74206f776e6560008201527f7200000000000000000000000000000000000000000000000000000000000000602082015250565b7f544f4747453a3a6d696e743a204e4f545f41444d494e00000000000000000000600082015250565b7f4552433732313a207472616e736665722063616c6c6572206973206e6f74206f60008201527f776e6572206e6f7220617070726f766564000000000000000000000000000000602082015250565b61278481612112565b811461278f57600080fd5b50565b61279b81612124565b81146127a657600080fd5b50565b6127b281612130565b81146127bd57600080fd5b50565b6127c98161217c565b81146127d457600080fd5b5056fea2646970667358221220b032a170cd53d1d046d557acdb48e63c00be91ae40ded59e449dfeed89f7de5464736f6c63430008040033",
  "linkReferences": {},
  "deployedLinkReferences": {}
}