{
  "_format": "hh-sol-artifact-1",
  "contractName": "LoanMaker",
  "sourceName": "contracts/LoanMaker.sol",
  "abi": [
    {
      "inputs": [],
      "stateMutability": "nonpayable",
      "type": "constructor"
    },
    {
      "inputs": [
        {
          "internalType": "uint256",
          "name": "",
          "type": "uint256"
        }
      ],
      "name": "allLoans",
      "outputs": [
        {
          "internalType": "contract togLoan",
          "name": "",
          "type": "address"
        }
      ],
      "stateMutability": "view",
      "type": "function"
    },
    {
      "inputs": [
        {
          "internalType": "uint256",
          "name": "_poolSupplyMax",
          "type": "uint256"
        },
        {
          "internalType": "uint256",
          "name": "_numberBorrowerTokens",
          "type": "uint256"
        },
        {
          "internalType": "uint256",
          "name": "_reserveFactorMantissa",
          "type": "uint256"
        },
        {
          "internalType": "address",
          "name": "_borrower",
          "type": "address"
        },
        {
          "internalType": "address",
          "name": "_borrowerToken",
          "type": "address"
        },
        {
          "internalType": "address",
          "name": "_admin",
          "type": "address"
        }
      ],
      "name": "createLoan",
      "outputs": [
        {
          "internalType": "uint256",
          "name": "",
          "type": "uint256"
        }
      ],
      "stateMutability": "nonpayable",
      "type": "function"
    }
  ],
  "bytecode": "0x608060405234801561001057600080fd5b50336000806101000a81548173ffffffffffffffffffffffffffffffffffffffff021916908373ffffffffffffffffffffffffffffffffffffffff160217905550615fc5806100606000396000f3fe608060405234801561001057600080fd5b50600436106100365760003560e01c80631b8a35481461003b578063de82f98e1461006b575b600080fd5b61005560048036038101906100509190610261565b61009b565b6040516100629190610363565b60405180910390f35b6100856004803603810190610080919061028a565b6100da565b604051610092919061039e565b60405180910390f35b600181815481106100ab57600080fd5b906000526020600020016000915054906101000a900473ffffffffffffffffffffffffffffffffffffffff1681565b60008060009054906101000a900473ffffffffffffffffffffffffffffffffffffffff1673ffffffffffffffffffffffffffffffffffffffff163373ffffffffffffffffffffffffffffffffffffffff161461016b576040517f08c379a00000000000000000000000000000000000000000000000000000000081526004016101629061037e565b60405180910390fd5b60006001805490509050600088888888888860405161018990610229565b610198969594939291906103b9565b604051809103906000f0801580156101b4573d6000803e3d6000fd5b5090506001819080600181540180825580915050600190039060005260206000200160009091909190916101000a81548173ffffffffffffffffffffffffffffffffffffffff021916908373ffffffffffffffffffffffffffffffffffffffff16021790555081925050509695505050505050565b615aad80620004e383390190565b600081359050610246816104b4565b92915050565b60008135905061025b816104cb565b92915050565b60006020828403121561027357600080fd5b60006102818482850161024c565b91505092915050565b60008060008060008060c087890312156102a357600080fd5b60006102b189828a0161024c565b96505060206102c289828a0161024c565b95505060406102d389828a0161024c565b94505060606102e489828a01610237565b93505060806102f589828a01610237565b92505060a061030689828a01610237565b9150509295509295509295565b61031c8161042b565b82525050565b61032b81610467565b82525050565b600061033e60108361041a565b91506103498261048b565b602082019050919050565b61035d8161045d565b82525050565b60006020820190506103786000830184610322565b92915050565b6000602082019050818103600083015261039781610331565b9050919050565b60006020820190506103b36000830184610354565b92915050565b600060c0820190506103ce6000830189610354565b6103db6020830188610354565b6103e86040830187610354565b6103f56060830186610313565b6104026080830185610313565b61040f60a0830184610313565b979650505050505050565b600082825260208201905092915050565b60006104368261043d565b9050919050565b600073ffffffffffffffffffffffffffffffffffffffff82169050919050565b6000819050919050565b600061047282610479565b9050919050565b60006104848261043d565b9050919050565b7f544f4747453a204e4f545f41444d494e00000000000000000000000000000000600082015250565b6104bd8161042b565b81146104c857600080fd5b50565b6104d48161045d565b81146104df57600080fd5b5056fe60a0604052600060085560006009556000600a553480156200002057600080fd5b5060405162005aad38038062005aad83398181016040528101906200004691906200014e565b856003819055508460028190555082600160006101000a81548173ffffffffffffffffffffffffffffffffffffffff021916908373ffffffffffffffffffffffffffffffffffffffff16021790555081600060016101000a81548173ffffffffffffffffffffffffffffffffffffffff021916908373ffffffffffffffffffffffffffffffffffffffff16021790555083600b819055508073ffffffffffffffffffffffffffffffffffffffff1660808173ffffffffffffffffffffffffffffffffffffffff1660601b8152505050505050505062000256565b600081519050620001318162000222565b92915050565b60008151905062000148816200023c565b92915050565b60008060008060008060c087890312156200016857600080fd5b60006200017889828a0162000137565b96505060206200018b89828a0162000137565b95505060406200019e89828a0162000137565b9450506060620001b189828a0162000120565b9350506080620001c489828a0162000120565b92505060a0620001d789828a0162000120565b9150509295509295509295565b6000620001f182620001f8565b9050919050565b600073ffffffffffffffffffffffffffffffffffffffff82169050919050565b6000819050919050565b6200022d81620001e4565b81146200023957600080fd5b50565b620002478162000218565b81146200025357600080fd5b50565b60805160601c615838620002756000396000611d8101526158386000f3fe608060405260043610620001c45760003560e01c80636c2d79941162000103578063b8c36b111162000097578063e574609e116200006d578063e574609e14620005ab578063ef819fae14620005db578063f851a440146200060b578063fc7e286d146200063b57620001c4565b8063b8c36b111462000509578063d12e55aa1462000539578063dd49756e146200057d57620001c4565b80637df1f1b911620000d95780637df1f1b914620004775780639d410bf314620004a75780639eb708bc14620004d5578063a202b4d714620004ef57620001c4565b80636c2d799414620003e757806371126bec146200041757806376888e27146200044757620001c4565b80633ccfd60b116200017b57806359c25c25116200015157806359c25c2514620003275780635c994106146200035757806365bacb47146200038757806368c9b0f314620003b757620001c4565b80633ccfd60b14620002995780634e14f8ea14620002b357806353d9ba8e14620002f757620001c4565b80630f55508d14620001c957806315978dbf14620001d5578063173b990414620001ef57806323972945146200021f57806326987b60146200024f5780632972e924146200027f575b600080fd5b620001d36200067f565b005b348015620001e257600080fd5b50620001ed62000a40565b005b348015620001fc57600080fd5b506200020762000a42565b60405162000216919062002639565b60405180910390f35b3480156200022c57600080fd5b506200023762000a48565b604051620002469190620023c6565b60405180910390f35b3480156200025c57600080fd5b506200026762000a59565b60405162000276919062002639565b60405180910390f35b3480156200028c57600080fd5b506200029762000a5f565b005b348015620002a657600080fd5b50620002b162000d5d565b005b348015620002c057600080fd5b50620002df6004803603810190620002d9919062001eff565b620014f1565b604051620002ee9190620023c6565b60405180910390f35b3480156200030457600080fd5b506200030f62001511565b6040516200031e919062002639565b60405180910390f35b3480156200033457600080fd5b506200033f62001517565b6040516200034e919062002639565b60405180910390f35b3480156200036457600080fd5b506200036f6200151d565b6040516200037e919062002639565b60405180910390f35b3480156200039457600080fd5b506200039f62001523565b604051620003ae919062002639565b60405180910390f35b348015620003c457600080fd5b50620003cf62001529565b604051620003de919062002639565b60405180910390f35b348015620003f457600080fd5b50620003ff6200152f565b6040516200040e919062002302565b60405180910390f35b3480156200042457600080fd5b506200042f62001555565b6040516200043e9190620023e3565b60405180910390f35b3480156200045457600080fd5b506200045f6200157b565b6040516200046e919062002639565b60405180910390f35b3480156200048457600080fd5b506200048f62001581565b6040516200049e919062002302565b60405180910390f35b348015620004b457600080fd5b50620004d36004803603810190620004cd919062001f57565b620015a7565b005b348015620004e257600080fd5b50620004ed62001801565b005b348015620004fc57600080fd5b506200050762001a18565b005b3480156200051657600080fd5b506200052162001aad565b60405162000530919062002639565b60405180910390f35b3480156200054657600080fd5b506200056560048036038101906200055f919062001eff565b62001ab3565b60405162000574919062002639565b60405180910390f35b3480156200058a57600080fd5b50620005a96004803603810190620005a3919062001fca565b62001acb565b005b348015620005b857600080fd5b50620005c362001d73565b604051620005d2919062002639565b60405180910390f35b348015620005e857600080fd5b50620005f362001d79565b60405162000602919062002639565b60405180910390f35b3480156200061857600080fd5b506200062362001d7f565b60405162000632919062002302565b60405180910390f35b3480156200064857600080fd5b5062000667600480360381019062000661919062001eff565b62001da3565b60405162000676919062002639565b60405180910390f35b600160009054906101000a900473ffffffffffffffffffffffffffffffffffffffff1673ffffffffffffffffffffffffffffffffffffffff163373ffffffffffffffffffffffffffffffffffffffff16141562000713576040517f08c379a00000000000000000000000000000000000000000000000000000000081526004016200070a90620024e5565b60405180910390fd5b6000429050600554811180156200072b575060045481105b6200076d576040517f08c379a000000000000000000000000000000000000000000000000000000000815260040162000764906200258f565b60405180910390fd5b6000600e60003373ffffffffffffffffffffffffffffffffffffffff1673ffffffffffffffffffffffffffffffffffffffff1681526020019081526020016000205414620007f2576040517f08c379a0000000000000000000000000000000000000000000000000000000008152600401620007e990620025f5565b60405180910390fd5b34600e60003373ffffffffffffffffffffffffffffffffffffffff1673ffffffffffffffffffffffffffffffffffffffff168152602001908152602001600020600082825462000843919062002709565b92505081905550600060108054905014620008f7576000346010600a600081548092919062000872906200288e565b9190505581548110620008ae577f4e487b7100000000000000000000000000000000000000000000000000000000600052603260045260246000fd5b9060005260206000200154620008c5919062002709565b905060108190806001815401808255809150506001900390600052602060002001600090919091909150555062000921565b60103490806001815401808255809150506001900390600052602060002001600090919091909150555b7fa711d19e52eb41c47e2aa371b9b08c4d54c89b3aa2b93c050dc48f59d6d490a36010600a54815481106200097f577f4e487b7100000000000000000000000000000000000000000000000000000000600052603260045260246000fd5b906000526020600020015460405162000999919062002639565b60405180910390a1600a54600d60003373ffffffffffffffffffffffffffffffffffffffff1673ffffffffffffffffffffffffffffffffffffffff168152602001908152602001600020819055507fe1fffcc4923d04b559f4d29a8bfc6cda04eb5b0d3c460751c2402c5c5cc9109c333460405162000a1a9291906200235c565b60405180910390a1346007600082825462000a36919062002709565b9250508190555050565b565b600b5481565b60008054906101000a900460ff1681565b600a5481565b60008054906101000a900460ff161562000ab0576040517f08c379a000000000000000000000000000000000000000000000000000000000815260040162000aa7906200256d565b60405180910390fd5b6000600e60003373ffffffffffffffffffffffffffffffffffffffff1673ffffffffffffffffffffffffffffffffffffffff16815260200190815260200160002054141562000b36576040517f08c379a000000000000000000000000000000000000000000000000000000000815260040162000b2d90620025b1565b60405180910390fd5b600f60003373ffffffffffffffffffffffffffffffffffffffff1673ffffffffffffffffffffffffffffffffffffffff16815260200190815260200160002060009054906101000a900460ff161562000bc6576040517f08c379a000000000000000000000000000000000000000000000000000000000815260040162000bbd906200245d565b60405180910390fd5b6000429050600654811162000c12576040517f08c379a000000000000000000000000000000000000000000000000000000000815260040162000c09906200258f565b60405180910390fd5b6001600f60003373ffffffffffffffffffffffffffffffffffffffff1673ffffffffffffffffffffffffffffffffffffffff16815260200190815260200160002060006101000a81548160ff021916908315150217905550601160009054906101000a900473ffffffffffffffffffffffffffffffffffffffff1673ffffffffffffffffffffffffffffffffffffffff1663156e29f633600c54600e60003373ffffffffffffffffffffffffffffffffffffffff1673ffffffffffffffffffffffffffffffffffffffff168152602001908152602001600020546040518463ffffffff1660e01b815260040162000d0c9392919062002389565b600060405180830381600087803b15801562000d2757600080fd5b505af115801562000d3c573d6000803e3d6000fd5b50505050600c600081548092919062000d55906200288e565b919050555050565b6000600d60003373ffffffffffffffffffffffffffffffffffffffff1673ffffffffffffffffffffffffffffffffffffffff1681526020019081526020016000205490506000808214801562000e09575060095460085462000dc0919062002766565b6010838154811062000dfb577f4e487b7100000000000000000000000000000000000000000000000000000000600052603260045260246000fd5b906000526020600020015411155b905060006001905060008084111562000f7a5760095460085462000e2e919062002766565b601060018662000e3f919062002766565b8154811062000e77577f4e487b7100000000000000000000000000000000000000000000000000000000600052603260045260246000fd5b9060005260206000200154109150600e60003373ffffffffffffffffffffffffffffffffffffffff1673ffffffffffffffffffffffffffffffffffffffff16815260200190815260200160002054601060018662000ed6919062002766565b8154811062000f0e577f4e487b7100000000000000000000000000000000000000000000000000000000600052603260045260246000fd5b90600052602060002001546010868154811062000f54577f4e487b7100000000000000000000000000000000000000000000000000000000600052603260045260246000fd5b906000526020600020015462000f6b919062002766565b62000f77919062002766565b90505b818062000f845750825b62000fc6576040517f08c379a000000000000000000000000000000000000000000000000000000000815260040162000fbd90620024c3565b60405180910390fd5b6000600e60003373ffffffffffffffffffffffffffffffffffffffff1673ffffffffffffffffffffffffffffffffffffffff16815260200190815260200160002054116200104b576040517f08c379a0000000000000000000000000000000000000000000000000000000008152600401620010429062002529565b60405180910390fd5b60008085111562001253576008548260106001886200106b919062002766565b81548110620010a3577f4e487b7100000000000000000000000000000000000000000000000000000000600052603260045260246000fd5b9060005260206000200154620010ba919062002709565b10620010fd576040517f08c379a0000000000000000000000000000000000000000000000000000000008152600401620010f4906200243b565b60405180910390fd5b600e60003373ffffffffffffffffffffffffffffffffffffffff1673ffffffffffffffffffffffffffffffffffffffff1681526020019081526020016000205460106001876200114e919062002766565b8154811062001186577f4e487b7100000000000000000000000000000000000000000000000000000000600052603260045260246000fd5b9060005260206000200154600854620011a0919062002766565b10620011ec57600e60003373ffffffffffffffffffffffffffffffffffffffff1673ffffffffffffffffffffffffffffffffffffffff1681526020019081526020016000205462001250565b6010600186620011fd919062002766565b8154811062001235577f4e487b7100000000000000000000000000000000000000000000000000000000600052603260045260246000fd5b90600052602060002001546008546200124f919062002766565b5b90505b6000808614620012645781620012a5565b600e60003373ffffffffffffffffffffffffffffffffffffffff1673ffffffffffffffffffffffffffffffffffffffff168152602001908152602001600020545b9050600854811115620012b757600080fd5b80600e60003373ffffffffffffffffffffffffffffffffffffffff1673ffffffffffffffffffffffffffffffffffffffff168152602001908152602001600020600082825462001308919062002766565b925050819055507f884edad9ce6fa2440d8a54cc123490eb96d2768479d49ff9c7366125a94243643382604051620013429291906200235c565b60405180910390a17f884edad9ce6fa2440d8a54cc123490eb96d2768479d49ff9c7366125a942436433600e60003373ffffffffffffffffffffffffffffffffffffffff1673ffffffffffffffffffffffffffffffffffffffff16815260200190815260200160002054604051620013bc9291906200235c565b60405180910390a160008611156200145d577f884edad9ce6fa2440d8a54cc123490eb96d2768479d49ff9c7366125a942436433601060018962001401919062002766565b8154811062001439577f4e487b7100000000000000000000000000000000000000000000000000000000600052603260045260246000fd5b9060005260206000200154604051620014549291906200235c565b60405180910390a15b6000811115620014b0573373ffffffffffffffffffffffffffffffffffffffff166108fc829081150290604051600060405180830381858888f19350505050158015620014ae573d6000803e3d6000fd5b505b7f47bb89f0fc234008e53c79bc3e3dab90e27502d1380a4b3cc35038d57fa03d2a47604051620014e1919062002639565b60405180910390a1505050505050565b600f6020528060005260406000206000915054906101000a900460ff1681565b60055481565b60085481565b60025481565b60075481565b60095481565b600060019054906101000a900473ffffffffffffffffffffffffffffffffffffffff1681565b601160009054906101000a900473ffffffffffffffffffffffffffffffffffffffff1681565b60065481565b600160009054906101000a900473ffffffffffffffffffffffffffffffffffffffff1681565b600160009054906101000a900473ffffffffffffffffffffffffffffffffffffffff1673ffffffffffffffffffffffffffffffffffffffff163373ffffffffffffffffffffffffffffffffffffffff16146200163a576040517f08c379a000000000000000000000000000000000000000000000000000000000815260040162001631906200254b565b60405180910390fd5b60004290506004548111801562001652575060065481105b62001694576040517f08c379a00000000000000000000000000000000000000000000000000000000081526004016200168b906200258f565b60405180910390fd5b60008054906101000a900460ff1615620016e5576040517f08c379a0000000000000000000000000000000000000000000000000000000008152600401620016dc90620025d3565b60405180910390fd5b60016000806101000a81548160ff02191690831515021790555060003373ffffffffffffffffffffffffffffffffffffffff166007546040516200172990620022eb565b60006040518083038185875af1925050503d806000811462001768576040519150601f19603f3d011682016040523d82523d6000602084013e6200176d565b606091505b5050905080620017b4576040517f08c379a0000000000000000000000000000000000000000000000000000000008152600401620017ab906200247f565b60405180910390fd5b7f7c046c1724795ce324ef285dee325dda79387db88db5a1f7714988b13a9b5ecc600754604051620017e7919062002639565b60405180910390a1620017fb848462001dbb565b50505050565b60008054906101000a900460ff161562001852576040517f08c379a00000000000000000000000000000000000000000000000000000000081526004016200184990620024a1565b60405180910390fd5b6000600e60003373ffffffffffffffffffffffffffffffffffffffff1673ffffffffffffffffffffffffffffffffffffffff168152602001908152602001600020541415620018d8576040517f08c379a0000000000000000000000000000000000000000000000000000000008152600401620018cf90620025b1565b60405180910390fd5b6000600e60003373ffffffffffffffffffffffffffffffffffffffff1673ffffffffffffffffffffffffffffffffffffffff1681526020019081526020016000205490506000600e60003373ffffffffffffffffffffffffffffffffffffffff1673ffffffffffffffffffffffffffffffffffffffff1681526020019081526020016000208190555060003373ffffffffffffffffffffffffffffffffffffffff16826040516200198990620022eb565b60006040518083038185875af1925050503d8060008114620019c8576040519150601f19603f3d011682016040523d82523d6000602084013e620019cd565b606091505b505090508062001a14576040517f08c379a000000000000000000000000000000000000000000000000000000000815260040162001a0b906200247f565b60405180910390fd5b5050565b600160009054906101000a900473ffffffffffffffffffffffffffffffffffffffff1673ffffffffffffffffffffffffffffffffffffffff163373ffffffffffffffffffffffffffffffffffffffff161462001aab576040517f08c379a000000000000000000000000000000000000000000000000000000000815260040162001aa2906200254b565b60405180910390fd5b565b60035481565b600d6020528060005260406000206000915090505481565b600160009054906101000a900473ffffffffffffffffffffffffffffffffffffffff1673ffffffffffffffffffffffffffffffffffffffff163373ffffffffffffffffffffffffffffffffffffffff161462001b5e576040517f08c379a000000000000000000000000000000000000000000000000000000000815260040162001b55906200254b565b60405180910390fd5b600254811462001ba5576040517f08c379a000000000000000000000000000000000000000000000000000000000815260040162001b9c9062002507565b60405180910390fd5b60008060019054906101000a900473ffffffffffffffffffffffffffffffffffffffff1673ffffffffffffffffffffffffffffffffffffffff166323b872dd600160009054906101000a900473ffffffffffffffffffffffffffffffffffffffff1630856040518463ffffffff1660e01b815260040162001c29939291906200231f565b602060405180830381600087803b15801562001c4457600080fd5b505af115801562001c59573d6000803e3d6000fd5b505050506040513d601f19601f8201168201806040525081019062001c7f919062001f2b565b90508062001cc4576040517f08c379a000000000000000000000000000000000000000000000000000000000815260040162001cbb9062002617565b60405180910390fd5b7f19893fa936723849d863fc33b53718b15653d646e3b6c4d69baacfa0bc644c40823060405162001cf792919062002656565b60405180910390a142600581905550601860055462001d17919062002709565b600481905550600a60045462001d2e919062002709565b6006819055507f427ab1ad6fb8a2e156dc3f43eabced6adaf640ce9def138f05e1d5210b8e1ea960045460405162001d67919062002639565b60405180910390a15050565b600c5481565b60045481565b7f000000000000000000000000000000000000000000000000000000000000000081565b600e6020528060005260406000206000915090505481565b818160405162001dcb9062001e3a565b62001dd892919062002400565b604051809103906000f08015801562001df5573d6000803e3d6000fd5b50601160006101000a81548173ffffffffffffffffffffffffffffffffffffffff021916908373ffffffffffffffffffffffffffffffffffffffff1602179055505050565b612bff8062002c0483390190565b600062001e5f62001e5984620026ac565b62002683565b90508281526020810184848401111562001e7857600080fd5b62001e8584828562002813565b509392505050565b60008135905062001e9e8162002bb5565b92915050565b60008151905062001eb58162002bcf565b92915050565b600082601f83011262001ecd57600080fd5b813562001edf84826020860162001e48565b91505092915050565b60008135905062001ef98162002be9565b92915050565b60006020828403121562001f1257600080fd5b600062001f228482850162001e8d565b91505092915050565b60006020828403121562001f3e57600080fd5b600062001f4e8482850162001ea4565b91505092915050565b6000806040838503121562001f6b57600080fd5b600083013567ffffffffffffffff81111562001f8657600080fd5b62001f948582860162001ebb565b925050602083013567ffffffffffffffff81111562001fb257600080fd5b62001fc08582860162001ebb565b9150509250929050565b60006020828403121562001fdd57600080fd5b600062001fed8482850162001ee8565b91505092915050565b6200200181620027a1565b82525050565b6200201281620027b5565b82525050565b6200202381620027eb565b82525050565b60006200203682620026e2565b620020428185620026f8565b93506200205481856020860162002822565b6200205f816200293a565b840191505092915050565b600062002079601383620026f8565b915062002086826200294b565b602082019050919050565b6000620020a0600e83620026f8565b9150620020ad8262002974565b602082019050919050565b6000620020c7601283620026f8565b9150620020d4826200299d565b602082019050919050565b6000620020ee601483620026f8565b9150620020fb82620029c6565b602082019050919050565b600062002115600c83620026f8565b91506200212282620029ef565b602082019050919050565b60006200213c601983620026f8565b9150620021498262002a18565b602082019050919050565b600062002163601983620026f8565b9150620021708262002a41565b602082019050919050565b60006200218a601283620026f8565b9150620021978262002a6a565b602082019050919050565b6000620021b1601183620026f8565b9150620021be8262002a93565b602082019050919050565b6000620021d8601883620026f8565b9150620021e58262002abc565b602082019050919050565b6000620021ff601983620026f8565b91506200220c8262002ae5565b602082019050919050565b600062002226600f83620026f8565b9150620022338262002b0e565b602082019050919050565b60006200224d600083620026ed565b91506200225a8262002b37565b600082019050919050565b600062002274601c83620026f8565b9150620022818262002b3a565b602082019050919050565b60006200229b601183620026f8565b9150620022a88262002b63565b602082019050919050565b6000620022c2601683620026f8565b9150620022cf8262002b8c565b602082019050919050565b620022e581620027e1565b82525050565b6000620022f8826200223e565b9150819050919050565b600060208201905062002319600083018462001ff6565b92915050565b600060608201905062002336600083018662001ff6565b62002345602083018562001ff6565b620023546040830184620022da565b949350505050565b600060408201905062002373600083018562001ff6565b620023826020830184620022da565b9392505050565b6000606082019050620023a0600083018662001ff6565b620023af6020830185620022da565b620023be6040830184620022da565b949350505050565b6000602082019050620023dd600083018462002007565b92915050565b6000602082019050620023fa600083018462002018565b92915050565b600060408201905081810360008301526200241c818562002029565b9050818103602083015262002432818462002029565b90509392505050565b6000602082019050818103600083015262002456816200206a565b9050919050565b60006020820190508181036000830152620024788162002091565b9050919050565b600060208201905081810360008301526200249a81620020b8565b9050919050565b60006020820190508181036000830152620024bc81620020df565b9050919050565b60006020820190508181036000830152620024de8162002106565b9050919050565b6000602082019050818103600083015262002500816200212d565b9050919050565b60006020820190508181036000830152620025228162002154565b9050919050565b6000602082019050818103600083015262002544816200217b565b9050919050565b600060208201905081810360008301526200256681620021a2565b9050919050565b600060208201905081810360008301526200258881620021c9565b9050919050565b60006020820190508181036000830152620025aa81620021f0565b9050919050565b60006020820190508181036000830152620025cc8162002217565b9050919050565b60006020820190508181036000830152620025ee8162002265565b9050919050565b6000602082019050818103600083015262002610816200228c565b9050919050565b600060208201905081810360008301526200263281620022b3565b9050919050565b6000602082019050620026506000830184620022da565b92915050565b60006040820190506200266d6000830185620022da565b6200267c602083018462001ff6565b9392505050565b60006200268f620026a2565b90506200269d828262002858565b919050565b6000604051905090565b600067ffffffffffffffff821115620026ca57620026c96200290b565b5b620026d5826200293a565b9050602081019050919050565b600081519050919050565b600081905092915050565b600082825260208201905092915050565b60006200271682620027e1565b91506200272383620027e1565b9250827fffffffffffffffffffffffffffffffffffffffffffffffffffffffffffffffff038211156200275b576200275a620028dc565b5b828201905092915050565b60006200277382620027e1565b91506200278083620027e1565b925082821015620027965762002795620028dc565b5b828203905092915050565b6000620027ae82620027c1565b9050919050565b60008115159050919050565b600073ffffffffffffffffffffffffffffffffffffffff82169050919050565b6000819050919050565b6000620027f882620027ff565b9050919050565b60006200280c82620027c1565b9050919050565b82818337600083830152505050565b60005b838110156200284257808201518184015260208101905062002825565b8381111562002852576000848401525b50505050565b62002863826200293a565b810181811067ffffffffffffffff821117156200288557620028846200290b565b5b80604052505050565b60006200289b82620027e1565b91507fffffffffffffffffffffffffffffffffffffffffffffffffffffffffffffffff821415620028d157620028d0620028dc565b5b600182019050919050565b7f4e487b7100000000000000000000000000000000000000000000000000000000600052601160045260246000fd5b7f4e487b7100000000000000000000000000000000000000000000000000000000600052604160045260246000fd5b6000601f19601f8301169050919050565b7f63616e2774207769746864726177206d6f726500000000000000000000000000600082015250565b7f544f4747453a20436c41494d4544000000000000000000000000000000000000600082015250565b7f544f4747453a204641494c45445f53454e440000000000000000000000000000600082015250565b7f544f4747453a204c4f414e5f4143434550544544000000000000000000000000600082015250565b7f6e6f7420656c696769626c650000000000000000000000000000000000000000600082015250565b7f544f4747453a20424f52524f5745525f464f5242494444454e00000000000000600082015250565b7f544f4747453a204e4f545f415050524f5645445f56414c554500000000000000600082015250565b7f696e73756666696369656e742046756e64730000000000000000000000000000600082015250565b7f544f4747453a2070726f68696269746564000000000000000000000000000000600082015250565b7f544f4747453a204c4f414e5f4e4f545f41434345505445440000000000000000600082015250565b7f544f4747453a204f55545f4f465f54494d455f57494e444f5700000000000000600082015250565b7f544f4747453a204e4f5f56414c55450000000000000000000000000000000000600082015250565b50565b7f544f4747453a204c4f414e5f414c52454144595f414343455054454400000000600082015250565b7f616c7265616479206465706f7369746564000000000000000000000000000000600082015250565b7f544f4747453a205452414e534645525f4641494c454400000000000000000000600082015250565b62002bc081620027a1565b811462002bcc57600080fd5b50565b62002bda81620027b5565b811462002be657600080fd5b50565b62002bf481620027e1565b811462002c0057600080fd5b5056fe60806040523480156200001157600080fd5b5060405162002bff38038062002bff833981810160405281019062000037919062000197565b818181600090805190602001906200005192919062000075565b5080600190805190602001906200006a92919062000075565b50505050506200037a565b82805462000083906200029f565b90600052602060002090601f016020900481019282620000a75760008555620000f3565b82601f10620000c257805160ff1916838001178555620000f3565b82800160010185558215620000f3579182015b82811115620000f2578251825591602001919060010190620000d5565b5b50905062000102919062000106565b5090565b5b808211156200012157600081600090555060010162000107565b5090565b60006200013c620001368462000233565b6200020a565b9050828152602081018484840111156200015557600080fd5b6200016284828562000269565b509392505050565b600082601f8301126200017c57600080fd5b81516200018e84826020860162000125565b91505092915050565b60008060408385031215620001ab57600080fd5b600083015167ffffffffffffffff811115620001c657600080fd5b620001d4858286016200016a565b925050602083015167ffffffffffffffff811115620001f257600080fd5b62000200858286016200016a565b9150509250929050565b60006200021662000229565b9050620002248282620002d5565b919050565b6000604051905090565b600067ffffffffffffffff8211156200025157620002506200033a565b5b6200025c8262000369565b9050602081019050919050565b60005b83811015620002895780820151818401526020810190506200026c565b8381111562000299576000848401525b50505050565b60006002820490506001821680620002b857607f821691505b60208210811415620002cf57620002ce6200030b565b5b50919050565b620002e08262000369565b810181811067ffffffffffffffff821117156200030257620003016200033a565b5b80604052505050565b7f4e487b7100000000000000000000000000000000000000000000000000000000600052602260045260246000fd5b7f4e487b7100000000000000000000000000000000000000000000000000000000600052604160045260246000fd5b6000601f19601f8301169050919050565b612875806200038a6000396000f3fe608060405234801561001057600080fd5b50600436106100f55760003560e01c80636352211e11610097578063b02c43d011610066578063b02c43d014610282578063b88d4fde146102b2578063c87b56dd146102ce578063e985e9c5146102fe576100f5565b80636352211e146101e857806370a082311461021857806395d89b4114610248578063a22cb46514610266576100f5565b8063095ea7b3116100d3578063095ea7b314610178578063156e29f61461019457806323b872dd146101b057806342842e0e146101cc576100f5565b806301ffc9a7146100fa57806306fdde031461012a578063081812fc14610148575b600080fd5b610114600480360381019061010f9190611a0b565b61032e565b6040516101219190611dee565b60405180910390f35b610132610410565b60405161013f9190611e09565b60405180910390f35b610162600480360381019061015d9190611a5d565b6104a2565b60405161016f9190611d87565b60405180910390f35b610192600480360381019061018d9190611980565b610527565b005b6101ae60048036038101906101a991906119bc565b61063f565b005b6101ca60048036038101906101c5919061187a565b6106f6565b005b6101e660048036038101906101e1919061187a565b610756565b005b61020260048036038101906101fd9190611a5d565b610776565b60405161020f9190611d87565b60405180910390f35b610232600480360381019061022d9190611815565b610828565b60405161023f919061200b565b60405180910390f35b6102506108e0565b60405161025d9190611e09565b60405180910390f35b610280600480360381019061027b9190611944565b610972565b005b61029c60048036038101906102979190611a5d565b610988565b6040516102a9919061200b565b60405180910390f35b6102cc60048036038101906102c791906118c9565b6109a0565b005b6102e860048036038101906102e39190611a5d565b610a02565b6040516102f59190611e09565b60405180910390f35b6103186004803603810190610313919061183e565b610aa9565b6040516103259190611dee565b60405180910390f35b60007f80ac58cd000000000000000000000000000000000000000000000000000000007bffffffffffffffffffffffffffffffffffffffffffffffffffffffff1916827bffffffffffffffffffffffffffffffffffffffffffffffffffffffff191614806103f957507f5b5e139f000000000000000000000000000000000000000000000000000000007bffffffffffffffffffffffffffffffffffffffffffffffffffffffff1916827bffffffffffffffffffffffffffffffffffffffffffffffffffffffff1916145b80610409575061040882610b3d565b5b9050919050565b60606000805461041f90612230565b80601f016020809104026020016040519081016040528092919081815260200182805461044b90612230565b80156104985780601f1061046d57610100808354040283529160200191610498565b820191906000526020600020905b81548152906001019060200180831161047b57829003601f168201915b5050505050905090565b60006104ad82610ba7565b6104ec576040517f08c379a00000000000000000000000000000000000000000000000000000000081526004016104e390611f6b565b60405180910390fd5b6004600083815260200190815260200160002060009054906101000a900473ffffffffffffffffffffffffffffffffffffffff169050919050565b600061053282610776565b90508073ffffffffffffffffffffffffffffffffffffffff168373ffffffffffffffffffffffffffffffffffffffff1614156105a3576040517f08c379a000000000000000000000000000000000000000000000000000000000815260040161059a90611fab565b60405180910390fd5b8073ffffffffffffffffffffffffffffffffffffffff166105c2610c13565b73ffffffffffffffffffffffffffffffffffffffff1614806105f157506105f0816105eb610c13565b610aa9565b5b610630576040517f08c379a000000000000000000000000000000000000000000000000000000000815260040161062790611eeb565b60405180910390fd5b61063a8383610c1b565b505050565b600660009054906101000a900473ffffffffffffffffffffffffffffffffffffffff1673ffffffffffffffffffffffffffffffffffffffff163373ffffffffffffffffffffffffffffffffffffffff16146106cf576040517f08c379a00000000000000000000000000000000000000000000000000000000081526004016106c690611fcb565b60405180910390fd5b6106d98383610cd4565b806007600084815260200190815260200160002081905550505050565b610707610701610c13565b82610eae565b610746576040517f08c379a000000000000000000000000000000000000000000000000000000000815260040161073d90611feb565b60405180910390fd5b610751838383610f8c565b505050565b610771838383604051806020016040528060008152506109a0565b505050565b6000806002600084815260200190815260200160002060009054906101000a900473ffffffffffffffffffffffffffffffffffffffff169050600073ffffffffffffffffffffffffffffffffffffffff168173ffffffffffffffffffffffffffffffffffffffff16141561081f576040517f08c379a000000000000000000000000000000000000000000000000000000000815260040161081690611f2b565b60405180910390fd5b80915050919050565b60008073ffffffffffffffffffffffffffffffffffffffff168273ffffffffffffffffffffffffffffffffffffffff161415610899576040517f08c379a000000000000000000000000000000000000000000000000000000000815260040161089090611f0b565b60405180910390fd5b600360008373ffffffffffffffffffffffffffffffffffffffff1673ffffffffffffffffffffffffffffffffffffffff168152602001908152602001600020549050919050565b6060600180546108ef90612230565b80601f016020809104026020016040519081016040528092919081815260200182805461091b90612230565b80156109685780601f1061093d57610100808354040283529160200191610968565b820191906000526020600020905b81548152906001019060200180831161094b57829003601f168201915b5050505050905090565b61098461097d610c13565b83836111f3565b5050565b60076020528060005260406000206000915090505481565b6109b16109ab610c13565b83610eae565b6109f0576040517f08c379a00000000000000000000000000000000000000000000000000000000081526004016109e790611feb565b60405180910390fd5b6109fc84848484611360565b50505050565b6060610a0d82610ba7565b610a4c576040517f08c379a0000000000000000000000000000000000000000000000000000000008152600401610a4390611f8b565b60405180910390fd5b6000610a566113bc565b90506000815111610a765760405180602001604052806000815250610aa1565b80610a80846113d3565b604051602001610a91929190611d63565b6040516020818303038152906040525b915050919050565b6000600560008473ffffffffffffffffffffffffffffffffffffffff1673ffffffffffffffffffffffffffffffffffffffff16815260200190815260200160002060008373ffffffffffffffffffffffffffffffffffffffff1673ffffffffffffffffffffffffffffffffffffffff16815260200190815260200160002060009054906101000a900460ff16905092915050565b60007f01ffc9a7000000000000000000000000000000000000000000000000000000007bffffffffffffffffffffffffffffffffffffffffffffffffffffffff1916827bffffffffffffffffffffffffffffffffffffffffffffffffffffffff1916149050919050565b60008073ffffffffffffffffffffffffffffffffffffffff166002600084815260200190815260200160002060009054906101000a900473ffffffffffffffffffffffffffffffffffffffff1673ffffffffffffffffffffffffffffffffffffffff1614159050919050565b600033905090565b816004600083815260200190815260200160002060006101000a81548173ffffffffffffffffffffffffffffffffffffffff021916908373ffffffffffffffffffffffffffffffffffffffff160217905550808273ffffffffffffffffffffffffffffffffffffffff16610c8e83610776565b73ffffffffffffffffffffffffffffffffffffffff167f8c5be1e5ebec7d5bd14f71427d1e84f3dd0314c0f7b2291e5b200ac8c7c3b92560405160405180910390a45050565b600073ffffffffffffffffffffffffffffffffffffffff168273ffffffffffffffffffffffffffffffffffffffff161415610d44576040517f08c379a0000000000000000000000000000000000000000000000000000000008152600401610d3b90611f4b565b60405180910390fd5b610d4d81610ba7565b15610d8d576040517f08c379a0000000000000000000000000000000000000000000000000000000008152600401610d8490611e6b565b60405180910390fd5b610d9960008383611580565b6001600360008473ffffffffffffffffffffffffffffffffffffffff1673ffffffffffffffffffffffffffffffffffffffff1681526020019081526020016000206000828254610de991906120bf565b92505081905550816002600083815260200190815260200160002060006101000a81548173ffffffffffffffffffffffffffffffffffffffff021916908373ffffffffffffffffffffffffffffffffffffffff160217905550808273ffffffffffffffffffffffffffffffffffffffff16600073ffffffffffffffffffffffffffffffffffffffff167fddf252ad1be2c89b69c2b068fc378daa952ba7f163c4a11628f55a4df523b3ef60405160405180910390a4610eaa60008383611585565b5050565b6000610eb982610ba7565b610ef8576040517f08c379a0000000000000000000000000000000000000000000000000000000008152600401610eef90611ecb565b60405180910390fd5b6000610f0383610776565b90508073ffffffffffffffffffffffffffffffffffffffff168473ffffffffffffffffffffffffffffffffffffffff161480610f7257508373ffffffffffffffffffffffffffffffffffffffff16610f5a846104a2565b73ffffffffffffffffffffffffffffffffffffffff16145b80610f835750610f828185610aa9565b5b91505092915050565b8273ffffffffffffffffffffffffffffffffffffffff16610fac82610776565b73ffffffffffffffffffffffffffffffffffffffff1614611002576040517f08c379a0000000000000000000000000000000000000000000000000000000008152600401610ff990611e4b565b60405180910390fd5b600073ffffffffffffffffffffffffffffffffffffffff168273ffffffffffffffffffffffffffffffffffffffff161415611072576040517f08c379a000000000000000000000000000000000000000000000000000000000815260040161106990611e8b565b60405180910390fd5b61107d838383611580565b611088600082610c1b565b6001600360008573ffffffffffffffffffffffffffffffffffffffff1673ffffffffffffffffffffffffffffffffffffffff16815260200190815260200160002060008282546110d89190612146565b925050819055506001600360008473ffffffffffffffffffffffffffffffffffffffff1673ffffffffffffffffffffffffffffffffffffffff168152602001908152602001600020600082825461112f91906120bf565b92505081905550816002600083815260200190815260200160002060006101000a81548173ffffffffffffffffffffffffffffffffffffffff021916908373ffffffffffffffffffffffffffffffffffffffff160217905550808273ffffffffffffffffffffffffffffffffffffffff168473ffffffffffffffffffffffffffffffffffffffff167fddf252ad1be2c89b69c2b068fc378daa952ba7f163c4a11628f55a4df523b3ef60405160405180910390a46111ee838383611585565b505050565b8173ffffffffffffffffffffffffffffffffffffffff168373ffffffffffffffffffffffffffffffffffffffff161415611262576040517f08c379a000000000000000000000000000000000000000000000000000000000815260040161125990611eab565b60405180910390fd5b80600560008573ffffffffffffffffffffffffffffffffffffffff1673ffffffffffffffffffffffffffffffffffffffff16815260200190815260200160002060008473ffffffffffffffffffffffffffffffffffffffff1673ffffffffffffffffffffffffffffffffffffffff16815260200190815260200160002060006101000a81548160ff0219169083151502179055508173ffffffffffffffffffffffffffffffffffffffff168373ffffffffffffffffffffffffffffffffffffffff167f17307eab39ab6107e8899845ad3d59bd9653f200f220920489ca2b5937696c31836040516113539190611dee565b60405180910390a3505050565b61136b848484610f8c565b6113778484848461158a565b6113b6576040517f08c379a00000000000000000000000000000000000000000000000000000000081526004016113ad90611e2b565b60405180910390fd5b50505050565b606060405180602001604052806000815250905090565b6060600082141561141b576040518060400160405280600181526020017f3000000000000000000000000000000000000000000000000000000000000000815250905061157b565b600082905060005b6000821461144d57808061143690612293565b915050600a826114469190612115565b9150611423565b60008167ffffffffffffffff81111561148f577f4e487b7100000000000000000000000000000000000000000000000000000000600052604160045260246000fd5b6040519080825280601f01601f1916602001820160405280156114c15781602001600182028036833780820191505090505b5090505b60008514611574576001826114da9190612146565b9150600a856114e991906122dc565b60306114f591906120bf565b60f81b818381518110611531577f4e487b7100000000000000000000000000000000000000000000000000000000600052603260045260246000fd5b60200101907effffffffffffffffffffffffffffffffffffffffffffffffffffffffffffff1916908160001a905350600a8561156d9190612115565b94506114c5565b8093505050505b919050565b505050565b505050565b60006115ab8473ffffffffffffffffffffffffffffffffffffffff16611721565b15611714578373ffffffffffffffffffffffffffffffffffffffff1663150b7a026115d4610c13565b8786866040518563ffffffff1660e01b81526004016115f69493929190611da2565b602060405180830381600087803b15801561161057600080fd5b505af192505050801561164157506040513d601f19601f8201168201806040525081019061163e9190611a34565b60015b6116c4573d8060008114611671576040519150601f19603f3d011682016040523d82523d6000602084013e611676565b606091505b506000815114156116bc576040517f08c379a00000000000000000000000000000000000000000000000000000000081526004016116b390611e2b565b60405180910390fd5b805181602001fd5b63150b7a0260e01b7bffffffffffffffffffffffffffffffffffffffffffffffffffffffff1916817bffffffffffffffffffffffffffffffffffffffffffffffffffffffff191614915050611719565b600190505b949350505050565b6000808273ffffffffffffffffffffffffffffffffffffffff163b119050919050565b60006117576117528461204b565b612026565b90508281526020810184848401111561176f57600080fd5b61177a8482856121ee565b509392505050565b600081359050611791816127e3565b92915050565b6000813590506117a6816127fa565b92915050565b6000813590506117bb81612811565b92915050565b6000815190506117d081612811565b92915050565b600082601f8301126117e757600080fd5b81356117f7848260208601611744565b91505092915050565b60008135905061180f81612828565b92915050565b60006020828403121561182757600080fd5b600061183584828501611782565b91505092915050565b6000806040838503121561185157600080fd5b600061185f85828601611782565b925050602061187085828601611782565b9150509250929050565b60008060006060848603121561188f57600080fd5b600061189d86828701611782565b93505060206118ae86828701611782565b92505060406118bf86828701611800565b9150509250925092565b600080600080608085870312156118df57600080fd5b60006118ed87828801611782565b94505060206118fe87828801611782565b935050604061190f87828801611800565b925050606085013567ffffffffffffffff81111561192c57600080fd5b611938878288016117d6565b91505092959194509250565b6000806040838503121561195757600080fd5b600061196585828601611782565b925050602061197685828601611797565b9150509250929050565b6000806040838503121561199357600080fd5b60006119a185828601611782565b92505060206119b285828601611800565b9150509250929050565b6000806000606084860312156119d157600080fd5b60006119df86828701611782565b93505060206119f086828701611800565b9250506040611a0186828701611800565b9150509250925092565b600060208284031215611a1d57600080fd5b6000611a2b848285016117ac565b91505092915050565b600060208284031215611a4657600080fd5b6000611a54848285016117c1565b91505092915050565b600060208284031215611a6f57600080fd5b6000611a7d84828501611800565b91505092915050565b611a8f8161217a565b82525050565b611a9e8161218c565b82525050565b6000611aaf8261207c565b611ab98185612092565b9350611ac98185602086016121fd565b611ad2816123c9565b840191505092915050565b6000611ae882612087565b611af281856120a3565b9350611b028185602086016121fd565b611b0b816123c9565b840191505092915050565b6000611b2182612087565b611b2b81856120b4565b9350611b3b8185602086016121fd565b80840191505092915050565b6000611b546032836120a3565b9150611b5f826123da565b604082019050919050565b6000611b776025836120a3565b9150611b8282612429565b604082019050919050565b6000611b9a601c836120a3565b9150611ba582612478565b602082019050919050565b6000611bbd6024836120a3565b9150611bc8826124a1565b604082019050919050565b6000611be06019836120a3565b9150611beb826124f0565b602082019050919050565b6000611c03602c836120a3565b9150611c0e82612519565b604082019050919050565b6000611c266038836120a3565b9150611c3182612568565b604082019050919050565b6000611c49602a836120a3565b9150611c54826125b7565b604082019050919050565b6000611c6c6029836120a3565b9150611c7782612606565b604082019050919050565b6000611c8f6020836120a3565b9150611c9a82612655565b602082019050919050565b6000611cb2602c836120a3565b9150611cbd8261267e565b604082019050919050565b6000611cd5602f836120a3565b9150611ce0826126cd565b604082019050919050565b6000611cf86021836120a3565b9150611d038261271c565b604082019050919050565b6000611d1b6016836120a3565b9150611d268261276b565b602082019050919050565b6000611d3e6031836120a3565b9150611d4982612794565b604082019050919050565b611d5d816121e4565b82525050565b6000611d6f8285611b16565b9150611d7b8284611b16565b91508190509392505050565b6000602082019050611d9c6000830184611a86565b92915050565b6000608082019050611db76000830187611a86565b611dc46020830186611a86565b611dd16040830185611d54565b8181036060830152611de38184611aa4565b905095945050505050565b6000602082019050611e036000830184611a95565b92915050565b60006020820190508181036000830152611e238184611add565b905092915050565b60006020820190508181036000830152611e4481611b47565b9050919050565b60006020820190508181036000830152611e6481611b6a565b9050919050565b60006020820190508181036000830152611e8481611b8d565b9050919050565b60006020820190508181036000830152611ea481611bb0565b9050919050565b60006020820190508181036000830152611ec481611bd3565b9050919050565b60006020820190508181036000830152611ee481611bf6565b9050919050565b60006020820190508181036000830152611f0481611c19565b9050919050565b60006020820190508181036000830152611f2481611c3c565b9050919050565b60006020820190508181036000830152611f4481611c5f565b9050919050565b60006020820190508181036000830152611f6481611c82565b9050919050565b60006020820190508181036000830152611f8481611ca5565b9050919050565b60006020820190508181036000830152611fa481611cc8565b9050919050565b60006020820190508181036000830152611fc481611ceb565b9050919050565b60006020820190508181036000830152611fe481611d0e565b9050919050565b6000602082019050818103600083015261200481611d31565b9050919050565b60006020820190506120206000830184611d54565b92915050565b6000612030612041565b905061203c8282612262565b919050565b6000604051905090565b600067ffffffffffffffff8211156120665761206561239a565b5b61206f826123c9565b9050602081019050919050565b600081519050919050565b600081519050919050565b600082825260208201905092915050565b600082825260208201905092915050565b600081905092915050565b60006120ca826121e4565b91506120d5836121e4565b9250827fffffffffffffffffffffffffffffffffffffffffffffffffffffffffffffffff0382111561210a5761210961230d565b5b828201905092915050565b6000612120826121e4565b915061212b836121e4565b92508261213b5761213a61233c565b5b828204905092915050565b6000612151826121e4565b915061215c836121e4565b92508282101561216f5761216e61230d565b5b828203905092915050565b6000612185826121c4565b9050919050565b60008115159050919050565b60007fffffffff0000000000000000000000000000000000000000000000000000000082169050919050565b600073ffffffffffffffffffffffffffffffffffffffff82169050919050565b6000819050919050565b82818337600083830152505050565b60005b8381101561221b578082015181840152602081019050612200565b8381111561222a576000848401525b50505050565b6000600282049050600182168061224857607f821691505b6020821081141561225c5761225b61236b565b5b50919050565b61226b826123c9565b810181811067ffffffffffffffff8211171561228a5761228961239a565b5b80604052505050565b600061229e826121e4565b91507fffffffffffffffffffffffffffffffffffffffffffffffffffffffffffffffff8214156122d1576122d061230d565b5b600182019050919050565b60006122e7826121e4565b91506122f2836121e4565b9250826123025761230161233c565b5b828206905092915050565b7f4e487b7100000000000000000000000000000000000000000000000000000000600052601160045260246000fd5b7f4e487b7100000000000000000000000000000000000000000000000000000000600052601260045260246000fd5b7f4e487b7100000000000000000000000000000000000000000000000000000000600052602260045260246000fd5b7f4e487b7100000000000000000000000000000000000000000000000000000000600052604160045260246000fd5b6000601f19601f8301169050919050565b7f4552433732313a207472616e7366657220746f206e6f6e20455243373231526560008201527f63656976657220696d706c656d656e7465720000000000000000000000000000602082015250565b7f4552433732313a207472616e736665722066726f6d20696e636f72726563742060008201527f6f776e6572000000000000000000000000000000000000000000000000000000602082015250565b7f4552433732313a20746f6b656e20616c7265616479206d696e74656400000000600082015250565b7f4552433732313a207472616e7366657220746f20746865207a65726f2061646460008201527f7265737300000000000000000000000000000000000000000000000000000000602082015250565b7f4552433732313a20617070726f766520746f2063616c6c657200000000000000600082015250565b7f4552433732313a206f70657261746f7220717565727920666f72206e6f6e657860008201527f697374656e7420746f6b656e0000000000000000000000000000000000000000602082015250565b7f4552433732313a20617070726f76652063616c6c6572206973206e6f74206f7760008201527f6e6572206e6f7220617070726f76656420666f7220616c6c0000000000000000602082015250565b7f4552433732313a2062616c616e636520717565727920666f7220746865207a6560008201527f726f206164647265737300000000000000000000000000000000000000000000602082015250565b7f4552433732313a206f776e657220717565727920666f72206e6f6e657869737460008201527f656e7420746f6b656e0000000000000000000000000000000000000000000000602082015250565b7f4552433732313a206d696e7420746f20746865207a65726f2061646472657373600082015250565b7f4552433732313a20617070726f76656420717565727920666f72206e6f6e657860008201527f697374656e7420746f6b656e0000000000000000000000000000000000000000602082015250565b7f4552433732314d657461646174613a2055524920717565727920666f72206e6f60008201527f6e6578697374656e7420746f6b656e0000000000000000000000000000000000602082015250565b7f4552433732313a20617070726f76616c20746f2063757272656e74206f776e6560008201527f7200000000000000000000000000000000000000000000000000000000000000602082015250565b7f544f4747453a3a6d696e743a204e4f545f41444d494e00000000000000000000600082015250565b7f4552433732313a207472616e736665722063616c6c6572206973206e6f74206f60008201527f776e6572206e6f7220617070726f766564000000000000000000000000000000602082015250565b6127ec8161217a565b81146127f757600080fd5b50565b6128038161218c565b811461280e57600080fd5b50565b61281a81612198565b811461282557600080fd5b50565b612831816121e4565b811461283c57600080fd5b5056fea2646970667358221220f9ade30caf21178a131dcf3fb1c74b35ba9c37f2434f2ea973def3bbe31b3ac664736f6c63430008040033a2646970667358221220032fb47bf0dc8cbe78d4063ba423388724e2f02ec35538f6ecc5b30233a0601c64736f6c63430008040033a2646970667358221220936bddb51123e3d14bd9487a467a6f4f464c88ba6286d62896df7af0a6d0a64764736f6c63430008040033",
  "linkReferences": {},
  "deployedLinkReferences": {}
}