{
  "_format": "hh-sol-artifact-1",
  "contractName": "BoxV2",
  "sourceName": "contracts/BoxV2.sol",
  "abi": [
    {
      "inputs": [],
      "name": "inc",
      "outputs": [],
      "stateMutability": "nonpayable",
      "type": "function"
    },
    {
      "inputs": [],
      "name": "val",
      "outputs": [
        {
          "internalType": "uint256",
          "name": "",
          "type": "uint256"
        }
      ],
      "stateMutability": "view",
      "type": "function"
    }
  ],
  "bytecode": "0x608060405234801561001057600080fd5b50610173806100206000396000f3fe608060405234801561001057600080fd5b50600436106100365760003560e01c8063371303c01461003b5780633c6bb43614610045575b600080fd5b610043610063565b005b61004d61007e565b60405161005a919061009d565b60405180910390f35b600160008082825461007591906100e7565b92505081905550565b60005481565b6000819050919050565b61009781610084565b82525050565b60006020820190506100b2600083018461008e565b92915050565b7f4e487b7100000000000000000000000000000000000000000000000000000000600052601160045260246000fd5b60006100f282610084565b91506100fd83610084565b9250827fffffffffffffffffffffffffffffffffffffffffffffffffffffffffffffffff03821115610132576101316100b8565b5b82820190509291505056fea26469706673582212207950f21750f3a49fe02b8b29f8de44b10a8b0de731df1ee7673e5d2468989e5b64736f6c634300080a0033",
  "linkReferences": {},
  "deployedLinkReferences": {}
}