{
  "_format": "hh-sol-artifact-1",
  "contractName": "InterestRateModel",
  "sourceName": "contracts/InterestRateModel.sol",
  "abi": [
    {
      "inputs": [
        {
          "internalType": "uint256",
          "name": "goalAmount",
          "type": "uint256"
        },
        {
          "internalType": "uint256",
          "name": "achievedAmount",
          "type": "uint256"
        },
        {
          "internalType": "uint256",
          "name": "_multiplier",
          "type": "uint256"
        }
      ],
      "name": "getBorrowRate",
      "outputs": [
        {
          "internalType": "uint256",
          "name": "",
          "type": "uint256"
        }
      ],
      "stateMutability": "pure",
      "type": "function"
    }
  ],
  "bytecode": "0x608060405234801561001057600080fd5b506103be806100206000396000f3fe608060405234801561001057600080fd5b506004361061002b5760003560e01c806315f2405314610030575b600080fd5b61004a6004803603810190610045919061011c565b610060565b6040516100579190610200565b60405180910390f35b60008083116100a4576040517f08c379a000000000000000000000000000000000000000000000000000000000815260040161009b906101c0565b60405180910390fd5b600084116100e7576040517f08c379a00000000000000000000000000000000000000000000000000000000081526004016100de906101e0565b60405180910390fd5b82846100f3919061022c565b826100fe919061025d565b90509392505050565b60008135905061011681610371565b92915050565b60008060006060848603121561013157600080fd5b600061013f86828701610107565b935050602061015086828701610107565b925050604061016186828701610107565b9150509250925092565b6000610178600f8361021b565b91506101838261031f565b602082019050919050565b600061019b60188361021b565b91506101a682610348565b602082019050919050565b6101ba816102b7565b82525050565b600060208201905081810360008301526101d98161016b565b9050919050565b600060208201905081810360008301526101f98161018e565b9050919050565b600060208201905061021560008301846101b1565b92915050565b600082825260208201905092915050565b6000610237826102b7565b9150610242836102b7565b925082610252576102516102f0565b5b828204905092915050565b6000610268826102b7565b9150610273836102b7565b9250817fffffffffffffffffffffffffffffffffffffffffffffffffffffffffffffffff04831182151516156102ac576102ab6102c1565b5b828202905092915050565b6000819050919050565b7f4e487b7100000000000000000000000000000000000000000000000000000000600052601160045260246000fd5b7f4e487b7100000000000000000000000000000000000000000000000000000000600052601260045260246000fd5b7f544f4747453a204d4154485f4552520000000000000000000000000000000000600082015250565b7f544f4747453a2057524f4e475f474f414c5f414d4f554e540000000000000000600082015250565b61037a816102b7565b811461038557600080fd5b5056fea26469706673582212205798ae8e7a06ccbbd2856d0e0f4709ea78229dc6ae118bc133e2601220aa37bb64736f6c63430008040033",
  "linkReferences": {},
  "deployedLinkReferences": {}
}